{
  "_format": "hh-sol-artifact-1",
  "contractName": "Staking",
  "sourceName": "contracts/Staking.sol",
  "abi": [
    {
      "inputs": [
        {
          "internalType": "contract IERC20",
          "name": "_stakingToken",
          "type": "address"
        }
      ],
      "stateMutability": "nonpayable",
      "type": "constructor"
    },
    {
      "inputs": [],
      "name": "EnforcedPause",
      "type": "error"
    },
    {
      "inputs": [],
      "name": "ExpectedPause",
      "type": "error"
    },
    {
      "inputs": [
        {
          "internalType": "address",
          "name": "owner",
          "type": "address"
        }
      ],
      "name": "OwnableInvalidOwner",
      "type": "error"
    },
    {
      "inputs": [
        {
          "internalType": "address",
          "name": "account",
          "type": "address"
        }
      ],
      "name": "OwnableUnauthorizedAccount",
      "type": "error"
    },
    {
      "inputs": [],
      "name": "ReentrancyGuardReentrantCall",
      "type": "error"
    },
    {
      "anonymous": false,
      "inputs": [
        {
          "indexed": true,
          "internalType": "address",
          "name": "user",
          "type": "address"
        },
        {
          "indexed": false,
          "internalType": "uint256",
          "name": "amount",
          "type": "uint256"
        }
      ],
      "name": "Compounded",
      "type": "event"
    },
    {
      "anonymous": false,
      "inputs": [
        {
          "indexed": true,
          "internalType": "address",
          "name": "user",
          "type": "address"
        },
        {
          "indexed": false,
          "internalType": "uint256",
          "name": "amount",
          "type": "uint256"
        }
      ],
      "name": "EmergencyWithdraw",
      "type": "event"
    },
    {
      "anonymous": false,
      "inputs": [
        {
          "indexed": false,
          "internalType": "address[]",
          "name": "newTopStakers",
          "type": "address[]"
        }
      ],
      "name": "LeaderboardUpdated",
      "type": "event"
    },
    {
      "anonymous": false,
      "inputs": [
        {
          "indexed": true,
          "internalType": "address",
          "name": "previousOwner",
          "type": "address"
        },
        {
          "indexed": true,
          "internalType": "address",
          "name": "newOwner",
          "type": "address"
        }
      ],
      "name": "OwnershipTransferred",
      "type": "event"
    },
    {
      "anonymous": false,
      "inputs": [
        {
          "indexed": false,
          "internalType": "address",
          "name": "account",
          "type": "address"
        }
      ],
      "name": "Paused",
      "type": "event"
    },
    {
      "anonymous": false,
      "inputs": [
        {
          "indexed": true,
          "internalType": "address",
          "name": "user",
          "type": "address"
        },
        {
          "indexed": false,
          "internalType": "uint256",
          "name": "amount",
          "type": "uint256"
        }
      ],
      "name": "RewardClaimed",
      "type": "event"
    },
    {
      "anonymous": false,
      "inputs": [
        {
          "indexed": true,
          "internalType": "address",
          "name": "user",
          "type": "address"
        },
        {
          "indexed": false,
          "internalType": "uint256",
          "name": "amount",
          "type": "uint256"
        }
      ],
      "name": "Staked",
      "type": "event"
    },
    {
      "anonymous": false,
      "inputs": [
        {
          "indexed": false,
          "internalType": "address",
          "name": "account",
          "type": "address"
        }
      ],
      "name": "Unpaused",
      "type": "event"
    },
    {
      "anonymous": false,
      "inputs": [
        {
          "indexed": true,
          "internalType": "address",
          "name": "user",
          "type": "address"
        },
        {
          "indexed": false,
          "internalType": "uint256",
          "name": "amount",
          "type": "uint256"
        }
      ],
      "name": "Unstaked",
      "type": "event"
    },
    {
      "inputs": [],
      "name": "DAILY_EMISSION",
      "outputs": [
        {
          "internalType": "uint256",
          "name": "",
          "type": "uint256"
        }
      ],
      "stateMutability": "view",
      "type": "function"
    },
    {
      "inputs": [],
      "name": "EMISSION_RATE",
      "outputs": [
        {
          "internalType": "uint256",
          "name": "",
          "type": "uint256"
        }
      ],
      "stateMutability": "view",
      "type": "function"
    },
    {
      "inputs": [],
      "name": "MAX_LEADERBOARD_SIZE",
      "outputs": [
        {
          "internalType": "uint256",
          "name": "",
          "type": "uint256"
        }
      ],
      "stateMutability": "view",
      "type": "function"
    },
    {
      "inputs": [],
      "name": "REWARD_ALLOCATION",
      "outputs": [
        {
          "internalType": "uint256",
          "name": "",
          "type": "uint256"
        }
      ],
      "stateMutability": "view",
      "type": "function"
    },
    {
      "inputs": [],
      "name": "claimRewards",
      "outputs": [],
      "stateMutability": "nonpayable",
      "type": "function"
    },
    {
      "inputs": [],
      "name": "compound",
      "outputs": [],
      "stateMutability": "nonpayable",
      "type": "function"
    },
    {
      "inputs": [],
      "name": "emergencyWithdraw",
      "outputs": [],
      "stateMutability": "nonpayable",
      "type": "function"
    },
    {
      "inputs": [
        {
          "internalType": "address",
          "name": "account",
          "type": "address"
        }
      ],
      "name": "getGovernancePower",
      "outputs": [
        {
          "internalType": "uint256",
          "name": "",
          "type": "uint256"
        }
      ],
      "stateMutability": "view",
      "type": "function"
    },
    {
      "inputs": [
        {
          "internalType": "address",
          "name": "account",
          "type": "address"
        }
      ],
      "name": "getRewards",
      "outputs": [
        {
          "internalType": "uint256",
          "name": "",
          "type": "uint256"
        }
      ],
      "stateMutability": "view",
      "type": "function"
    },
    {
      "inputs": [
        {
          "internalType": "address",
          "name": "account",
          "type": "address"
        }
      ],
      "name": "getStakedAmount",
      "outputs": [
        {
          "internalType": "uint256",
          "name": "",
          "type": "uint256"
        }
      ],
      "stateMutability": "view",
      "type": "function"
    },
    {
      "inputs": [],
      "name": "getTopStakers",
      "outputs": [
        {
          "internalType": "address[]",
          "name": "",
          "type": "address[]"
        }
      ],
      "stateMutability": "view",
      "type": "function"
    },
    {
      "inputs": [],
      "name": "lastUpdateTime",
      "outputs": [
        {
          "internalType": "uint256",
          "name": "",
          "type": "uint256"
        }
      ],
      "stateMutability": "view",
      "type": "function"
    },
    {
      "inputs": [],
      "name": "owner",
      "outputs": [
        {
          "internalType": "address",
          "name": "",
          "type": "address"
        }
      ],
      "stateMutability": "view",
      "type": "function"
    },
    {
      "inputs": [],
      "name": "pause",
      "outputs": [],
      "stateMutability": "nonpayable",
      "type": "function"
    },
    {
      "inputs": [],
      "name": "paused",
      "outputs": [
        {
          "internalType": "bool",
          "name": "",
          "type": "bool"
        }
      ],
      "stateMutability": "view",
      "type": "function"
    },
    {
      "inputs": [],
      "name": "remainingRewards",
      "outputs": [
        {
          "internalType": "uint256",
          "name": "",
          "type": "uint256"
        }
      ],
      "stateMutability": "view",
      "type": "function"
    },
    {
      "inputs": [],
      "name": "renounceOwnership",
      "outputs": [],
      "stateMutability": "nonpayable",
      "type": "function"
    },
    {
      "inputs": [],
      "name": "rewardPerToken",
      "outputs": [
        {
          "internalType": "uint256",
          "name": "",
          "type": "uint256"
        }
      ],
      "stateMutability": "view",
      "type": "function"
    },
    {
      "inputs": [],
      "name": "rewardPerTokenStored",
      "outputs": [
        {
          "internalType": "uint256",
          "name": "",
          "type": "uint256"
        }
      ],
      "stateMutability": "view",
      "type": "function"
    },
    {
      "inputs": [
        {
          "internalType": "address",
          "name": "",
          "type": "address"
        }
      ],
      "name": "rewards",
      "outputs": [
        {
          "internalType": "uint256",
          "name": "",
          "type": "uint256"
        }
      ],
      "stateMutability": "view",
      "type": "function"
    },
    {
      "inputs": [],
      "name": "setupInitialRewards",
      "outputs": [],
      "stateMutability": "nonpayable",
      "type": "function"
    },
    {
      "inputs": [
        {
          "internalType": "uint256",
          "name": "amount",
          "type": "uint256"
        }
      ],
      "name": "stake",
      "outputs": [],
      "stateMutability": "nonpayable",
      "type": "function"
    },
    {
      "inputs": [],
      "name": "stakingToken",
      "outputs": [
        {
          "internalType": "contract IERC20",
          "name": "",
          "type": "address"
        }
      ],
      "stateMutability": "view",
      "type": "function"
    },
    {
      "inputs": [
        {
          "internalType": "uint256",
          "name": "",
          "type": "uint256"
        }
      ],
      "name": "topStakers",
      "outputs": [
        {
          "internalType": "address",
          "name": "",
          "type": "address"
        }
      ],
      "stateMutability": "view",
      "type": "function"
    },
    {
      "inputs": [],
      "name": "totalStaked",
      "outputs": [
        {
          "internalType": "uint256",
          "name": "",
          "type": "uint256"
        }
      ],
      "stateMutability": "view",
      "type": "function"
    },
    {
      "inputs": [
        {
          "internalType": "address",
          "name": "newOwner",
          "type": "address"
        }
      ],
      "name": "transferOwnership",
      "outputs": [],
      "stateMutability": "nonpayable",
      "type": "function"
    },
    {
      "inputs": [],
      "name": "unpause",
      "outputs": [],
      "stateMutability": "nonpayable",
      "type": "function"
    },
    {
      "inputs": [
        {
          "internalType": "uint256",
          "name": "amount",
          "type": "uint256"
        }
      ],
      "name": "unstake",
      "outputs": [],
      "stateMutability": "nonpayable",
      "type": "function"
    },
    {
      "inputs": [
        {
          "internalType": "address",
          "name": "",
          "type": "address"
        }
      ],
      "name": "userRewardPerTokenPaid",
      "outputs": [
        {
          "internalType": "uint256",
          "name": "",
          "type": "uint256"
        }
      ],
      "stateMutability": "view",
      "type": "function"
    },
    {
      "inputs": [
        {
          "internalType": "address",
          "name": "",
          "type": "address"
        }
      ],
      "name": "userStakeAmount",
      "outputs": [
        {
          "internalType": "uint256",
          "name": "",
          "type": "uint256"
        }
      ],
      "stateMutability": "view",
      "type": "function"
    }
  ],
  "bytecode": "0x60806040523480156200001157600080fd5b50604051620032c2380380620032c2833981810160405281019062000037919062000272565b3360016000819055506000600160006101000a81548160ff021916908315150217905550600073ffffffffffffffffffffffffffffffffffffffff168173ffffffffffffffffffffffffffffffffffffffff1603620000d05760006040517f1e4fbdf7000000000000000000000000000000000000000000000000000000008152600401620000c79190620002b5565b60405180910390fd5b620000e1816200013160201b60201c565b5080600260006101000a81548173ffffffffffffffffffffffffffffffffffffffff021916908373ffffffffffffffffffffffffffffffffffffffff1602179055504260048190555050620002d2565b600060018054906101000a900473ffffffffffffffffffffffffffffffffffffffff169050816001806101000a81548173ffffffffffffffffffffffffffffffffffffffff021916908373ffffffffffffffffffffffffffffffffffffffff1602179055508173ffffffffffffffffffffffffffffffffffffffff168173ffffffffffffffffffffffffffffffffffffffff167f8be0079c531659141344cd1fd0a4f28419497f9722a3daafe3b4186f6b6457e060405160405180910390a35050565b600080fd5b600073ffffffffffffffffffffffffffffffffffffffff82169050919050565b60006200022682620001f9565b9050919050565b60006200023a8262000219565b9050919050565b6200024c816200022d565b81146200025857600080fd5b50565b6000815190506200026c8162000241565b92915050565b6000602082840312156200028b576200028a620001f4565b5b60006200029b848285016200025b565b91505092915050565b620002af8162000219565b82525050565b6000602082019050620002cc6000830184620002a4565b92915050565b612fe080620002e26000396000f3fe608060405234801561001057600080fd5b50600436106101da5760003560e01c80638456cb5911610104578063cd3daf9d116100a2578063e06c73b111610071578063e06c73b1146104ed578063f2fde38b1461050b578063f69e204614610527578063fb27faf114610531576101da565b8063cd3daf9d14610489578063db2e21bc146104a7578063db877142146104b1578063df136d65146104cf576101da565b8063a694fc3a116100de578063a694fc3a14610427578063afb62e5614610443578063afe4682014610461578063c8f33c911461046b576101da565b80638456cb59146103cf5780638b876347146103d95780638da5cb5b14610409576101da565b80633f4ba83a1161017c578063715018a61161014b578063715018a61461035957806372f702f31461036357806379ee54f714610381578063817b1cd2146103b1576101da565b80633f4ba83a146102e35780634da6a556146102ed5780635c975abb1461031d57806370bb9a251461033b576101da565b80632e17de78116101b85780632e17de781461025d5780632f81e7dc14610279578063372500ab146102a95780633e84681a146102b3576101da565b806301b8199a146101df5780630700037d146101fd57806317d1720d1461022d575b600080fd5b6101e761054f565b6040516101f491906124da565b60405180910390f35b61021760048036038101906102129190612558565b61056a565b60405161022491906124da565b60405180910390f35b61024760048036038101906102429190612558565b610582565b60405161025491906124da565b60405180910390f35b610277600480360381019061027291906125b1565b610688565b005b610293600480360381019061028e91906125b1565b610bc5565b6040516102a091906125ed565b60405180910390f35b6102b1610c04565b005b6102cd60048036038101906102c89190612558565b610ed6565b6040516102da91906124da565b60405180910390f35b6102eb610eee565b005b61030760048036038101906103029190612558565b610f00565b60405161031491906124da565b60405180910390f35b610325610f49565b6040516103329190612623565b60405180910390f35b610343610f60565b60405161035091906126fc565b60405180910390f35b610361610fee565b005b61036b611002565b604051610378919061277d565b60405180910390f35b61039b60048036038101906103969190612558565b611028565b6040516103a891906124da565b60405180910390f35b6103b961112a565b6040516103c691906124da565b60405180910390f35b6103d7611130565b005b6103f360048036038101906103ee9190612558565b611142565b60405161040091906124da565b60405180910390f35b61041161115a565b60405161041e91906125ed565b60405180910390f35b610441600480360381019061043c91906125b1565b611182565b005b61044b611465565b60405161045891906124da565b60405180910390f35b61046961146b565b005b6104736115b8565b60405161048091906124da565b60405180910390f35b6104916115be565b60405161049e91906124da565b60405180910390f35b6104af611636565b005b6104b96118a9565b6040516104c691906124da565b60405180910390f35b6104d76118ae565b6040516104e491906124da565b60405180910390f35b6104f56118b4565b60405161050291906124da565b60405180910390f35b61052560048036038101906105209190612558565b6118c3565b005b61052f611949565b005b610539611bb4565b60405161054691906124da565b60405180910390f35b62015180683635c9adc5dea0000061056791906127f6565b81565b60086020528060005260406000206000915090505481565b600080600760008473ffffffffffffffffffffffffffffffffffffffff1673ffffffffffffffffffffffffffffffffffffffff1681526020019081526020016000205490506000600260009054906101000a900473ffffffffffffffffffffffffffffffffffffffff1673ffffffffffffffffffffffffffffffffffffffff166370a08231856040518263ffffffff1660e01b815260040161062491906125ed565b602060405180830381865afa158015610641573d6000803e3d6000fd5b505050506040513d601f19601f82011682018060405250810190610665919061283c565b9050806002836106759190612869565b61067f91906128ab565b92505050919050565b610690611bc1565b610698611c07565b336106a16115be565b60058190555042600481905550600073ffffffffffffffffffffffffffffffffffffffff168173ffffffffffffffffffffffffffffffffffffffff1614610775576106eb81611028565b600860008373ffffffffffffffffffffffffffffffffffffffff1673ffffffffffffffffffffffffffffffffffffffff16815260200190815260200160002081905550600554600960008373ffffffffffffffffffffffffffffffffffffffff1673ffffffffffffffffffffffffffffffffffffffff168152602001908152602001600020819055505b600082116107b8576040517f08c379a00000000000000000000000000000000000000000000000000000000081526004016107af9061293c565b60405180910390fd5b81600760003373ffffffffffffffffffffffffffffffffffffffff1673ffffffffffffffffffffffffffffffffffffffff16815260200190815260200160002054101561083a576040517f08c379a0000000000000000000000000000000000000000000000000000000008152600401610831906129a8565b60405180910390fd5b816003600082825461084c91906129c8565b9250508190555081600760003373ffffffffffffffffffffffffffffffffffffffff1673ffffffffffffffffffffffffffffffffffffffff16815260200190815260200160002060008282546108a291906129c8565b92505081905550600260009054906101000a900473ffffffffffffffffffffffffffffffffffffffff1673ffffffffffffffffffffffffffffffffffffffff1663a9059cbb33846040518363ffffffff1660e01b81526004016109069291906129fc565b6020604051808303816000875af1158015610925573d6000803e3d6000fd5b505050506040513d601f19601f820116820180604052508101906109499190612a51565b610988576040517f08c379a000000000000000000000000000000000000000000000000000000000815260040161097f90612aca565b60405180910390fd5b6000600860003373ffffffffffffffffffffffffffffffffffffffff1673ffffffffffffffffffffffffffffffffffffffff1681526020019081526020016000205490506000811115610b61576000600860003373ffffffffffffffffffffffffffffffffffffffff1673ffffffffffffffffffffffffffffffffffffffff16815260200190815260200160002081905550600260009054906101000a900473ffffffffffffffffffffffffffffffffffffffff1673ffffffffffffffffffffffffffffffffffffffff1663a9059cbb33836040518363ffffffff1660e01b8152600401610a779291906129fc565b6020604051808303816000875af1158015610a96573d6000803e3d6000fd5b505050506040513d601f19601f82011682018060405250810190610aba9190612a51565b610af9576040517f08c379a0000000000000000000000000000000000000000000000000000000008152600401610af090612b36565b60405180910390fd5b8060066000828254610b0b91906129c8565b925050819055503373ffffffffffffffffffffffffffffffffffffffff167f106f923f993c2149d49b4255ff723acafa1f2d94393f561d3eda32ae348f724182604051610b5891906124da565b60405180910390a25b610b6a33611c48565b3373ffffffffffffffffffffffffffffffffffffffff167f0f5bb82176feb1b5e747e28471aa92156a04d9f3ab9f45f28e2d704232b93f7584604051610bb091906124da565b60405180910390a25050610bc2612260565b50565b600a8181548110610bd557600080fd5b906000526020600020016000915054906101000a900473ffffffffffffffffffffffffffffffffffffffff1681565b610c0c611bc1565b610c14611c07565b33610c1d6115be565b60058190555042600481905550600073ffffffffffffffffffffffffffffffffffffffff168173ffffffffffffffffffffffffffffffffffffffff1614610cf157610c6781611028565b600860008373ffffffffffffffffffffffffffffffffffffffff1673ffffffffffffffffffffffffffffffffffffffff16815260200190815260200160002081905550600554600960008373ffffffffffffffffffffffffffffffffffffffff1673ffffffffffffffffffffffffffffffffffffffff168152602001908152602001600020819055505b6000600860003373ffffffffffffffffffffffffffffffffffffffff1673ffffffffffffffffffffffffffffffffffffffff1681526020019081526020016000205490506000811115610eca576000600860003373ffffffffffffffffffffffffffffffffffffffff1673ffffffffffffffffffffffffffffffffffffffff16815260200190815260200160002081905550600260009054906101000a900473ffffffffffffffffffffffffffffffffffffffff1673ffffffffffffffffffffffffffffffffffffffff1663a9059cbb33836040518363ffffffff1660e01b8152600401610de09291906129fc565b6020604051808303816000875af1158015610dff573d6000803e3d6000fd5b505050506040513d601f19601f82011682018060405250810190610e239190612a51565b610e62576040517f08c379a0000000000000000000000000000000000000000000000000000000008152600401610e5990612b36565b60405180910390fd5b8060066000828254610e7491906129c8565b925050819055503373ffffffffffffffffffffffffffffffffffffffff167f106f923f993c2149d49b4255ff723acafa1f2d94393f561d3eda32ae348f724182604051610ec191906124da565b60405180910390a25b5050610ed4612260565b565b60076020528060005260406000206000915090505481565b610ef661226a565b610efe6122f1565b565b6000600760008373ffffffffffffffffffffffffffffffffffffffff1673ffffffffffffffffffffffffffffffffffffffff168152602001908152602001600020549050919050565b6000600160009054906101000a900460ff16905090565b6060600a805480602002602001604051908101604052809291908181526020018280548015610fe457602002820191906000526020600020905b8160009054906101000a900473ffffffffffffffffffffffffffffffffffffffff1673ffffffffffffffffffffffffffffffffffffffff1681526020019060010190808311610f9a575b5050505050905090565b610ff661226a565b6110006000612354565b565b600260009054906101000a900473ffffffffffffffffffffffffffffffffffffffff1681565b6000670de0b6b3a7640000600960008473ffffffffffffffffffffffffffffffffffffffff1673ffffffffffffffffffffffffffffffffffffffff1681526020019081526020016000205461107b6115be565b61108591906129c8565b600760008573ffffffffffffffffffffffffffffffffffffffff1673ffffffffffffffffffffffffffffffffffffffff168152602001908152602001600020546110cf9190612869565b6110d991906127f6565b600860008473ffffffffffffffffffffffffffffffffffffffff1673ffffffffffffffffffffffffffffffffffffffff1681526020019081526020016000205461112391906128ab565b9050919050565b60035481565b61113861226a565b611140612417565b565b60096020528060005260406000206000915090505481565b600060018054906101000a900473ffffffffffffffffffffffffffffffffffffffff16905090565b61118a611bc1565b611192611c07565b3361119b6115be565b60058190555042600481905550600073ffffffffffffffffffffffffffffffffffffffff168173ffffffffffffffffffffffffffffffffffffffff161461126f576111e581611028565b600860008373ffffffffffffffffffffffffffffffffffffffff1673ffffffffffffffffffffffffffffffffffffffff16815260200190815260200160002081905550600554600960008373ffffffffffffffffffffffffffffffffffffffff1673ffffffffffffffffffffffffffffffffffffffff168152602001908152602001600020819055505b600082116112b2576040517f08c379a00000000000000000000000000000000000000000000000000000000081526004016112a990612ba2565b60405180910390fd5b81600360008282546112c491906128ab565b9250508190555081600760003373ffffffffffffffffffffffffffffffffffffffff1673ffffffffffffffffffffffffffffffffffffffff168152602001908152602001600020600082825461131a91906128ab565b92505081905550600260009054906101000a900473ffffffffffffffffffffffffffffffffffffffff1673ffffffffffffffffffffffffffffffffffffffff166323b872dd3330856040518463ffffffff1660e01b815260040161138093929190612bc2565b6020604051808303816000875af115801561139f573d6000803e3d6000fd5b505050506040513d601f19601f820116820180604052508101906113c39190612a51565b611402576040517f08c379a00000000000000000000000000000000000000000000000000000000081526004016113f990612c45565b60405180910390fd5b61140b33611c48565b3373ffffffffffffffffffffffffffffffffffffffff167f9e71bc8eea02a63969f509818f2dafb9254532904319f9dbda79b67bd34a5f3d8360405161145191906124da565b60405180910390a250611462612260565b50565b60065481565b61147361226a565b6000600654146114b8576040517f08c379a00000000000000000000000000000000000000000000000000000000081526004016114af90612cb1565b60405180910390fd5b6a084595161401484a000000600681905550600260009054906101000a900473ffffffffffffffffffffffffffffffffffffffff1673ffffffffffffffffffffffffffffffffffffffff166323b872dd33306a084595161401484a0000006040518463ffffffff1660e01b815260040161153493929190612bc2565b6020604051808303816000875af1158015611553573d6000803e3d6000fd5b505050506040513d601f19601f820116820180604052508101906115779190612a51565b6115b6576040517f08c379a00000000000000000000000000000000000000000000000000000000081526004016115ad90612d1d565b60405180910390fd5b565b60045481565b600080600354036115d3576005549050611633565b600354670de0b6b3a764000062015180683635c9adc5dea000006115f791906127f6565b6004544261160591906129c8565b61160f9190612869565b6116199190612869565b61162391906127f6565b60055461163091906128ab565b90505b90565b61163e611bc1565b6000600760003373ffffffffffffffffffffffffffffffffffffffff1673ffffffffffffffffffffffffffffffffffffffff168152602001908152602001600020549050600081116116c5576040517f08c379a00000000000000000000000000000000000000000000000000000000081526004016116bc90612d89565b60405180910390fd5b80600360008282546116d791906129c8565b925050819055506000600760003373ffffffffffffffffffffffffffffffffffffffff1673ffffffffffffffffffffffffffffffffffffffff168152602001908152602001600020819055506000600860003373ffffffffffffffffffffffffffffffffffffffff1673ffffffffffffffffffffffffffffffffffffffff16815260200190815260200160002081905550600260009054906101000a900473ffffffffffffffffffffffffffffffffffffffff1673ffffffffffffffffffffffffffffffffffffffff1663a9059cbb33836040518363ffffffff1660e01b81526004016117c59291906129fc565b6020604051808303816000875af11580156117e4573d6000803e3d6000fd5b505050506040513d601f19601f820116820180604052508101906118089190612a51565b611847576040517f08c379a000000000000000000000000000000000000000000000000000000000815260040161183e90612df5565b60405180910390fd5b61185033611c48565b3373ffffffffffffffffffffffffffffffffffffffff167f5fafa99d0643513820be26656b45130b01e1c03062e1266bf36f88cbd3bd96958260405161189691906124da565b60405180910390a2506118a7612260565b565b600a81565b60055481565b6a084595161401484a00000081565b6118cb61226a565b600073ffffffffffffffffffffffffffffffffffffffff168173ffffffffffffffffffffffffffffffffffffffff160361193d5760006040517f1e4fbdf700000000000000000000000000000000000000000000000000000000815260040161193491906125ed565b60405180910390fd5b61194681612354565b50565b611951611bc1565b611959611c07565b336119626115be565b60058190555042600481905550600073ffffffffffffffffffffffffffffffffffffffff168173ffffffffffffffffffffffffffffffffffffffff1614611a36576119ac81611028565b600860008373ffffffffffffffffffffffffffffffffffffffff1673ffffffffffffffffffffffffffffffffffffffff16815260200190815260200160002081905550600554600960008373ffffffffffffffffffffffffffffffffffffffff1673ffffffffffffffffffffffffffffffffffffffff168152602001908152602001600020819055505b6000600860003373ffffffffffffffffffffffffffffffffffffffff1673ffffffffffffffffffffffffffffffffffffffff1681526020019081526020016000205490506000811115611ba8576000600860003373ffffffffffffffffffffffffffffffffffffffff1673ffffffffffffffffffffffffffffffffffffffff168152602001908152602001600020819055508060036000828254611ada91906128ab565b9250508190555080600760003373ffffffffffffffffffffffffffffffffffffffff1673ffffffffffffffffffffffffffffffffffffffff1681526020019081526020016000206000828254611b3091906128ab565b925050819055508060066000828254611b4991906129c8565b92505081905550611b5933611c48565b3373ffffffffffffffffffffffffffffffffffffffff167fc16de066392da7e40ceccb739c331fc48a2e76bf147449613c48023d960eec3282604051611b9f91906124da565b60405180910390a25b5050611bb2612260565b565b683635c9adc5dea0000081565b600260005403611bfd576040517f3ee5aeb500000000000000000000000000000000000000000000000000000000815260040160405180910390fd5b6002600081905550565b611c0f610f49565b15611c46576040517fd93c066500000000000000000000000000000000000000000000000000000000815260040160405180910390fd5b565b6000600760008373ffffffffffffffffffffffffffffffffffffffff1673ffffffffffffffffffffffffffffffffffffffff16815260200190815260200160002054905060008060009050600091505b600a80549050821015611d2c578373ffffffffffffffffffffffffffffffffffffffff16600a8381548110611cd057611ccf612e15565b5b9060005260206000200160009054906101000a900473ffffffffffffffffffffffffffffffffffffffff1673ffffffffffffffffffffffffffffffffffffffff1603611d1f5760019050611d2c565b8180600101925050611c98565b8015611eec575b600082118015611dcb57508260076000600a600186611d5291906129c8565b81548110611d6357611d62612e15565b5b9060005260206000200160009054906101000a900473ffffffffffffffffffffffffffffffffffffffff1673ffffffffffffffffffffffffffffffffffffffff1673ffffffffffffffffffffffffffffffffffffffff16815260200190815260200160002054105b15611e8a57600a600183611ddf91906129c8565b81548110611df057611def612e15565b5b9060005260206000200160009054906101000a900473ffffffffffffffffffffffffffffffffffffffff16600a8381548110611e2f57611e2e612e15565b5b9060005260206000200160006101000a81548173ffffffffffffffffffffffffffffffffffffffff021916908373ffffffffffffffffffffffffffffffffffffffff1602179055508180611e8290612e44565b925050611d33565b83600a8381548110611e9f57611e9e612e15565b5b9060005260206000200160006101000a81548173ffffffffffffffffffffffffffffffffffffffff021916908373ffffffffffffffffffffffffffffffffffffffff160217905550612222565b600a80805490501080611f8c575060076000600a6001600a80549050611f1291906129c8565b81548110611f2357611f22612e15565b5b9060005260206000200160009054906101000a900473ffffffffffffffffffffffffffffffffffffffff1673ffffffffffffffffffffffffffffffffffffffff1673ffffffffffffffffffffffffffffffffffffffff1681526020019081526020016000205483115b1561222157600a8080549050101561200257600a849080600181540180825580915050600190039060005260206000200160009091909190916101000a81548173ffffffffffffffffffffffffffffffffffffffff021916908373ffffffffffffffffffffffffffffffffffffffff1602179055505b6001600a8054905061201491906129c8565b91505b6000821180156120af57508260076000600a60018661203691906129c8565b8154811061204757612046612e15565b5b9060005260206000200160009054906101000a900473ffffffffffffffffffffffffffffffffffffffff1673ffffffffffffffffffffffffffffffffffffffff1673ffffffffffffffffffffffffffffffffffffffff16815260200190815260200160002054105b1561216e57600a6001836120c391906129c8565b815481106120d4576120d3612e15565b5b9060005260206000200160009054906101000a900473ffffffffffffffffffffffffffffffffffffffff16600a838154811061211357612112612e15565b5b9060005260206000200160006101000a81548173ffffffffffffffffffffffffffffffffffffffff021916908373ffffffffffffffffffffffffffffffffffffffff160217905550818061216690612e44565b925050612017565b83600a838154811061218357612182612e15565b5b9060005260206000200160006101000a81548173ffffffffffffffffffffffffffffffffffffffff021916908373ffffffffffffffffffffffffffffffffffffffff160217905550600a8080549050111561222057600a8054806121ea576121e9612e6d565b5b6001900381819060005260206000200160006101000a81549073ffffffffffffffffffffffffffffffffffffffff021916905590555b5b5b7f7ccbd3e5f76ac81b086d3bf37b0df3fe40f7cb88cafa59f06b68ad0144987687600a6040516122529190612f88565b60405180910390a150505050565b6001600081905550565b612272612479565b73ffffffffffffffffffffffffffffffffffffffff1661229061115a565b73ffffffffffffffffffffffffffffffffffffffff16146122ef576122b3612479565b6040517f118cdaa70000000000000000000000000000000000000000000000000000000081526004016122e691906125ed565b60405180910390fd5b565b6122f9612481565b6000600160006101000a81548160ff0219169083151502179055507f5db9ee0a495bf2e6ff9c91a7834c1ba4fdd244a5e8aa4e537bd38aeae4b073aa61233d612479565b60405161234a91906125ed565b60405180910390a1565b600060018054906101000a900473ffffffffffffffffffffffffffffffffffffffff169050816001806101000a81548173ffffffffffffffffffffffffffffffffffffffff021916908373ffffffffffffffffffffffffffffffffffffffff1602179055508173ffffffffffffffffffffffffffffffffffffffff168173ffffffffffffffffffffffffffffffffffffffff167f8be0079c531659141344cd1fd0a4f28419497f9722a3daafe3b4186f6b6457e060405160405180910390a35050565b61241f611c07565b60018060006101000a81548160ff0219169083151502179055507f62e78cea01bee320cd4e420270b5ea74000d11b0c9f74754ebdbfc544b05a258612462612479565b60405161246f91906125ed565b60405180910390a1565b600033905090565b612489610f49565b6124bf576040517f8dfc202b00000000000000000000000000000000000000000000000000000000815260040160405180910390fd5b565b6000819050919050565b6124d4816124c1565b82525050565b60006020820190506124ef60008301846124cb565b92915050565b600080fd5b600073ffffffffffffffffffffffffffffffffffffffff82169050919050565b6000612525826124fa565b9050919050565b6125358161251a565b811461254057600080fd5b50565b6000813590506125528161252c565b92915050565b60006020828403121561256e5761256d6124f5565b5b600061257c84828501612543565b91505092915050565b61258e816124c1565b811461259957600080fd5b50565b6000813590506125ab81612585565b92915050565b6000602082840312156125c7576125c66124f5565b5b60006125d58482850161259c565b91505092915050565b6125e78161251a565b82525050565b600060208201905061260260008301846125de565b92915050565b60008115159050919050565b61261d81612608565b82525050565b60006020820190506126386000830184612614565b92915050565b600081519050919050565b600082825260208201905092915050565b6000819050602082019050919050565b6126738161251a565b82525050565b6000612685838361266a565b60208301905092915050565b6000602082019050919050565b60006126a98261263e565b6126b38185612649565b93506126be8361265a565b8060005b838110156126ef5781516126d68882612679565b97506126e183612691565b9250506001810190506126c2565b5085935050505092915050565b60006020820190508181036000830152612716818461269e565b905092915050565b6000819050919050565b600061274361273e612739846124fa565b61271e565b6124fa565b9050919050565b600061275582612728565b9050919050565b60006127678261274a565b9050919050565b6127778161275c565b82525050565b6000602082019050612792600083018461276e565b92915050565b7f4e487b7100000000000000000000000000000000000000000000000000000000600052601260045260246000fd5b7f4e487b7100000000000000000000000000000000000000000000000000000000600052601160045260246000fd5b6000612801826124c1565b915061280c836124c1565b92508261281c5761281b612798565b5b828204905092915050565b60008151905061283681612585565b92915050565b600060208284031215612852576128516124f5565b5b600061286084828501612827565b91505092915050565b6000612874826124c1565b915061287f836124c1565b925082820261288d816124c1565b915082820484148315176128a4576128a36127c7565b5b5092915050565b60006128b6826124c1565b91506128c1836124c1565b92508282019050808211156128d9576128d86127c7565b5b92915050565b600082825260208201905092915050565b7f43616e6e6f7420756e7374616b65203000000000000000000000000000000000600082015250565b60006129266010836128df565b9150612931826128f0565b602082019050919050565b6000602082019050818103600083015261295581612919565b9050919050565b7f4e6f7420656e6f756768207374616b6564000000000000000000000000000000600082015250565b60006129926011836128df565b915061299d8261295c565b602082019050919050565b600060208201905081810360008301526129c181612985565b9050919050565b60006129d3826124c1565b91506129de836124c1565b92508282039050818111156129f6576129f56127c7565b5b92915050565b6000604082019050612a1160008301856125de565b612a1e60208301846124cb565b9392505050565b612a2e81612608565b8114612a3957600080fd5b50565b600081519050612a4b81612a25565b92915050565b600060208284031215612a6757612a666124f5565b5b6000612a7584828501612a3c565b91505092915050565b7f556e7374616b65207472616e73666572206661696c6564000000000000000000600082015250565b6000612ab46017836128df565b9150612abf82612a7e565b602082019050919050565b60006020820190508181036000830152612ae381612aa7565b9050919050565b7f526577617264207472616e73666572206661696c656400000000000000000000600082015250565b6000612b206016836128df565b9150612b2b82612aea565b602082019050919050565b60006020820190508181036000830152612b4f81612b13565b9050919050565b7f43616e6e6f74207374616b652030000000000000000000000000000000000000600082015250565b6000612b8c600e836128df565b9150612b9782612b56565b602082019050919050565b60006020820190508181036000830152612bbb81612b7f565b9050919050565b6000606082019050612bd760008301866125de565b612be460208301856125de565b612bf160408301846124cb565b949350505050565b7f5374616b65207472616e73666572206661696c65640000000000000000000000600082015250565b6000612c2f6015836128df565b9150612c3a82612bf9565b602082019050919050565b60006020820190508181036000830152612c5e81612c22565b9050919050565b7f5265776172647320616c72656164792073657420757000000000000000000000600082015250565b6000612c9b6016836128df565b9150612ca682612c65565b602082019050919050565b60006020820190508181036000830152612cca81612c8e565b9050919050565b7f4661696c656420746f207472616e736665722072657761726420746f6b656e73600082015250565b6000612d076020836128df565b9150612d1282612cd1565b602082019050919050565b60006020820190508181036000830152612d3681612cfa565b9050919050565b7f4e6f207374616b6520746f207769746864726177000000000000000000000000600082015250565b6000612d736014836128df565b9150612d7e82612d3d565b602082019050919050565b60006020820190508181036000830152612da281612d66565b9050919050565b7f456d657267656e6379207769746864726177616c206661696c65640000000000600082015250565b6000612ddf601b836128df565b9150612dea82612da9565b602082019050919050565b60006020820190508181036000830152612e0e81612dd2565b9050919050565b7f4e487b7100000000000000000000000000000000000000000000000000000000600052603260045260246000fd5b6000612e4f826124c1565b915060008203612e6257612e616127c7565b5b600182039050919050565b7f4e487b7100000000000000000000000000000000000000000000000000000000600052603160045260246000fd5b600081549050919050565b60008190508160005260206000209050919050565b60008160001c9050919050565b600073ffffffffffffffffffffffffffffffffffffffff82169050919050565b6000612efc612ef783612ebc565b612ec9565b9050919050565b6000612f0f8254612ee9565b9050919050565b6000600182019050919050565b6000612f2e82612e9c565b612f388185612649565b9350612f4383612ea7565b8060005b83811015612f7b57612f5882612f03565b612f628882612679565b9750612f6d83612f16565b925050600181019050612f47565b5085935050505092915050565b60006020820190508181036000830152612fa28184612f23565b90509291505056fea2646970667358221220d581bb27f4c76dbe7fb3dab54ff8b4d892197e2909244f62b9ca066eb4f699e064736f6c63430008180033",
  "linkReferences": {},
  "deployedLinkReferences": {}
}