{
  "contracts/Governance.sol": {
    "Governance": {
      "abi": [
        {
          "inputs": [
            {
              "internalType": "contract Staking",
              "name": "_stakingContract",
              "type": "address"
            }
          ],
          "stateMutability": "nonpayable",
          "type": "constructor"
        },
        {
          "inputs": [
            {
              "internalType": "address",
              "name": "owner",
              "type": "address"
            }
          ],
          "name": "OwnableInvalidOwner",
          "type": "error"
        },
        {
          "inputs": [
            {
              "internalType": "address",
              "name": "account",
              "type": "address"
            }
          ],
          "name": "OwnableUnauthorizedAccount",
          "type": "error"
        },
        {
          "anonymous": false,
          "inputs": [
            {
              "indexed": true,
              "internalType": "address",
              "name": "delegator",
              "type": "address"
            },
            {
              "indexed": true,
              "internalType": "address",
              "name": "fromDelegate",
              "type": "address"
            },
            {
              "indexed": true,
              "internalType": "address",
              "name": "toDelegate",
              "type": "address"
            }
          ],
          "name": "DelegateChanged",
          "type": "event"
        },
        {
          "anonymous": false,
          "inputs": [
            {
              "indexed": true,
              "internalType": "address",
              "name": "previousOwner",
              "type": "address"
            },
            {
              "indexed": true,
              "internalType": "address",
              "name": "newOwner",
              "type": "address"
            }
          ],
          "name": "OwnershipTransferred",
          "type": "event"
        },
        {
          "anonymous": false,
          "inputs": [
            {
              "indexed": true,
              "internalType": "uint256",
              "name": "proposalId",
              "type": "uint256"
            }
          ],
          "name": "ProposalCanceled",
          "type": "event"
        },
        {
          "anonymous": false,
          "inputs": [
            {
              "indexed": true,
              "internalType": "uint256",
              "name": "proposalId",
              "type": "uint256"
            },
            {
              "indexed": false,
              "internalType": "address",
              "name": "proposer",
              "type": "address"
            },
            {
              "indexed": false,
              "internalType": "address[]",
              "name": "targets",
              "type": "address[]"
            },
            {
              "indexed": false,
              "internalType": "uint256[]",
              "name": "values",
              "type": "uint256[]"
            },
            {
              "indexed": false,
              "internalType": "bytes[]",
              "name": "calldatas",
              "type": "bytes[]"
            },
            {
              "indexed": false,
              "internalType": "uint256",
              "name": "voteStart",
              "type": "uint256"
            },
            {
              "indexed": false,
              "internalType": "uint256",
              "name": "voteEnd",
              "type": "uint256"
            },
            {
              "indexed": false,
              "internalType": "string",
              "name": "description",
              "type": "string"
            }
          ],
          "name": "ProposalCreated",
          "type": "event"
        },
        {
          "anonymous": false,
          "inputs": [
            {
              "indexed": true,
              "internalType": "uint256",
              "name": "proposalId",
              "type": "uint256"
            }
          ],
          "name": "ProposalExecuted",
          "type": "event"
        },
        {
          "anonymous": false,
          "inputs": [
            {
              "indexed": false,
              "internalType": "uint256",
              "name": "oldQuorumPercentage",
              "type": "uint256"
            },
            {
              "indexed": false,
              "internalType": "uint256",
              "name": "newQuorumPercentage",
              "type": "uint256"
            }
          ],
          "name": "QuorumPercentageChanged",
          "type": "event"
        },
        {
          "anonymous": false,
          "inputs": [
            {
              "indexed": true,
              "internalType": "address",
              "name": "voter",
              "type": "address"
            },
            {
              "indexed": true,
              "internalType": "uint256",
              "name": "proposalId",
              "type": "uint256"
            },
            {
              "indexed": false,
              "internalType": "uint8",
              "name": "support",
              "type": "uint8"
            },
            {
              "indexed": false,
              "internalType": "uint256",
              "name": "weight",
              "type": "uint256"
            }
          ],
          "name": "VoteCast",
          "type": "event"
        },
        {
          "inputs": [
            {
              "internalType": "uint256",
              "name": "proposalId",
              "type": "uint256"
            }
          ],
          "name": "cancelProposal",
          "outputs": [],
          "stateMutability": "nonpayable",
          "type": "function"
        },
        {
          "inputs": [
            {
              "internalType": "uint256",
              "name": "proposalId",
              "type": "uint256"
            },
            {
              "internalType": "uint8",
              "name": "support",
              "type": "uint8"
            }
          ],
          "name": "castVote",
          "outputs": [
            {
              "internalType": "uint256",
              "name": "",
              "type": "uint256"
            }
          ],
          "stateMutability": "nonpayable",
          "type": "function"
        },
        {
          "inputs": [
            {
              "internalType": "address",
              "name": "delegatee",
              "type": "address"
            }
          ],
          "name": "delegate",
          "outputs": [],
          "stateMutability": "nonpayable",
          "type": "function"
        },
        {
          "inputs": [
            {
              "internalType": "address",
              "name": "",
              "type": "address"
            }
          ],
          "name": "delegates",
          "outputs": [
            {
              "internalType": "address",
              "name": "",
              "type": "address"
            }
          ],
          "stateMutability": "view",
          "type": "function"
        },
        {
          "inputs": [
            {
              "internalType": "uint256",
              "name": "proposalId",
              "type": "uint256"
            }
          ],
          "name": "executeProposal",
          "outputs": [],
          "stateMutability": "nonpayable",
          "type": "function"
        },
        {
          "inputs": [
            {
              "internalType": "address",
              "name": "account",
              "type": "address"
            }
          ],
          "name": "getVotingPower",
          "outputs": [
            {
              "internalType": "uint256",
              "name": "",
              "type": "uint256"
            }
          ],
          "stateMutability": "view",
          "type": "function"
        },
        {
          "inputs": [
            {
              "internalType": "address[]",
              "name": "targets",
              "type": "address[]"
            },
            {
              "internalType": "uint256[]",
              "name": "values",
              "type": "uint256[]"
            },
            {
              "internalType": "bytes[]",
              "name": "calldatas",
              "type": "bytes[]"
            },
            {
              "internalType": "bytes32",
              "name": "descriptionHash",
              "type": "bytes32"
            }
          ],
          "name": "hashProposal",
          "outputs": [
            {
              "internalType": "uint256",
              "name": "",
              "type": "uint256"
            }
          ],
          "stateMutability": "pure",
          "type": "function"
        },
        {
          "inputs": [
            {
              "internalType": "uint256",
              "name": "proposalId",
              "type": "uint256"
            }
          ],
          "name": "isQuorumReached",
          "outputs": [
            {
              "internalType": "bool",
              "name": "",
              "type": "bool"
            }
          ],
          "stateMutability": "view",
          "type": "function"
        },
        {
          "inputs": [],
          "name": "owner",
          "outputs": [
            {
              "internalType": "address",
              "name": "",
              "type": "address"
            }
          ],
          "stateMutability": "view",
          "type": "function"
        },
        {
          "inputs": [],
          "name": "proposalThreshold",
          "outputs": [
            {
              "internalType": "uint256",
              "name": "",
              "type": "uint256"
            }
          ],
          "stateMutability": "view",
          "type": "function"
        },
        {
          "inputs": [
            {
              "internalType": "uint256",
              "name": "",
              "type": "uint256"
            }
          ],
          "name": "proposals",
          "outputs": [
            {
              "internalType": "address",
              "name": "proposer",
              "type": "address"
            },
            {
              "internalType": "uint256",
              "name": "voteStart",
              "type": "uint256"
            },
            {
              "internalType": "uint256",
              "name": "voteEnd",
              "type": "uint256"
            },
            {
              "internalType": "bool",
              "name": "executed",
              "type": "bool"
            },
            {
              "internalType": "bool",
              "name": "canceled",
              "type": "bool"
            },
            {
              "internalType": "uint256",
              "name": "forVotes",
              "type": "uint256"
            },
            {
              "internalType": "uint256",
              "name": "againstVotes",
              "type": "uint256"
            },
            {
              "internalType": "uint256",
              "name": "abstainVotes",
              "type": "uint256"
            },
            {
              "internalType": "string",
              "name": "description",
              "type": "string"
            }
          ],
          "stateMutability": "view",
          "type": "function"
        },
        {
          "inputs": [
            {
              "internalType": "address[]",
              "name": "targets",
              "type": "address[]"
            },
            {
              "internalType": "uint256[]",
              "name": "values",
              "type": "uint256[]"
            },
            {
              "internalType": "bytes[]",
              "name": "calldatas",
              "type": "bytes[]"
            },
            {
              "internalType": "string",
              "name": "description",
              "type": "string"
            }
          ],
          "name": "propose",
          "outputs": [
            {
              "internalType": "uint256",
              "name": "",
              "type": "uint256"
            }
          ],
          "stateMutability": "nonpayable",
          "type": "function"
        },
        {
          "inputs": [],
          "name": "quorumPercentage",
          "outputs": [
            {
              "internalType": "uint256",
              "name": "",
              "type": "uint256"
            }
          ],
          "stateMutability": "view",
          "type": "function"
        },
        {
          "inputs": [],
          "name": "renounceOwnership",
          "outputs": [],
          "stateMutability": "nonpayable",
          "type": "function"
        },
        {
          "inputs": [
            {
              "internalType": "uint256",
              "name": "newQuorumPercentage",
              "type": "uint256"
            }
          ],
          "name": "setQuorumPercentage",
          "outputs": [],
          "stateMutability": "nonpayable",
          "type": "function"
        },
        {
          "inputs": [],
          "name": "stakingContract",
          "outputs": [
            {
              "internalType": "contract Staking",
              "name": "",
              "type": "address"
            }
          ],
          "stateMutability": "view",
          "type": "function"
        },
        {
          "inputs": [
            {
              "internalType": "uint256",
              "name": "proposalId",
              "type": "uint256"
            }
          ],
          "name": "state",
          "outputs": [
            {
              "internalType": "enum Governance.ProposalState",
              "name": "",
              "type": "uint8"
            }
          ],
          "stateMutability": "view",
          "type": "function"
        },
        {
          "inputs": [
            {
              "internalType": "address",
              "name": "newOwner",
              "type": "address"
            }
          ],
          "name": "transferOwnership",
          "outputs": [],
          "stateMutability": "nonpayable",
          "type": "function"
        },
        {
          "inputs": [],
          "name": "votingDelay",
          "outputs": [
            {
              "internalType": "uint256",
              "name": "",
              "type": "uint256"
            }
          ],
          "stateMutability": "view",
          "type": "function"
        },
        {
          "inputs": [],
          "name": "votingPeriod",
          "outputs": [
            {
              "internalType": "uint256",
              "name": "",
              "type": "uint256"
            }
          ],
          "stateMutability": "view",
          "type": "function"
        }
      ],
      "evm": {
        "bytecode": {
          "linkReferences": {},
          "object": "60806040523480156200001157600080fd5b50604051620033d2380380620033d2833981810160405281019062000037919062000272565b33600073ffffffffffffffffffffffffffffffffffffffff168173ffffffffffffffffffffffffffffffffffffffff1603620000ad5760006040517f1e4fbdf7000000000000000000000000000000000000000000000000000000008152600401620000a49190620002b5565b60405180910390fd5b620000be816200013060201b60201c565b5080600160006101000a81548173ffffffffffffffffffffffffffffffffffffffff021916908373ffffffffffffffffffffffffffffffffffffffff160217905550603c600281905550610e1060038190555068056bc75e2d63100000600481905550602860058190555050620002d2565b60008060009054906101000a900473ffffffffffffffffffffffffffffffffffffffff169050816000806101000a81548173ffffffffffffffffffffffffffffffffffffffff021916908373ffffffffffffffffffffffffffffffffffffffff1602179055508173ffffffffffffffffffffffffffffffffffffffff168173ffffffffffffffffffffffffffffffffffffffff167f8be0079c531659141344cd1fd0a4f28419497f9722a3daafe3b4186f6b6457e060405160405180910390a35050565b600080fd5b600073ffffffffffffffffffffffffffffffffffffffff82169050919050565b60006200022682620001f9565b9050919050565b60006200023a8262000219565b9050919050565b6200024c816200022d565b81146200025857600080fd5b50565b6000815190506200026c8162000241565b92915050565b6000602082840312156200028b576200028a620001f4565b5b60006200029b848285016200025b565b91505092915050565b620002af8162000219565b82525050565b6000602082019050620002cc6000830184620002a4565b92915050565b6130f080620002e26000396000f3fe608060405234801561001057600080fd5b506004361061012c5760003560e01c8063715018a6116100ad578063bb4d443611610071578063bb4d44361461034d578063c59057e41461037d578063e0a8f6f5146103ad578063ee99205c146103c9578063f2fde38b146103e75761012c565b8063715018a6146102a75780637d5e81e2146102b15780638da5cb5b146102e15780639079991f146102ff578063b58131b01461032f5761012c565b80633e4f49e6116100f45780633e4f49e6146101dd5780634fa76ec91461020d578063567813881461022b578063587cde1e1461025b5780635c19a95c1461028b5761012c565b8063013cf08b1461013157806302a251a3146101695780630d61b5191461018757806332f6a1dc146101a35780633932abb1146101bf575b600080fd5b61014b60048036038101906101469190611811565b610403565b60405161016099989796959493929190611939565b60405180910390f35b610171610513565b60405161017e91906119cd565b60405180910390f35b6101a1600480360381019061019c9190611811565b610519565b005b6101bd60048036038101906101b89190611811565b61073b565b005b6101c76107de565b6040516101d491906119cd565b60405180910390f35b6101f760048036038101906101f29190611811565b6107e4565b6040516102049190611a5f565b60405180910390f35b6102156108e7565b60405161022291906119cd565b60405180910390f35b61024560048036038101906102409190611ab3565b6108ed565b60405161025291906119cd565b60405180910390f35b61027560048036038101906102709190611b1f565b610b8d565b6040516102829190611b4c565b60405180910390f35b6102a560048036038101906102a09190611b1f565b610bc0565b005b6102af610d17565b005b6102cb60048036038101906102c69190611fa9565b610d2b565b6040516102d891906119cd565b60405180910390f35b6102e9610f69565b6040516102f69190611b4c565b60405180910390f35b61031960048036038101906103149190611811565b610f92565b6040516103269190612080565b60405180910390f35b61033761108d565b60405161034491906119cd565b60405180910390f35b61036760048036038101906103629190611b1f565b611093565b60405161037491906119cd565b60405180910390f35b610397600480360381019061039291906120d1565b611275565b6040516103a491906119cd565b60405180910390f35b6103c760048036038101906103c29190611811565b6112b1565b005b6103d1611417565b6040516103de91906121eb565b60405180910390f35b61040160048036038101906103fc9190611b1f565b61143d565b005b60076020528060005260406000206000915090508060000160009054906101000a900473ffffffffffffffffffffffffffffffffffffffff16908060010154908060020154908060030160009054906101000a900460ff16908060030160019054906101000a900460ff169080600401549080600501549080600601549080600b01805461049090612235565b80601f01602080910402602001604051908101604052809291908181526020018280546104bc90612235565b80156105095780601f106104de57610100808354040283529160200191610509565b820191906000526020600020905b8154815290600101906020018083116104ec57829003601f168201915b5050505050905089565b60035481565b6004600681111561052d5761052c6119e8565b5b610536826107e4565b6006811115610548576105476119e8565b5b14610588576040517f08c379a000000000000000000000000000000000000000000000000000000000815260040161057f906122b2565b60405180910390fd5b600060076000838152602001908152602001600020905060018160030160006101000a81548160ff02191690831515021790555060005b81600801805490508110156107095760008260080182815481106105e6576105e56122d2565b5b9060005260206000200160009054906101000a900473ffffffffffffffffffffffffffffffffffffffff1673ffffffffffffffffffffffffffffffffffffffff1683600901838154811061063d5761063c6122d2565b5b906000526020600020015484600a01848154811061065e5761065d6122d2565b5b9060005260206000200160405161067591906123a4565b60006040518083038185875af1925050503d80600081146106b2576040519150601f19603f3d011682016040523d82523d6000602084013e6106b7565b606091505b50509050806106fb576040517f08c379a00000000000000000000000000000000000000000000000000000000081526004016106f290612407565b60405180910390fd5b5080806001019150506105bf565b50817f712ae1383f79ac853f8d882153778e0260ef8f03b504e2866e0593e04d2b291f60405160405180910390a25050565b6107436114c3565b600081118015610754575060648111155b610793576040517f08c379a000000000000000000000000000000000000000000000000000000000815260040161078a90612473565b60405180910390fd5b60006005549050816005819055507f2b44b0d83d450296bc7999f89ed505462e7b7d82b219154dade72cbc54137b4681836040516107d2929190612493565b60405180910390a15050565b60025481565b6000806007600084815260200190815260200160002090506000816001015411610843576040517f08c379a000000000000000000000000000000000000000000000000000000000815260040161083a90612508565b60405180910390fd5b8060030160019054906101000a900460ff16156108645760029150506108e2565b806001015442101561087a5760009150506108e2565b8060020154421161088f5760019150506108e2565b806005015481600401541115806108ac57506108aa83610f92565b155b156108bb5760039150506108e2565b8060030160009054906101000a900460ff16156108dc5760069150506108e2565b60049150505b919050565b60055481565b600060016006811115610903576109026119e8565b5b61090c846107e4565b600681111561091e5761091d6119e8565b5b1461095e576040517f08c379a000000000000000000000000000000000000000000000000000000000815260040161095590612574565b60405180910390fd5b60028260ff1611156109a5576040517f08c379a000000000000000000000000000000000000000000000000000000000815260040161099c906125e0565b60405180910390fd5b60006007600085815260200190815260200160002090508060070160003373ffffffffffffffffffffffffffffffffffffffff1673ffffffffffffffffffffffffffffffffffffffff16815260200190815260200160002060009054906101000a900460ff1615610a4b576040517f08c379a0000000000000000000000000000000000000000000000000000000008152600401610a429061264c565b60405180910390fd5b6000610a5633611093565b905060008460ff1603610a835780826005016000828254610a77919061269b565b92505081905550610ad7565b60018460ff1603610aae5780826004016000828254610aa2919061269b565b92505081905550610ad6565b60028460ff1603610ad55780826006016000828254610acd919061269b565b925050819055505b5b5b60018260070160003373ffffffffffffffffffffffffffffffffffffffff1673ffffffffffffffffffffffffffffffffffffffff16815260200190815260200160002060006101000a81548160ff021916908315150217905550843373ffffffffffffffffffffffffffffffffffffffff167f2c9deb38f462962eadbd85a9d3a4120503ee091f1582eaaa10aa8c6797651d298684604051610b7a9291906126de565b60405180910390a3809250505092915050565b60066020528060005260406000206000915054906101000a900473ffffffffffffffffffffffffffffffffffffffff1681565b6000600660003373ffffffffffffffffffffffffffffffffffffffff1673ffffffffffffffffffffffffffffffffffffffff16815260200190815260200160002060009054906101000a900473ffffffffffffffffffffffffffffffffffffffff16905081600660003373ffffffffffffffffffffffffffffffffffffffff1673ffffffffffffffffffffffffffffffffffffffff16815260200190815260200160002060006101000a81548173ffffffffffffffffffffffffffffffffffffffff021916908373ffffffffffffffffffffffffffffffffffffffff1602179055508173ffffffffffffffffffffffffffffffffffffffff168173ffffffffffffffffffffffffffffffffffffffff163373ffffffffffffffffffffffffffffffffffffffff167f3134e8a2e6d97e929a7e54011ea5485d7d196dd5f0ba4d4ef95803e8e3fc257f60405160405180910390a45050565b610d1f6114c3565b610d29600061154a565b565b6000600454610d3933611093565b1015610d7a576040517f08c379a0000000000000000000000000000000000000000000000000000000008152600401610d7190612753565b60405180910390fd5b83518551148015610d8c575082518551145b610dcb576040517f08c379a0000000000000000000000000000000000000000000000000000000008152600401610dc2906127bf565b60405180910390fd5b6000610de08686868680519060200120611275565b905060006007600083815260200190815260200160002090506000816001015414610e40576040517f08c379a0000000000000000000000000000000000000000000000000000000008152600401610e379061282b565b60405180910390fd5b600060025442610e50919061269b565b9050600060035482610e62919061269b565b9050338360000160006101000a81548173ffffffffffffffffffffffffffffffffffffffff021916908373ffffffffffffffffffffffffffffffffffffffff16021790555081836001018190555080836002018190555088836008019080519060200190610ed1929190611616565b5087836009019080519060200190610eea9291906116a0565b508683600a019080519060200190610f039291906116ed565b508583600b019081610f1591906129ed565b50837f95f03e437e6d5037418f12bef80fc7e0a5f27754c078a1d5d3f62d39bac44e50338b8b8b87878d604051610f529796959493929190612d52565b60405180910390a283945050505050949350505050565b60008060009054906101000a900473ffffffffffffffffffffffffffffffffffffffff16905090565b6000806007600084815260200190815260200160002090506000816006015482600501548360040154610fc5919061269b565b610fcf919061269b565b90506000600160009054906101000a900473ffffffffffffffffffffffffffffffffffffffff1673ffffffffffffffffffffffffffffffffffffffff1663817b1cd26040518163ffffffff1660e01b8152600401602060405180830381865afa158015611040573d6000803e3d6000fd5b505050506040513d601f19601f820116820180604052508101906110649190612df2565b9050600554816110749190612e1f565b6064836110819190612e1f565b10159350505050919050565b60045481565b600080600660008473ffffffffffffffffffffffffffffffffffffffff1673ffffffffffffffffffffffffffffffffffffffff16815260200190815260200160002060009054906101000a900473ffffffffffffffffffffffffffffffffffffffff169050600073ffffffffffffffffffffffffffffffffffffffff168173ffffffffffffffffffffffffffffffffffffffff16036111d057600160009054906101000a900473ffffffffffffffffffffffffffffffffffffffff1673ffffffffffffffffffffffffffffffffffffffff166317d1720d846040518263ffffffff1660e01b81526004016111879190611b4c565b602060405180830381865afa1580156111a4573d6000803e3d6000fd5b505050506040513d601f19601f820116820180604052508101906111c89190612df2565b915050611270565b600160009054906101000a900473ffffffffffffffffffffffffffffffffffffffff1673ffffffffffffffffffffffffffffffffffffffff166317d1720d826040518263ffffffff1660e01b815260040161122b9190611b4c565b602060405180830381865afa158015611248573d6000803e3d6000fd5b505050506040513d601f19601f8201168201806040525081019061126c9190612df2565b9150505b919050565b60008484848460405160200161128e9493929190612e70565b6040516020818303038152906040528051906020012060001c9050949350505050565b600060068111156112c5576112c46119e8565b5b6112ce826107e4565b60068111156112e0576112df6119e8565b5b14611320576040517f08c379a000000000000000000000000000000000000000000000000000000000815260040161131790612f16565b60405180910390fd5b60006007600083815260200190815260200160002090508060000160009054906101000a900473ffffffffffffffffffffffffffffffffffffffff1673ffffffffffffffffffffffffffffffffffffffff163373ffffffffffffffffffffffffffffffffffffffff16146113c9576040517f08c379a00000000000000000000000000000000000000000000000000000000081526004016113c090612f82565b60405180910390fd5b60018160030160016101000a81548160ff021916908315150217905550817f789cf55be980739dad1d0699b93b58e806b51c9d96619bfa8fe0a28abaa7b30c60405160405180910390a25050565b600160009054906101000a900473ffffffffffffffffffffffffffffffffffffffff1681565b6114456114c3565b600073ffffffffffffffffffffffffffffffffffffffff168173ffffffffffffffffffffffffffffffffffffffff16036114b75760006040517f1e4fbdf70000000000000000000000000000000000000000000000000000000081526004016114ae9190611b4c565b60405180910390fd5b6114c08161154a565b50565b6114cb61160e565b73ffffffffffffffffffffffffffffffffffffffff166114e9610f69565b73ffffffffffffffffffffffffffffffffffffffff16146115485761150c61160e565b6040517f118cdaa700000000000000000000000000000000000000000000000000000000815260040161153f9190611b4c565b60405180910390fd5b565b60008060009054906101000a900473ffffffffffffffffffffffffffffffffffffffff169050816000806101000a81548173ffffffffffffffffffffffffffffffffffffffff021916908373ffffffffffffffffffffffffffffffffffffffff1602179055508173ffffffffffffffffffffffffffffffffffffffff168173ffffffffffffffffffffffffffffffffffffffff167f8be0079c531659141344cd1fd0a4f28419497f9722a3daafe3b4186f6b6457e060405160405180910390a35050565b600033905090565b82805482825590600052602060002090810192821561168f579160200282015b8281111561168e5782518260006101000a81548173ffffffffffffffffffffffffffffffffffffffff021916908373ffffffffffffffffffffffffffffffffffffffff16021790555091602001919060010190611636565b5b50905061169c9190611746565b5090565b8280548282559060005260206000209081019282156116dc579160200282015b828111156116db5782518255916020019190600101906116c0565b5b5090506116e99190611746565b5090565b828054828255906000526020600020908101928215611735579160200282015b828111156117345782518290816117249190612fe8565b509160200191906001019061170d565b5b5090506117429190611763565b5090565b5b8082111561175f576000816000905550600101611747565b5090565b5b80821115611783576000818161177a9190611787565b50600101611764565b5090565b50805461179390612235565b6000825580601f106117a557506117c4565b601f0160209004906000526020600020908101906117c39190611746565b5b50565b6000604051905090565b600080fd5b600080fd5b6000819050919050565b6117ee816117db565b81146117f957600080fd5b50565b60008135905061180b816117e5565b92915050565b600060208284031215611827576118266117d1565b5b6000611835848285016117fc565b91505092915050565b600073ffffffffffffffffffffffffffffffffffffffff82169050919050565b60006118698261183e565b9050919050565b6118798161185e565b82525050565b611888816117db565b82525050565b60008115159050919050565b6118a38161188e565b82525050565b600081519050919050565b600082825260208201905092915050565b60005b838110156118e35780820151818401526020810190506118c8565b60008484015250505050565b6000601f19601f8301169050919050565b600061190b826118a9565b61191581856118b4565b93506119258185602086016118c5565b61192e816118ef565b840191505092915050565b60006101208201905061194f600083018c611870565b61195c602083018b61187f565b611969604083018a61187f565b611976606083018961189a565b611983608083018861189a565b61199060a083018761187f565b61199d60c083018661187f565b6119aa60e083018561187f565b8181036101008301526119bd8184611900565b90509a9950505050505050505050565b60006020820190506119e2600083018461187f565b92915050565b7f4e487b7100000000000000000000000000000000000000000000000000000000600052602160045260246000fd5b60078110611a2857611a276119e8565b5b50565b6000819050611a3982611a17565b919050565b6000611a4982611a2b565b9050919050565b611a5981611a3e565b82525050565b6000602082019050611a746000830184611a50565b92915050565b600060ff82169050919050565b611a9081611a7a565b8114611a9b57600080fd5b50565b600081359050611aad81611a87565b92915050565b60008060408385031215611aca57611ac96117d1565b5b6000611ad8858286016117fc565b9250506020611ae985828601611a9e565b9150509250929050565b611afc8161185e565b8114611b0757600080fd5b50565b600081359050611b1981611af3565b92915050565b600060208284031215611b3557611b346117d1565b5b6000611b4384828501611b0a565b91505092915050565b6000602082019050611b616000830184611870565b92915050565b600080fd5b7f4e487b7100000000000000000000000000000000000000000000000000000000600052604160045260246000fd5b611ba4826118ef565b810181811067ffffffffffffffff82111715611bc357611bc2611b6c565b5b80604052505050565b6000611bd66117c7565b9050611be28282611b9b565b919050565b600067ffffffffffffffff821115611c0257611c01611b6c565b5b602082029050602081019050919050565b600080fd5b6000611c2b611c2684611be7565b611bcc565b90508083825260208201905060208402830185811115611c4e57611c4d611c13565b5b835b81811015611c775780611c638882611b0a565b845260208401935050602081019050611c50565b5050509392505050565b600082601f830112611c9657611c95611b67565b5b8135611ca6848260208601611c18565b91505092915050565b600067ffffffffffffffff821115611cca57611cc9611b6c565b5b602082029050602081019050919050565b6000611cee611ce984611caf565b611bcc565b90508083825260208201905060208402830185811115611d1157611d10611c13565b5b835b81811015611d3a5780611d2688826117fc565b845260208401935050602081019050611d13565b5050509392505050565b600082601f830112611d5957611d58611b67565b5b8135611d69848260208601611cdb565b91505092915050565b600067ffffffffffffffff821115611d8d57611d8c611b6c565b5b602082029050602081019050919050565b600080fd5b600067ffffffffffffffff821115611dbe57611dbd611b6c565b5b611dc7826118ef565b9050602081019050919050565b82818337600083830152505050565b6000611df6611df184611da3565b611bcc565b905082815260208101848484011115611e1257611e11611d9e565b5b611e1d848285611dd4565b509392505050565b600082601f830112611e3a57611e39611b67565b5b8135611e4a848260208601611de3565b91505092915050565b6000611e66611e6184611d72565b611bcc565b90508083825260208201905060208402830185811115611e8957611e88611c13565b5b835b81811015611ed057803567ffffffffffffffff811115611eae57611ead611b67565b5b808601611ebb8982611e25565b85526020850194505050602081019050611e8b565b5050509392505050565b600082601f830112611eef57611eee611b67565b5b8135611eff848260208601611e53565b91505092915050565b600067ffffffffffffffff821115611f2357611f22611b6c565b5b611f2c826118ef565b9050602081019050919050565b6000611f4c611f4784611f08565b611bcc565b905082815260208101848484011115611f6857611f67611d9e565b5b611f73848285611dd4565b509392505050565b600082601f830112611f9057611f8f611b67565b5b8135611fa0848260208601611f39565b91505092915050565b60008060008060808587031215611fc357611fc26117d1565b5b600085013567ffffffffffffffff811115611fe157611fe06117d6565b5b611fed87828801611c81565b945050602085013567ffffffffffffffff81111561200e5761200d6117d6565b5b61201a87828801611d44565b935050604085013567ffffffffffffffff81111561203b5761203a6117d6565b5b61204787828801611eda565b925050606085013567ffffffffffffffff811115612068576120676117d6565b5b61207487828801611f7b565b91505092959194509250565b6000602082019050612095600083018461189a565b92915050565b6000819050919050565b6120ae8161209b565b81146120b957600080fd5b50565b6000813590506120cb816120a5565b92915050565b600080600080608085870312156120eb576120ea6117d1565b5b600085013567ffffffffffffffff811115612109576121086117d6565b5b61211587828801611c81565b945050602085013567ffffffffffffffff811115612136576121356117d6565b5b61214287828801611d44565b935050604085013567ffffffffffffffff811115612163576121626117d6565b5b61216f87828801611eda565b9250506060612180878288016120bc565b91505092959194509250565b6000819050919050565b60006121b16121ac6121a78461183e565b61218c565b61183e565b9050919050565b60006121c382612196565b9050919050565b60006121d5826121b8565b9050919050565b6121e5816121ca565b82525050565b600060208201905061220060008301846121dc565b92915050565b7f4e487b7100000000000000000000000000000000000000000000000000000000600052602260045260246000fd5b6000600282049050600182168061224d57607f821691505b6020821081036122605761225f612206565b5b50919050565b7f50726f706f73616c2063616e6e6f742062652065786563757465640000000000600082015250565b600061229c601b836118b4565b91506122a782612266565b602082019050919050565b600060208201905081810360008301526122cb8161228f565b9050919050565b7f4e487b7100000000000000000000000000000000000000000000000000000000600052603260045260246000fd5b600081905092915050565b60008190508160005260206000209050919050565b6000815461232e81612235565b6123388186612301565b9450600182166000811461235357600181146123685761239b565b60ff198316865281151582028601935061239b565b6123718561230c565b60005b8381101561239357815481890152600182019150602081019050612374565b838801955050505b50505092915050565b60006123b08284612321565b915081905092915050565b7f50726f706f73616c20657865637574696f6e206661696c656400000000000000600082015250565b60006123f16019836118b4565b91506123fc826123bb565b602082019050919050565b60006020820190508181036000830152612420816123e4565b9050919050565b7f496e76616c69642071756f72756d2070657263656e7461676500000000000000600082015250565b600061245d6019836118b4565b915061246882612427565b602082019050919050565b6000602082019050818103600083015261248c81612450565b9050919050565b60006040820190506124a8600083018561187f565b6124b5602083018461187f565b9392505050565b7f50726f706f73616c20646f6573206e6f74206578697374000000000000000000600082015250565b60006124f26017836118b4565b91506124fd826124bc565b602082019050919050565b60006020820190508181036000830152612521816124e5565b9050919050565b7f566f74696e67206973206e6f7420616374697665000000000000000000000000600082015250565b600061255e6014836118b4565b915061256982612528565b602082019050919050565b6000602082019050818103600083015261258d81612551565b9050919050565b7f496e76616c696420766f74652074797065000000000000000000000000000000600082015250565b60006125ca6011836118b4565b91506125d582612594565b602082019050919050565b600060208201905081810360008301526125f9816125bd565b9050919050565b7f416c726561647920766f74656400000000000000000000000000000000000000600082015250565b6000612636600d836118b4565b915061264182612600565b602082019050919050565b6000602082019050818103600083015261266581612629565b9050919050565b7f4e487b7100000000000000000000000000000000000000000000000000000000600052601160045260246000fd5b60006126a6826117db565b91506126b1836117db565b92508282019050808211156126c9576126c861266c565b5b92915050565b6126d881611a7a565b82525050565b60006040820190506126f360008301856126cf565b612700602083018461187f565b9392505050565b7f50726f706f73657220766f7465732062656c6f77207468726573686f6c640000600082015250565b600061273d601e836118b4565b915061274882612707565b602082019050919050565b6000602082019050818103600083015261276c81612730565b9050919050565b7f496e76616c69642070726f706f73616c206c656e677468000000000000000000600082015250565b60006127a96017836118b4565b91506127b482612773565b602082019050919050565b600060208201905081810360008301526127d88161279c565b9050919050565b7f50726f706f73616c20616c726561647920657869737473000000000000000000600082015250565b60006128156017836118b4565b9150612820826127df565b602082019050919050565b6000602082019050818103600083015261284481612808565b9050919050565b60008190508160005260206000209050919050565b60006020601f8301049050919050565b600082821b905092915050565b6000600883026128ad7fffffffffffffffffffffffffffffffffffffffffffffffffffffffffffffffff82612870565b6128b78683612870565b95508019841693508086168417925050509392505050565b60006128ea6128e56128e0846117db565b61218c565b6117db565b9050919050565b6000819050919050565b612904836128cf565b612918612910826128f1565b84845461287d565b825550505050565b600090565b61292d612920565b6129388184846128fb565b505050565b5b8181101561295c57612951600082612925565b60018101905061293e565b5050565b601f8211156129a1576129728161284b565b61297b84612860565b8101602085101561298a578190505b61299e61299685612860565b83018261293d565b50505b505050565b600082821c905092915050565b60006129c4600019846008026129a6565b1980831691505092915050565b60006129dd83836129b3565b9150826002028217905092915050565b6129f6826118a9565b67ffffffffffffffff811115612a0f57612a0e611b6c565b5b612a198254612235565b612a24828285612960565b600060209050601f831160018114612a575760008415612a45578287015190505b612a4f85826129d1565b865550612ab7565b601f198416612a658661284b565b60005b82811015612a8d57848901518255600182019150602085019450602081019050612a68565b86831015612aaa5784890151612aa6601f8916826129b3565b8355505b6001600288020188555050505b505050505050565b600081519050919050565b600082825260208201905092915050565b6000819050602082019050919050565b612af48161185e565b82525050565b6000612b068383612aeb565b60208301905092915050565b6000602082019050919050565b6000612b2a82612abf565b612b348185612aca565b9350612b3f83612adb565b8060005b83811015612b70578151612b578882612afa565b9750612b6283612b12565b925050600181019050612b43565b5085935050505092915050565b600081519050919050565b600082825260208201905092915050565b6000819050602082019050919050565b612bb2816117db565b82525050565b6000612bc48383612ba9565b60208301905092915050565b6000602082019050919050565b6000612be882612b7d565b612bf28185612b88565b9350612bfd83612b99565b8060005b83811015612c2e578151612c158882612bb8565b9750612c2083612bd0565b925050600181019050612c01565b5085935050505092915050565b600081519050919050565b600082825260208201905092915050565b6000819050602082019050919050565b600081519050919050565b600082825260208201905092915050565b6000612c8e82612c67565b612c988185612c72565b9350612ca88185602086016118c5565b612cb1816118ef565b840191505092915050565b6000612cc88383612c83565b905092915050565b6000602082019050919050565b6000612ce882612c3b565b612cf28185612c46565b935083602082028501612d0485612c57565b8060005b85811015612d405784840389528151612d218582612cbc565b9450612d2c83612cd0565b925060208a01995050600181019050612d08565b50829750879550505050505092915050565b600060e082019050612d67600083018a611870565b8181036020830152612d798189612b1f565b90508181036040830152612d8d8188612bdd565b90508181036060830152612da18187612cdd565b9050612db0608083018661187f565b612dbd60a083018561187f565b81810360c0830152612dcf8184611900565b905098975050505050505050565b600081519050612dec816117e5565b92915050565b600060208284031215612e0857612e076117d1565b5b6000612e1684828501612ddd565b91505092915050565b6000612e2a826117db565b9150612e35836117db565b9250828202612e43816117db565b91508282048414831517612e5a57612e5961266c565b5b5092915050565b612e6a8161209b565b82525050565b60006080820190508181036000830152612e8a8187612b1f565b90508181036020830152612e9e8186612bdd565b90508181036040830152612eb28185612cdd565b9050612ec16060830184612e61565b95945050505050565b7f43616e6e6f742063616e63656c2070726f706f73616c00000000000000000000600082015250565b6000612f006016836118b4565b9150612f0b82612eca565b602082019050919050565b60006020820190508181036000830152612f2f81612ef3565b9050919050565b7f4f6e6c792070726f706f7365722063616e2063616e63656c0000000000000000600082015250565b6000612f6c6018836118b4565b9150612f7782612f36565b602082019050919050565b60006020820190508181036000830152612f9b81612f5f565b9050919050565b601f821115612fe357612fb48161230c565b612fbd84612860565b81016020851015612fcc578190505b612fe0612fd885612860565b83018261293d565b50505b505050565b612ff182612c67565b67ffffffffffffffff81111561300a57613009611b6c565b5b6130148254612235565b61301f828285612fa2565b600060209050601f8311600181146130525760008415613040578287015190505b61304a85826129d1565b8655506130b2565b601f1984166130608661230c565b60005b8281101561308857848901518255600182019150602085019450602081019050613063565b868310156130a557848901516130a1601f8916826129b3565b8355505b6001600288020188555050505b50505050505056fea2646970667358221220a5698d3f4ac67f6a5737a04753312c8f531edaf0d4349be42760bf6036af931164736f6c63430008180033",
          "opcodes": "PUSH1 0x80 PUSH1 0x40 MSTORE CALLVALUE DUP1 ISZERO PUSH3 0x11 JUMPI PUSH1 0x0 DUP1 REVERT JUMPDEST POP PUSH1 0x40 MLOAD PUSH3 0x33D2 CODESIZE SUB DUP1 PUSH3 0x33D2 DUP4 CODECOPY DUP2 DUP2 ADD PUSH1 0x40 MSTORE DUP2 ADD SWAP1 PUSH3 0x37 SWAP2 SWAP1 PUSH3 0x272 JUMP JUMPDEST CALLER PUSH1 0x0 PUSH20 0xFFFFFFFFFFFFFFFFFFFFFFFFFFFFFFFFFFFFFFFF AND DUP2 PUSH20 0xFFFFFFFFFFFFFFFFFFFFFFFFFFFFFFFFFFFFFFFF AND SUB PUSH3 0xAD JUMPI PUSH1 0x0 PUSH1 0x40 MLOAD PUSH32 0x1E4FBDF700000000000000000000000000000000000000000000000000000000 DUP2 MSTORE PUSH1 0x4 ADD PUSH3 0xA4 SWAP2 SWAP1 PUSH3 0x2B5 JUMP JUMPDEST PUSH1 0x40 MLOAD DUP1 SWAP2 SUB SWAP1 REVERT JUMPDEST PUSH3 0xBE DUP2 PUSH3 0x130 PUSH1 0x20 SHL PUSH1 0x20 SHR JUMP JUMPDEST POP DUP1 PUSH1 0x1 PUSH1 0x0 PUSH2 0x100 EXP DUP2 SLOAD DUP2 PUSH20 0xFFFFFFFFFFFFFFFFFFFFFFFFFFFFFFFFFFFFFFFF MUL NOT AND SWAP1 DUP4 PUSH20 0xFFFFFFFFFFFFFFFFFFFFFFFFFFFFFFFFFFFFFFFF AND MUL OR SWAP1 SSTORE POP PUSH1 0x3C PUSH1 0x2 DUP2 SWAP1 SSTORE POP PUSH2 0xE10 PUSH1 0x3 DUP2 SWAP1 SSTORE POP PUSH9 0x56BC75E2D63100000 PUSH1 0x4 DUP2 SWAP1 SSTORE POP PUSH1 0x28 PUSH1 0x5 DUP2 SWAP1 SSTORE POP POP PUSH3 0x2D2 JUMP JUMPDEST PUSH1 0x0 DUP1 PUSH1 0x0 SWAP1 SLOAD SWAP1 PUSH2 0x100 EXP SWAP1 DIV PUSH20 0xFFFFFFFFFFFFFFFFFFFFFFFFFFFFFFFFFFFFFFFF AND SWAP1 POP DUP2 PUSH1 0x0 DUP1 PUSH2 0x100 EXP DUP2 SLOAD DUP2 PUSH20 0xFFFFFFFFFFFFFFFFFFFFFFFFFFFFFFFFFFFFFFFF MUL NOT AND SWAP1 DUP4 PUSH20 0xFFFFFFFFFFFFFFFFFFFFFFFFFFFFFFFFFFFFFFFF AND MUL OR SWAP1 SSTORE POP DUP2 PUSH20 0xFFFFFFFFFFFFFFFFFFFFFFFFFFFFFFFFFFFFFFFF AND DUP2 PUSH20 0xFFFFFFFFFFFFFFFFFFFFFFFFFFFFFFFFFFFFFFFF AND PUSH32 0x8BE0079C531659141344CD1FD0A4F28419497F9722A3DAAFE3B4186F6B6457E0 PUSH1 0x40 MLOAD PUSH1 0x40 MLOAD DUP1 SWAP2 SUB SWAP1 LOG3 POP POP JUMP JUMPDEST PUSH1 0x0 DUP1 REVERT JUMPDEST PUSH1 0x0 PUSH20 0xFFFFFFFFFFFFFFFFFFFFFFFFFFFFFFFFFFFFFFFF DUP3 AND SWAP1 POP SWAP2 SWAP1 POP JUMP JUMPDEST PUSH1 0x0 PUSH3 0x226 DUP3 PUSH3 0x1F9 JUMP JUMPDEST SWAP1 POP SWAP2 SWAP1 POP JUMP JUMPDEST PUSH1 0x0 PUSH3 0x23A DUP3 PUSH3 0x219 JUMP JUMPDEST SWAP1 POP SWAP2 SWAP1 POP JUMP JUMPDEST PUSH3 0x24C DUP2 PUSH3 0x22D JUMP JUMPDEST DUP2 EQ PUSH3 0x258 JUMPI PUSH1 0x0 DUP1 REVERT JUMPDEST POP JUMP JUMPDEST PUSH1 0x0 DUP2 MLOAD SWAP1 POP PUSH3 0x26C DUP2 PUSH3 0x241 JUMP JUMPDEST SWAP3 SWAP2 POP POP JUMP JUMPDEST PUSH1 0x0 PUSH1 0x20 DUP3 DUP5 SUB SLT ISZERO PUSH3 0x28B JUMPI PUSH3 0x28A PUSH3 0x1F4 JUMP JUMPDEST JUMPDEST PUSH1 0x0 PUSH3 0x29B DUP5 DUP3 DUP6 ADD PUSH3 0x25B JUMP JUMPDEST SWAP2 POP POP SWAP3 SWAP2 POP POP JUMP JUMPDEST PUSH3 0x2AF DUP2 PUSH3 0x219 JUMP JUMPDEST DUP3 MSTORE POP POP JUMP JUMPDEST PUSH1 0x0 PUSH1 0x20 DUP3 ADD SWAP1 POP PUSH3 0x2CC PUSH1 0x0 DUP4 ADD DUP5 PUSH3 0x2A4 JUMP JUMPDEST SWAP3 SWAP2 POP POP JUMP JUMPDEST PUSH2 0x30F0 DUP1 PUSH3 0x2E2 PUSH1 0x0 CODECOPY PUSH1 0x0 RETURN INVALID PUSH1 0x80 PUSH1 0x40 MSTORE CALLVALUE DUP1 ISZERO PUSH2 0x10 JUMPI PUSH1 0x0 DUP1 REVERT JUMPDEST POP PUSH1 0x4 CALLDATASIZE LT PUSH2 0x12C JUMPI PUSH1 0x0 CALLDATALOAD PUSH1 0xE0 SHR DUP1 PUSH4 0x715018A6 GT PUSH2 0xAD JUMPI DUP1 PUSH4 0xBB4D4436 GT PUSH2 0x71 JUMPI DUP1 PUSH4 0xBB4D4436 EQ PUSH2 0x34D JUMPI DUP1 PUSH4 0xC59057E4 EQ PUSH2 0x37D JUMPI DUP1 PUSH4 0xE0A8F6F5 EQ PUSH2 0x3AD JUMPI DUP1 PUSH4 0xEE99205C EQ PUSH2 0x3C9 JUMPI DUP1 PUSH4 0xF2FDE38B EQ PUSH2 0x3E7 JUMPI PUSH2 0x12C JUMP JUMPDEST DUP1 PUSH4 0x715018A6 EQ PUSH2 0x2A7 JUMPI DUP1 PUSH4 0x7D5E81E2 EQ PUSH2 0x2B1 JUMPI DUP1 PUSH4 0x8DA5CB5B EQ PUSH2 0x2E1 JUMPI DUP1 PUSH4 0x9079991F EQ PUSH2 0x2FF JUMPI DUP1 PUSH4 0xB58131B0 EQ PUSH2 0x32F JUMPI PUSH2 0x12C JUMP JUMPDEST DUP1 PUSH4 0x3E4F49E6 GT PUSH2 0xF4 JUMPI DUP1 PUSH4 0x3E4F49E6 EQ PUSH2 0x1DD JUMPI DUP1 PUSH4 0x4FA76EC9 EQ PUSH2 0x20D JUMPI DUP1 PUSH4 0x56781388 EQ PUSH2 0x22B JUMPI DUP1 PUSH4 0x587CDE1E EQ PUSH2 0x25B JUMPI DUP1 PUSH4 0x5C19A95C EQ PUSH2 0x28B JUMPI PUSH2 0x12C JUMP JUMPDEST DUP1 PUSH4 0x13CF08B EQ PUSH2 0x131 JUMPI DUP1 PUSH4 0x2A251A3 EQ PUSH2 0x169 JUMPI DUP1 PUSH4 0xD61B519 EQ PUSH2 0x187 JUMPI DUP1 PUSH4 0x32F6A1DC EQ PUSH2 0x1A3 JUMPI DUP1 PUSH4 0x3932ABB1 EQ PUSH2 0x1BF JUMPI JUMPDEST PUSH1 0x0 DUP1 REVERT JUMPDEST PUSH2 0x14B PUSH1 0x4 DUP1 CALLDATASIZE SUB DUP2 ADD SWAP1 PUSH2 0x146 SWAP2 SWAP1 PUSH2 0x1811 JUMP JUMPDEST PUSH2 0x403 JUMP JUMPDEST PUSH1 0x40 MLOAD PUSH2 0x160 SWAP10 SWAP9 SWAP8 SWAP7 SWAP6 SWAP5 SWAP4 SWAP3 SWAP2 SWAP1 PUSH2 0x1939 JUMP JUMPDEST PUSH1 0x40 MLOAD DUP1 SWAP2 SUB SWAP1 RETURN JUMPDEST PUSH2 0x171 PUSH2 0x513 JUMP JUMPDEST PUSH1 0x40 MLOAD PUSH2 0x17E SWAP2 SWAP1 PUSH2 0x19CD JUMP JUMPDEST PUSH1 0x40 MLOAD DUP1 SWAP2 SUB SWAP1 RETURN JUMPDEST PUSH2 0x1A1 PUSH1 0x4 DUP1 CALLDATASIZE SUB DUP2 ADD SWAP1 PUSH2 0x19C SWAP2 SWAP1 PUSH2 0x1811 JUMP JUMPDEST PUSH2 0x519 JUMP JUMPDEST STOP JUMPDEST PUSH2 0x1BD PUSH1 0x4 DUP1 CALLDATASIZE SUB DUP2 ADD SWAP1 PUSH2 0x1B8 SWAP2 SWAP1 PUSH2 0x1811 JUMP JUMPDEST PUSH2 0x73B JUMP JUMPDEST STOP JUMPDEST PUSH2 0x1C7 PUSH2 0x7DE JUMP JUMPDEST PUSH1 0x40 MLOAD PUSH2 0x1D4 SWAP2 SWAP1 PUSH2 0x19CD JUMP JUMPDEST PUSH1 0x40 MLOAD DUP1 SWAP2 SUB SWAP1 RETURN JUMPDEST PUSH2 0x1F7 PUSH1 0x4 DUP1 CALLDATASIZE SUB DUP2 ADD SWAP1 PUSH2 0x1F2 SWAP2 SWAP1 PUSH2 0x1811 JUMP JUMPDEST PUSH2 0x7E4 JUMP JUMPDEST PUSH1 0x40 MLOAD PUSH2 0x204 SWAP2 SWAP1 PUSH2 0x1A5F JUMP JUMPDEST PUSH1 0x40 MLOAD DUP1 SWAP2 SUB SWAP1 RETURN JUMPDEST PUSH2 0x215 PUSH2 0x8E7 JUMP JUMPDEST PUSH1 0x40 MLOAD PUSH2 0x222 SWAP2 SWAP1 PUSH2 0x19CD JUMP JUMPDEST PUSH1 0x40 MLOAD DUP1 SWAP2 SUB SWAP1 RETURN JUMPDEST PUSH2 0x245 PUSH1 0x4 DUP1 CALLDATASIZE SUB DUP2 ADD SWAP1 PUSH2 0x240 SWAP2 SWAP1 PUSH2 0x1AB3 JUMP JUMPDEST PUSH2 0x8ED JUMP JUMPDEST PUSH1 0x40 MLOAD PUSH2 0x252 SWAP2 SWAP1 PUSH2 0x19CD JUMP JUMPDEST PUSH1 0x40 MLOAD DUP1 SWAP2 SUB SWAP1 RETURN JUMPDEST PUSH2 0x275 PUSH1 0x4 DUP1 CALLDATASIZE SUB DUP2 ADD SWAP1 PUSH2 0x270 SWAP2 SWAP1 PUSH2 0x1B1F JUMP JUMPDEST PUSH2 0xB8D JUMP JUMPDEST PUSH1 0x40 MLOAD PUSH2 0x282 SWAP2 SWAP1 PUSH2 0x1B4C JUMP JUMPDEST PUSH1 0x40 MLOAD DUP1 SWAP2 SUB SWAP1 RETURN JUMPDEST PUSH2 0x2A5 PUSH1 0x4 DUP1 CALLDATASIZE SUB DUP2 ADD SWAP1 PUSH2 0x2A0 SWAP2 SWAP1 PUSH2 0x1B1F JUMP JUMPDEST PUSH2 0xBC0 JUMP JUMPDEST STOP JUMPDEST PUSH2 0x2AF PUSH2 0xD17 JUMP JUMPDEST STOP JUMPDEST PUSH2 0x2CB PUSH1 0x4 DUP1 CALLDATASIZE SUB DUP2 ADD SWAP1 PUSH2 0x2C6 SWAP2 SWAP1 PUSH2 0x1FA9 JUMP JUMPDEST PUSH2 0xD2B JUMP JUMPDEST PUSH1 0x40 MLOAD PUSH2 0x2D8 SWAP2 SWAP1 PUSH2 0x19CD JUMP JUMPDEST PUSH1 0x40 MLOAD DUP1 SWAP2 SUB SWAP1 RETURN JUMPDEST PUSH2 0x2E9 PUSH2 0xF69 JUMP JUMPDEST PUSH1 0x40 MLOAD PUSH2 0x2F6 SWAP2 SWAP1 PUSH2 0x1B4C JUMP JUMPDEST PUSH1 0x40 MLOAD DUP1 SWAP2 SUB SWAP1 RETURN JUMPDEST PUSH2 0x319 PUSH1 0x4 DUP1 CALLDATASIZE SUB DUP2 ADD SWAP1 PUSH2 0x314 SWAP2 SWAP1 PUSH2 0x1811 JUMP JUMPDEST PUSH2 0xF92 JUMP JUMPDEST PUSH1 0x40 MLOAD PUSH2 0x326 SWAP2 SWAP1 PUSH2 0x2080 JUMP JUMPDEST PUSH1 0x40 MLOAD DUP1 SWAP2 SUB SWAP1 RETURN JUMPDEST PUSH2 0x337 PUSH2 0x108D JUMP JUMPDEST PUSH1 0x40 MLOAD PUSH2 0x344 SWAP2 SWAP1 PUSH2 0x19CD JUMP JUMPDEST PUSH1 0x40 MLOAD DUP1 SWAP2 SUB SWAP1 RETURN JUMPDEST PUSH2 0x367 PUSH1 0x4 DUP1 CALLDATASIZE SUB DUP2 ADD SWAP1 PUSH2 0x362 SWAP2 SWAP1 PUSH2 0x1B1F JUMP JUMPDEST PUSH2 0x1093 JUMP JUMPDEST PUSH1 0x40 MLOAD PUSH2 0x374 SWAP2 SWAP1 PUSH2 0x19CD JUMP JUMPDEST PUSH1 0x40 MLOAD DUP1 SWAP2 SUB SWAP1 RETURN JUMPDEST PUSH2 0x397 PUSH1 0x4 DUP1 CALLDATASIZE SUB DUP2 ADD SWAP1 PUSH2 0x392 SWAP2 SWAP1 PUSH2 0x20D1 JUMP JUMPDEST PUSH2 0x1275 JUMP JUMPDEST PUSH1 0x40 MLOAD PUSH2 0x3A4 SWAP2 SWAP1 PUSH2 0x19CD JUMP JUMPDEST PUSH1 0x40 MLOAD DUP1 SWAP2 SUB SWAP1 RETURN JUMPDEST PUSH2 0x3C7 PUSH1 0x4 DUP1 CALLDATASIZE SUB DUP2 ADD SWAP1 PUSH2 0x3C2 SWAP2 SWAP1 PUSH2 0x1811 JUMP JUMPDEST PUSH2 0x12B1 JUMP JUMPDEST STOP JUMPDEST PUSH2 0x3D1 PUSH2 0x1417 JUMP JUMPDEST PUSH1 0x40 MLOAD PUSH2 0x3DE SWAP2 SWAP1 PUSH2 0x21EB JUMP JUMPDEST PUSH1 0x40 MLOAD DUP1 SWAP2 SUB SWAP1 RETURN JUMPDEST PUSH2 0x401 PUSH1 0x4 DUP1 CALLDATASIZE SUB DUP2 ADD SWAP1 PUSH2 0x3FC SWAP2 SWAP1 PUSH2 0x1B1F JUMP JUMPDEST PUSH2 0x143D JUMP JUMPDEST STOP JUMPDEST PUSH1 0x7 PUSH1 0x20 MSTORE DUP1 PUSH1 0x0 MSTORE PUSH1 0x40 PUSH1 0x0 KECCAK256 PUSH1 0x0 SWAP2 POP SWAP1 POP DUP1 PUSH1 0x0 ADD PUSH1 0x0 SWAP1 SLOAD SWAP1 PUSH2 0x100 EXP SWAP1 DIV PUSH20 0xFFFFFFFFFFFFFFFFFFFFFFFFFFFFFFFFFFFFFFFF AND SWAP1 DUP1 PUSH1 0x1 ADD SLOAD SWAP1 DUP1 PUSH1 0x2 ADD SLOAD SWAP1 DUP1 PUSH1 0x3 ADD PUSH1 0x0 SWAP1 SLOAD SWAP1 PUSH2 0x100 EXP SWAP1 DIV PUSH1 0xFF AND SWAP1 DUP1 PUSH1 0x3 ADD PUSH1 0x1 SWAP1 SLOAD SWAP1 PUSH2 0x100 EXP SWAP1 DIV PUSH1 0xFF AND SWAP1 DUP1 PUSH1 0x4 ADD SLOAD SWAP1 DUP1 PUSH1 0x5 ADD SLOAD SWAP1 DUP1 PUSH1 0x6 ADD SLOAD SWAP1 DUP1 PUSH1 0xB ADD DUP1 SLOAD PUSH2 0x490 SWAP1 PUSH2 0x2235 JUMP JUMPDEST DUP1 PUSH1 0x1F ADD PUSH1 0x20 DUP1 SWAP2 DIV MUL PUSH1 0x20 ADD PUSH1 0x40 MLOAD SWAP1 DUP2 ADD PUSH1 0x40 MSTORE DUP1 SWAP3 SWAP2 SWAP1 DUP2 DUP2 MSTORE PUSH1 0x20 ADD DUP3 DUP1 SLOAD PUSH2 0x4BC SWAP1 PUSH2 0x2235 JUMP JUMPDEST DUP1 ISZERO PUSH2 0x509 JUMPI DUP1 PUSH1 0x1F LT PUSH2 0x4DE JUMPI PUSH2 0x100 DUP1 DUP4 SLOAD DIV MUL DUP4 MSTORE SWAP2 PUSH1 0x20 ADD SWAP2 PUSH2 0x509 JUMP JUMPDEST DUP3 ADD SWAP2 SWAP1 PUSH1 0x0 MSTORE PUSH1 0x20 PUSH1 0x0 KECCAK256 SWAP1 JUMPDEST DUP2 SLOAD DUP2 MSTORE SWAP1 PUSH1 0x1 ADD SWAP1 PUSH1 0x20 ADD DUP1 DUP4 GT PUSH2 0x4EC JUMPI DUP3 SWAP1 SUB PUSH1 0x1F AND DUP3 ADD SWAP2 JUMPDEST POP POP POP POP POP SWAP1 POP DUP10 JUMP JUMPDEST PUSH1 0x3 SLOAD DUP2 JUMP JUMPDEST PUSH1 0x4 PUSH1 0x6 DUP2 GT ISZERO PUSH2 0x52D JUMPI PUSH2 0x52C PUSH2 0x19E8 JUMP JUMPDEST JUMPDEST PUSH2 0x536 DUP3 PUSH2 0x7E4 JUMP JUMPDEST PUSH1 0x6 DUP2 GT ISZERO PUSH2 0x548 JUMPI PUSH2 0x547 PUSH2 0x19E8 JUMP JUMPDEST JUMPDEST EQ PUSH2 0x588 JUMPI PUSH1 0x40 MLOAD PUSH32 0x8C379A000000000000000000000000000000000000000000000000000000000 DUP2 MSTORE PUSH1 0x4 ADD PUSH2 0x57F SWAP1 PUSH2 0x22B2 JUMP JUMPDEST PUSH1 0x40 MLOAD DUP1 SWAP2 SUB SWAP1 REVERT JUMPDEST PUSH1 0x0 PUSH1 0x7 PUSH1 0x0 DUP4 DUP2 MSTORE PUSH1 0x20 ADD SWAP1 DUP2 MSTORE PUSH1 0x20 ADD PUSH1 0x0 KECCAK256 SWAP1 POP PUSH1 0x1 DUP2 PUSH1 0x3 ADD PUSH1 0x0 PUSH2 0x100 EXP DUP2 SLOAD DUP2 PUSH1 0xFF MUL NOT AND SWAP1 DUP4 ISZERO ISZERO MUL OR SWAP1 SSTORE POP PUSH1 0x0 JUMPDEST DUP2 PUSH1 0x8 ADD DUP1 SLOAD SWAP1 POP DUP2 LT ISZERO PUSH2 0x709 JUMPI PUSH1 0x0 DUP3 PUSH1 0x8 ADD DUP3 DUP2 SLOAD DUP2 LT PUSH2 0x5E6 JUMPI PUSH2 0x5E5 PUSH2 0x22D2 JUMP JUMPDEST JUMPDEST SWAP1 PUSH1 0x0 MSTORE PUSH1 0x20 PUSH1 0x0 KECCAK256 ADD PUSH1 0x0 SWAP1 SLOAD SWAP1 PUSH2 0x100 EXP SWAP1 DIV PUSH20 0xFFFFFFFFFFFFFFFFFFFFFFFFFFFFFFFFFFFFFFFF AND PUSH20 0xFFFFFFFFFFFFFFFFFFFFFFFFFFFFFFFFFFFFFFFF AND DUP4 PUSH1 0x9 ADD DUP4 DUP2 SLOAD DUP2 LT PUSH2 0x63D JUMPI PUSH2 0x63C PUSH2 0x22D2 JUMP JUMPDEST JUMPDEST SWAP1 PUSH1 0x0 MSTORE PUSH1 0x20 PUSH1 0x0 KECCAK256 ADD SLOAD DUP5 PUSH1 0xA ADD DUP5 DUP2 SLOAD DUP2 LT PUSH2 0x65E JUMPI PUSH2 0x65D PUSH2 0x22D2 JUMP JUMPDEST JUMPDEST SWAP1 PUSH1 0x0 MSTORE PUSH1 0x20 PUSH1 0x0 KECCAK256 ADD PUSH1 0x40 MLOAD PUSH2 0x675 SWAP2 SWAP1 PUSH2 0x23A4 JUMP JUMPDEST PUSH1 0x0 PUSH1 0x40 MLOAD DUP1 DUP4 SUB DUP2 DUP6 DUP8 GAS CALL SWAP3 POP POP POP RETURNDATASIZE DUP1 PUSH1 0x0 DUP2 EQ PUSH2 0x6B2 JUMPI PUSH1 0x40 MLOAD SWAP2 POP PUSH1 0x1F NOT PUSH1 0x3F RETURNDATASIZE ADD AND DUP3 ADD PUSH1 0x40 MSTORE RETURNDATASIZE DUP3 MSTORE RETURNDATASIZE PUSH1 0x0 PUSH1 0x20 DUP5 ADD RETURNDATACOPY PUSH2 0x6B7 JUMP JUMPDEST PUSH1 0x60 SWAP2 POP JUMPDEST POP POP SWAP1 POP DUP1 PUSH2 0x6FB JUMPI PUSH1 0x40 MLOAD PUSH32 0x8C379A000000000000000000000000000000000000000000000000000000000 DUP2 MSTORE PUSH1 0x4 ADD PUSH2 0x6F2 SWAP1 PUSH2 0x2407 JUMP JUMPDEST PUSH1 0x40 MLOAD DUP1 SWAP2 SUB SWAP1 REVERT JUMPDEST POP DUP1 DUP1 PUSH1 0x1 ADD SWAP2 POP POP PUSH2 0x5BF JUMP JUMPDEST POP DUP2 PUSH32 0x712AE1383F79AC853F8D882153778E0260EF8F03B504E2866E0593E04D2B291F PUSH1 0x40 MLOAD PUSH1 0x40 MLOAD DUP1 SWAP2 SUB SWAP1 LOG2 POP POP JUMP JUMPDEST PUSH2 0x743 PUSH2 0x14C3 JUMP JUMPDEST PUSH1 0x0 DUP2 GT DUP1 ISZERO PUSH2 0x754 JUMPI POP PUSH1 0x64 DUP2 GT ISZERO JUMPDEST PUSH2 0x793 JUMPI PUSH1 0x40 MLOAD PUSH32 0x8C379A000000000000000000000000000000000000000000000000000000000 DUP2 MSTORE PUSH1 0x4 ADD PUSH2 0x78A SWAP1 PUSH2 0x2473 JUMP JUMPDEST PUSH1 0x40 MLOAD DUP1 SWAP2 SUB SWAP1 REVERT JUMPDEST PUSH1 0x0 PUSH1 0x5 SLOAD SWAP1 POP DUP2 PUSH1 0x5 DUP2 SWAP1 SSTORE POP PUSH32 0x2B44B0D83D450296BC7999F89ED505462E7B7D82B219154DADE72CBC54137B46 DUP2 DUP4 PUSH1 0x40 MLOAD PUSH2 0x7D2 SWAP3 SWAP2 SWAP1 PUSH2 0x2493 JUMP JUMPDEST PUSH1 0x40 MLOAD DUP1 SWAP2 SUB SWAP1 LOG1 POP POP JUMP JUMPDEST PUSH1 0x2 SLOAD DUP2 JUMP JUMPDEST PUSH1 0x0 DUP1 PUSH1 0x7 PUSH1 0x0 DUP5 DUP2 MSTORE PUSH1 0x20 ADD SWAP1 DUP2 MSTORE PUSH1 0x20 ADD PUSH1 0x0 KECCAK256 SWAP1 POP PUSH1 0x0 DUP2 PUSH1 0x1 ADD SLOAD GT PUSH2 0x843 JUMPI PUSH1 0x40 MLOAD PUSH32 0x8C379A000000000000000000000000000000000000000000000000000000000 DUP2 MSTORE PUSH1 0x4 ADD PUSH2 0x83A SWAP1 PUSH2 0x2508 JUMP JUMPDEST PUSH1 0x40 MLOAD DUP1 SWAP2 SUB SWAP1 REVERT JUMPDEST DUP1 PUSH1 0x3 ADD PUSH1 0x1 SWAP1 SLOAD SWAP1 PUSH2 0x100 EXP SWAP1 DIV PUSH1 0xFF AND ISZERO PUSH2 0x864 JUMPI PUSH1 0x2 SWAP2 POP POP PUSH2 0x8E2 JUMP JUMPDEST DUP1 PUSH1 0x1 ADD SLOAD TIMESTAMP LT ISZERO PUSH2 0x87A JUMPI PUSH1 0x0 SWAP2 POP POP PUSH2 0x8E2 JUMP JUMPDEST DUP1 PUSH1 0x2 ADD SLOAD TIMESTAMP GT PUSH2 0x88F JUMPI PUSH1 0x1 SWAP2 POP POP PUSH2 0x8E2 JUMP JUMPDEST DUP1 PUSH1 0x5 ADD SLOAD DUP2 PUSH1 0x4 ADD SLOAD GT ISZERO DUP1 PUSH2 0x8AC JUMPI POP PUSH2 0x8AA DUP4 PUSH2 0xF92 JUMP JUMPDEST ISZERO JUMPDEST ISZERO PUSH2 0x8BB JUMPI PUSH1 0x3 SWAP2 POP POP PUSH2 0x8E2 JUMP JUMPDEST DUP1 PUSH1 0x3 ADD PUSH1 0x0 SWAP1 SLOAD SWAP1 PUSH2 0x100 EXP SWAP1 DIV PUSH1 0xFF AND ISZERO PUSH2 0x8DC JUMPI PUSH1 0x6 SWAP2 POP POP PUSH2 0x8E2 JUMP JUMPDEST PUSH1 0x4 SWAP2 POP POP JUMPDEST SWAP2 SWAP1 POP JUMP JUMPDEST PUSH1 0x5 SLOAD DUP2 JUMP JUMPDEST PUSH1 0x0 PUSH1 0x1 PUSH1 0x6 DUP2 GT ISZERO PUSH2 0x903 JUMPI PUSH2 0x902 PUSH2 0x19E8 JUMP JUMPDEST JUMPDEST PUSH2 0x90C DUP5 PUSH2 0x7E4 JUMP JUMPDEST PUSH1 0x6 DUP2 GT ISZERO PUSH2 0x91E JUMPI PUSH2 0x91D PUSH2 0x19E8 JUMP JUMPDEST JUMPDEST EQ PUSH2 0x95E JUMPI PUSH1 0x40 MLOAD PUSH32 0x8C379A000000000000000000000000000000000000000000000000000000000 DUP2 MSTORE PUSH1 0x4 ADD PUSH2 0x955 SWAP1 PUSH2 0x2574 JUMP JUMPDEST PUSH1 0x40 MLOAD DUP1 SWAP2 SUB SWAP1 REVERT JUMPDEST PUSH1 0x2 DUP3 PUSH1 0xFF AND GT ISZERO PUSH2 0x9A5 JUMPI PUSH1 0x40 MLOAD PUSH32 0x8C379A000000000000000000000000000000000000000000000000000000000 DUP2 MSTORE PUSH1 0x4 ADD PUSH2 0x99C SWAP1 PUSH2 0x25E0 JUMP JUMPDEST PUSH1 0x40 MLOAD DUP1 SWAP2 SUB SWAP1 REVERT JUMPDEST PUSH1 0x0 PUSH1 0x7 PUSH1 0x0 DUP6 DUP2 MSTORE PUSH1 0x20 ADD SWAP1 DUP2 MSTORE PUSH1 0x20 ADD PUSH1 0x0 KECCAK256 SWAP1 POP DUP1 PUSH1 0x7 ADD PUSH1 0x0 CALLER PUSH20 0xFFFFFFFFFFFFFFFFFFFFFFFFFFFFFFFFFFFFFFFF AND PUSH20 0xFFFFFFFFFFFFFFFFFFFFFFFFFFFFFFFFFFFFFFFF AND DUP2 MSTORE PUSH1 0x20 ADD SWAP1 DUP2 MSTORE PUSH1 0x20 ADD PUSH1 0x0 KECCAK256 PUSH1 0x0 SWAP1 SLOAD SWAP1 PUSH2 0x100 EXP SWAP1 DIV PUSH1 0xFF AND ISZERO PUSH2 0xA4B JUMPI PUSH1 0x40 MLOAD PUSH32 0x8C379A000000000000000000000000000000000000000000000000000000000 DUP2 MSTORE PUSH1 0x4 ADD PUSH2 0xA42 SWAP1 PUSH2 0x264C JUMP JUMPDEST PUSH1 0x40 MLOAD DUP1 SWAP2 SUB SWAP1 REVERT JUMPDEST PUSH1 0x0 PUSH2 0xA56 CALLER PUSH2 0x1093 JUMP JUMPDEST SWAP1 POP PUSH1 0x0 DUP5 PUSH1 0xFF AND SUB PUSH2 0xA83 JUMPI DUP1 DUP3 PUSH1 0x5 ADD PUSH1 0x0 DUP3 DUP3 SLOAD PUSH2 0xA77 SWAP2 SWAP1 PUSH2 0x269B JUMP JUMPDEST SWAP3 POP POP DUP2 SWAP1 SSTORE POP PUSH2 0xAD7 JUMP JUMPDEST PUSH1 0x1 DUP5 PUSH1 0xFF AND SUB PUSH2 0xAAE JUMPI DUP1 DUP3 PUSH1 0x4 ADD PUSH1 0x0 DUP3 DUP3 SLOAD PUSH2 0xAA2 SWAP2 SWAP1 PUSH2 0x269B JUMP JUMPDEST SWAP3 POP POP DUP2 SWAP1 SSTORE POP PUSH2 0xAD6 JUMP JUMPDEST PUSH1 0x2 DUP5 PUSH1 0xFF AND SUB PUSH2 0xAD5 JUMPI DUP1 DUP3 PUSH1 0x6 ADD PUSH1 0x0 DUP3 DUP3 SLOAD PUSH2 0xACD SWAP2 SWAP1 PUSH2 0x269B JUMP JUMPDEST SWAP3 POP POP DUP2 SWAP1 SSTORE POP JUMPDEST JUMPDEST JUMPDEST PUSH1 0x1 DUP3 PUSH1 0x7 ADD PUSH1 0x0 CALLER PUSH20 0xFFFFFFFFFFFFFFFFFFFFFFFFFFFFFFFFFFFFFFFF AND PUSH20 0xFFFFFFFFFFFFFFFFFFFFFFFFFFFFFFFFFFFFFFFF AND DUP2 MSTORE PUSH1 0x20 ADD SWAP1 DUP2 MSTORE PUSH1 0x20 ADD PUSH1 0x0 KECCAK256 PUSH1 0x0 PUSH2 0x100 EXP DUP2 SLOAD DUP2 PUSH1 0xFF MUL NOT AND SWAP1 DUP4 ISZERO ISZERO MUL OR SWAP1 SSTORE POP DUP5 CALLER PUSH20 0xFFFFFFFFFFFFFFFFFFFFFFFFFFFFFFFFFFFFFFFF AND PUSH32 0x2C9DEB38F462962EADBD85A9D3A4120503EE091F1582EAAA10AA8C6797651D29 DUP7 DUP5 PUSH1 0x40 MLOAD PUSH2 0xB7A SWAP3 SWAP2 SWAP1 PUSH2 0x26DE JUMP JUMPDEST PUSH1 0x40 MLOAD DUP1 SWAP2 SUB SWAP1 LOG3 DUP1 SWAP3 POP POP POP SWAP3 SWAP2 POP POP JUMP JUMPDEST PUSH1 0x6 PUSH1 0x20 MSTORE DUP1 PUSH1 0x0 MSTORE PUSH1 0x40 PUSH1 0x0 KECCAK256 PUSH1 0x0 SWAP2 POP SLOAD SWAP1 PUSH2 0x100 EXP SWAP1 DIV PUSH20 0xFFFFFFFFFFFFFFFFFFFFFFFFFFFFFFFFFFFFFFFF AND DUP2 JUMP JUMPDEST PUSH1 0x0 PUSH1 0x6 PUSH1 0x0 CALLER PUSH20 0xFFFFFFFFFFFFFFFFFFFFFFFFFFFFFFFFFFFFFFFF AND PUSH20 0xFFFFFFFFFFFFFFFFFFFFFFFFFFFFFFFFFFFFFFFF AND DUP2 MSTORE PUSH1 0x20 ADD SWAP1 DUP2 MSTORE PUSH1 0x20 ADD PUSH1 0x0 KECCAK256 PUSH1 0x0 SWAP1 SLOAD SWAP1 PUSH2 0x100 EXP SWAP1 DIV PUSH20 0xFFFFFFFFFFFFFFFFFFFFFFFFFFFFFFFFFFFFFFFF AND SWAP1 POP DUP2 PUSH1 0x6 PUSH1 0x0 CALLER PUSH20 0xFFFFFFFFFFFFFFFFFFFFFFFFFFFFFFFFFFFFFFFF AND PUSH20 0xFFFFFFFFFFFFFFFFFFFFFFFFFFFFFFFFFFFFFFFF AND DUP2 MSTORE PUSH1 0x20 ADD SWAP1 DUP2 MSTORE PUSH1 0x20 ADD PUSH1 0x0 KECCAK256 PUSH1 0x0 PUSH2 0x100 EXP DUP2 SLOAD DUP2 PUSH20 0xFFFFFFFFFFFFFFFFFFFFFFFFFFFFFFFFFFFFFFFF MUL NOT AND SWAP1 DUP4 PUSH20 0xFFFFFFFFFFFFFFFFFFFFFFFFFFFFFFFFFFFFFFFF AND MUL OR SWAP1 SSTORE POP DUP2 PUSH20 0xFFFFFFFFFFFFFFFFFFFFFFFFFFFFFFFFFFFFFFFF AND DUP2 PUSH20 0xFFFFFFFFFFFFFFFFFFFFFFFFFFFFFFFFFFFFFFFF AND CALLER PUSH20 0xFFFFFFFFFFFFFFFFFFFFFFFFFFFFFFFFFFFFFFFF AND PUSH32 0x3134E8A2E6D97E929A7E54011EA5485D7D196DD5F0BA4D4EF95803E8E3FC257F PUSH1 0x40 MLOAD PUSH1 0x40 MLOAD DUP1 SWAP2 SUB SWAP1 LOG4 POP POP JUMP JUMPDEST PUSH2 0xD1F PUSH2 0x14C3 JUMP JUMPDEST PUSH2 0xD29 PUSH1 0x0 PUSH2 0x154A JUMP JUMPDEST JUMP JUMPDEST PUSH1 0x0 PUSH1 0x4 SLOAD PUSH2 0xD39 CALLER PUSH2 0x1093 JUMP JUMPDEST LT ISZERO PUSH2 0xD7A JUMPI PUSH1 0x40 MLOAD PUSH32 0x8C379A000000000000000000000000000000000000000000000000000000000 DUP2 MSTORE PUSH1 0x4 ADD PUSH2 0xD71 SWAP1 PUSH2 0x2753 JUMP JUMPDEST PUSH1 0x40 MLOAD DUP1 SWAP2 SUB SWAP1 REVERT JUMPDEST DUP4 MLOAD DUP6 MLOAD EQ DUP1 ISZERO PUSH2 0xD8C JUMPI POP DUP3 MLOAD DUP6 MLOAD EQ JUMPDEST PUSH2 0xDCB JUMPI PUSH1 0x40 MLOAD PUSH32 0x8C379A000000000000000000000000000000000000000000000000000000000 DUP2 MSTORE PUSH1 0x4 ADD PUSH2 0xDC2 SWAP1 PUSH2 0x27BF JUMP JUMPDEST PUSH1 0x40 MLOAD DUP1 SWAP2 SUB SWAP1 REVERT JUMPDEST PUSH1 0x0 PUSH2 0xDE0 DUP7 DUP7 DUP7 DUP7 DUP1 MLOAD SWAP1 PUSH1 0x20 ADD KECCAK256 PUSH2 0x1275 JUMP JUMPDEST SWAP1 POP PUSH1 0x0 PUSH1 0x7 PUSH1 0x0 DUP4 DUP2 MSTORE PUSH1 0x20 ADD SWAP1 DUP2 MSTORE PUSH1 0x20 ADD PUSH1 0x0 KECCAK256 SWAP1 POP PUSH1 0x0 DUP2 PUSH1 0x1 ADD SLOAD EQ PUSH2 0xE40 JUMPI PUSH1 0x40 MLOAD PUSH32 0x8C379A000000000000000000000000000000000000000000000000000000000 DUP2 MSTORE PUSH1 0x4 ADD PUSH2 0xE37 SWAP1 PUSH2 0x282B JUMP JUMPDEST PUSH1 0x40 MLOAD DUP1 SWAP2 SUB SWAP1 REVERT JUMPDEST PUSH1 0x0 PUSH1 0x2 SLOAD TIMESTAMP PUSH2 0xE50 SWAP2 SWAP1 PUSH2 0x269B JUMP JUMPDEST SWAP1 POP PUSH1 0x0 PUSH1 0x3 SLOAD DUP3 PUSH2 0xE62 SWAP2 SWAP1 PUSH2 0x269B JUMP JUMPDEST SWAP1 POP CALLER DUP4 PUSH1 0x0 ADD PUSH1 0x0 PUSH2 0x100 EXP DUP2 SLOAD DUP2 PUSH20 0xFFFFFFFFFFFFFFFFFFFFFFFFFFFFFFFFFFFFFFFF MUL NOT AND SWAP1 DUP4 PUSH20 0xFFFFFFFFFFFFFFFFFFFFFFFFFFFFFFFFFFFFFFFF AND MUL OR SWAP1 SSTORE POP DUP2 DUP4 PUSH1 0x1 ADD DUP2 SWAP1 SSTORE POP DUP1 DUP4 PUSH1 0x2 ADD DUP2 SWAP1 SSTORE POP DUP9 DUP4 PUSH1 0x8 ADD SWAP1 DUP1 MLOAD SWAP1 PUSH1 0x20 ADD SWAP1 PUSH2 0xED1 SWAP3 SWAP2 SWAP1 PUSH2 0x1616 JUMP JUMPDEST POP DUP8 DUP4 PUSH1 0x9 ADD SWAP1 DUP1 MLOAD SWAP1 PUSH1 0x20 ADD SWAP1 PUSH2 0xEEA SWAP3 SWAP2 SWAP1 PUSH2 0x16A0 JUMP JUMPDEST POP DUP7 DUP4 PUSH1 0xA ADD SWAP1 DUP1 MLOAD SWAP1 PUSH1 0x20 ADD SWAP1 PUSH2 0xF03 SWAP3 SWAP2 SWAP1 PUSH2 0x16ED JUMP JUMPDEST POP DUP6 DUP4 PUSH1 0xB ADD SWAP1 DUP2 PUSH2 0xF15 SWAP2 SWAP1 PUSH2 0x29ED JUMP JUMPDEST POP DUP4 PUSH32 0x95F03E437E6D5037418F12BEF80FC7E0A5F27754C078A1D5D3F62D39BAC44E50 CALLER DUP12 DUP12 DUP12 DUP8 DUP8 DUP14 PUSH1 0x40 MLOAD PUSH2 0xF52 SWAP8 SWAP7 SWAP6 SWAP5 SWAP4 SWAP3 SWAP2 SWAP1 PUSH2 0x2D52 JUMP JUMPDEST PUSH1 0x40 MLOAD DUP1 SWAP2 SUB SWAP1 LOG2 DUP4 SWAP5 POP POP POP POP POP SWAP5 SWAP4 POP POP POP POP JUMP JUMPDEST PUSH1 0x0 DUP1 PUSH1 0x0 SWAP1 SLOAD SWAP1 PUSH2 0x100 EXP SWAP1 DIV PUSH20 0xFFFFFFFFFFFFFFFFFFFFFFFFFFFFFFFFFFFFFFFF AND SWAP1 POP SWAP1 JUMP JUMPDEST PUSH1 0x0 DUP1 PUSH1 0x7 PUSH1 0x0 DUP5 DUP2 MSTORE PUSH1 0x20 ADD SWAP1 DUP2 MSTORE PUSH1 0x20 ADD PUSH1 0x0 KECCAK256 SWAP1 POP PUSH1 0x0 DUP2 PUSH1 0x6 ADD SLOAD DUP3 PUSH1 0x5 ADD SLOAD DUP4 PUSH1 0x4 ADD SLOAD PUSH2 0xFC5 SWAP2 SWAP1 PUSH2 0x269B JUMP JUMPDEST PUSH2 0xFCF SWAP2 SWAP1 PUSH2 0x269B JUMP JUMPDEST SWAP1 POP PUSH1 0x0 PUSH1 0x1 PUSH1 0x0 SWAP1 SLOAD SWAP1 PUSH2 0x100 EXP SWAP1 DIV PUSH20 0xFFFFFFFFFFFFFFFFFFFFFFFFFFFFFFFFFFFFFFFF AND PUSH20 0xFFFFFFFFFFFFFFFFFFFFFFFFFFFFFFFFFFFFFFFF AND PUSH4 0x817B1CD2 PUSH1 0x40 MLOAD DUP2 PUSH4 0xFFFFFFFF AND PUSH1 0xE0 SHL DUP2 MSTORE PUSH1 0x4 ADD PUSH1 0x20 PUSH1 0x40 MLOAD DUP1 DUP4 SUB DUP2 DUP7 GAS STATICCALL ISZERO DUP1 ISZERO PUSH2 0x1040 JUMPI RETURNDATASIZE PUSH1 0x0 DUP1 RETURNDATACOPY RETURNDATASIZE PUSH1 0x0 REVERT JUMPDEST POP POP POP POP PUSH1 0x40 MLOAD RETURNDATASIZE PUSH1 0x1F NOT PUSH1 0x1F DUP3 ADD AND DUP3 ADD DUP1 PUSH1 0x40 MSTORE POP DUP2 ADD SWAP1 PUSH2 0x1064 SWAP2 SWAP1 PUSH2 0x2DF2 JUMP JUMPDEST SWAP1 POP PUSH1 0x5 SLOAD DUP2 PUSH2 0x1074 SWAP2 SWAP1 PUSH2 0x2E1F JUMP JUMPDEST PUSH1 0x64 DUP4 PUSH2 0x1081 SWAP2 SWAP1 PUSH2 0x2E1F JUMP JUMPDEST LT ISZERO SWAP4 POP POP POP POP SWAP2 SWAP1 POP JUMP JUMPDEST PUSH1 0x4 SLOAD DUP2 JUMP JUMPDEST PUSH1 0x0 DUP1 PUSH1 0x6 PUSH1 0x0 DUP5 PUSH20 0xFFFFFFFFFFFFFFFFFFFFFFFFFFFFFFFFFFFFFFFF AND PUSH20 0xFFFFFFFFFFFFFFFFFFFFFFFFFFFFFFFFFFFFFFFF AND DUP2 MSTORE PUSH1 0x20 ADD SWAP1 DUP2 MSTORE PUSH1 0x20 ADD PUSH1 0x0 KECCAK256 PUSH1 0x0 SWAP1 SLOAD SWAP1 PUSH2 0x100 EXP SWAP1 DIV PUSH20 0xFFFFFFFFFFFFFFFFFFFFFFFFFFFFFFFFFFFFFFFF AND SWAP1 POP PUSH1 0x0 PUSH20 0xFFFFFFFFFFFFFFFFFFFFFFFFFFFFFFFFFFFFFFFF AND DUP2 PUSH20 0xFFFFFFFFFFFFFFFFFFFFFFFFFFFFFFFFFFFFFFFF AND SUB PUSH2 0x11D0 JUMPI PUSH1 0x1 PUSH1 0x0 SWAP1 SLOAD SWAP1 PUSH2 0x100 EXP SWAP1 DIV PUSH20 0xFFFFFFFFFFFFFFFFFFFFFFFFFFFFFFFFFFFFFFFF AND PUSH20 0xFFFFFFFFFFFFFFFFFFFFFFFFFFFFFFFFFFFFFFFF AND PUSH4 0x17D1720D DUP5 PUSH1 0x40 MLOAD DUP3 PUSH4 0xFFFFFFFF AND PUSH1 0xE0 SHL DUP2 MSTORE PUSH1 0x4 ADD PUSH2 0x1187 SWAP2 SWAP1 PUSH2 0x1B4C JUMP JUMPDEST PUSH1 0x20 PUSH1 0x40 MLOAD DUP1 DUP4 SUB DUP2 DUP7 GAS STATICCALL ISZERO DUP1 ISZERO PUSH2 0x11A4 JUMPI RETURNDATASIZE PUSH1 0x0 DUP1 RETURNDATACOPY RETURNDATASIZE PUSH1 0x0 REVERT JUMPDEST POP POP POP POP PUSH1 0x40 MLOAD RETURNDATASIZE PUSH1 0x1F NOT PUSH1 0x1F DUP3 ADD AND DUP3 ADD DUP1 PUSH1 0x40 MSTORE POP DUP2 ADD SWAP1 PUSH2 0x11C8 SWAP2 SWAP1 PUSH2 0x2DF2 JUMP JUMPDEST SWAP2 POP POP PUSH2 0x1270 JUMP JUMPDEST PUSH1 0x1 PUSH1 0x0 SWAP1 SLOAD SWAP1 PUSH2 0x100 EXP SWAP1 DIV PUSH20 0xFFFFFFFFFFFFFFFFFFFFFFFFFFFFFFFFFFFFFFFF AND PUSH20 0xFFFFFFFFFFFFFFFFFFFFFFFFFFFFFFFFFFFFFFFF AND PUSH4 0x17D1720D DUP3 PUSH1 0x40 MLOAD DUP3 PUSH4 0xFFFFFFFF AND PUSH1 0xE0 SHL DUP2 MSTORE PUSH1 0x4 ADD PUSH2 0x122B SWAP2 SWAP1 PUSH2 0x1B4C JUMP JUMPDEST PUSH1 0x20 PUSH1 0x40 MLOAD DUP1 DUP4 SUB DUP2 DUP7 GAS STATICCALL ISZERO DUP1 ISZERO PUSH2 0x1248 JUMPI RETURNDATASIZE PUSH1 0x0 DUP1 RETURNDATACOPY RETURNDATASIZE PUSH1 0x0 REVERT JUMPDEST POP POP POP POP PUSH1 0x40 MLOAD RETURNDATASIZE PUSH1 0x1F NOT PUSH1 0x1F DUP3 ADD AND DUP3 ADD DUP1 PUSH1 0x40 MSTORE POP DUP2 ADD SWAP1 PUSH2 0x126C SWAP2 SWAP1 PUSH2 0x2DF2 JUMP JUMPDEST SWAP2 POP POP JUMPDEST SWAP2 SWAP1 POP JUMP JUMPDEST PUSH1 0x0 DUP5 DUP5 DUP5 DUP5 PUSH1 0x40 MLOAD PUSH1 0x20 ADD PUSH2 0x128E SWAP5 SWAP4 SWAP3 SWAP2 SWAP1 PUSH2 0x2E70 JUMP JUMPDEST PUSH1 0x40 MLOAD PUSH1 0x20 DUP2 DUP4 SUB SUB DUP2 MSTORE SWAP1 PUSH1 0x40 MSTORE DUP1 MLOAD SWAP1 PUSH1 0x20 ADD KECCAK256 PUSH1 0x0 SHR SWAP1 POP SWAP5 SWAP4 POP POP POP POP JUMP JUMPDEST PUSH1 0x0 PUSH1 0x6 DUP2 GT ISZERO PUSH2 0x12C5 JUMPI PUSH2 0x12C4 PUSH2 0x19E8 JUMP JUMPDEST JUMPDEST PUSH2 0x12CE DUP3 PUSH2 0x7E4 JUMP JUMPDEST PUSH1 0x6 DUP2 GT ISZERO PUSH2 0x12E0 JUMPI PUSH2 0x12DF PUSH2 0x19E8 JUMP JUMPDEST JUMPDEST EQ PUSH2 0x1320 JUMPI PUSH1 0x40 MLOAD PUSH32 0x8C379A000000000000000000000000000000000000000000000000000000000 DUP2 MSTORE PUSH1 0x4 ADD PUSH2 0x1317 SWAP1 PUSH2 0x2F16 JUMP JUMPDEST PUSH1 0x40 MLOAD DUP1 SWAP2 SUB SWAP1 REVERT JUMPDEST PUSH1 0x0 PUSH1 0x7 PUSH1 0x0 DUP4 DUP2 MSTORE PUSH1 0x20 ADD SWAP1 DUP2 MSTORE PUSH1 0x20 ADD PUSH1 0x0 KECCAK256 SWAP1 POP DUP1 PUSH1 0x0 ADD PUSH1 0x0 SWAP1 SLOAD SWAP1 PUSH2 0x100 EXP SWAP1 DIV PUSH20 0xFFFFFFFFFFFFFFFFFFFFFFFFFFFFFFFFFFFFFFFF AND PUSH20 0xFFFFFFFFFFFFFFFFFFFFFFFFFFFFFFFFFFFFFFFF AND CALLER PUSH20 0xFFFFFFFFFFFFFFFFFFFFFFFFFFFFFFFFFFFFFFFF AND EQ PUSH2 0x13C9 JUMPI PUSH1 0x40 MLOAD PUSH32 0x8C379A000000000000000000000000000000000000000000000000000000000 DUP2 MSTORE PUSH1 0x4 ADD PUSH2 0x13C0 SWAP1 PUSH2 0x2F82 JUMP JUMPDEST PUSH1 0x40 MLOAD DUP1 SWAP2 SUB SWAP1 REVERT JUMPDEST PUSH1 0x1 DUP2 PUSH1 0x3 ADD PUSH1 0x1 PUSH2 0x100 EXP DUP2 SLOAD DUP2 PUSH1 0xFF MUL NOT AND SWAP1 DUP4 ISZERO ISZERO MUL OR SWAP1 SSTORE POP DUP2 PUSH32 0x789CF55BE980739DAD1D0699B93B58E806B51C9D96619BFA8FE0A28ABAA7B30C PUSH1 0x40 MLOAD PUSH1 0x40 MLOAD DUP1 SWAP2 SUB SWAP1 LOG2 POP POP JUMP JUMPDEST PUSH1 0x1 PUSH1 0x0 SWAP1 SLOAD SWAP1 PUSH2 0x100 EXP SWAP1 DIV PUSH20 0xFFFFFFFFFFFFFFFFFFFFFFFFFFFFFFFFFFFFFFFF AND DUP2 JUMP JUMPDEST PUSH2 0x1445 PUSH2 0x14C3 JUMP JUMPDEST PUSH1 0x0 PUSH20 0xFFFFFFFFFFFFFFFFFFFFFFFFFFFFFFFFFFFFFFFF AND DUP2 PUSH20 0xFFFFFFFFFFFFFFFFFFFFFFFFFFFFFFFFFFFFFFFF AND SUB PUSH2 0x14B7 JUMPI PUSH1 0x0 PUSH1 0x40 MLOAD PUSH32 0x1E4FBDF700000000000000000000000000000000000000000000000000000000 DUP2 MSTORE PUSH1 0x4 ADD PUSH2 0x14AE SWAP2 SWAP1 PUSH2 0x1B4C JUMP JUMPDEST PUSH1 0x40 MLOAD DUP1 SWAP2 SUB SWAP1 REVERT JUMPDEST PUSH2 0x14C0 DUP2 PUSH2 0x154A JUMP JUMPDEST POP JUMP JUMPDEST PUSH2 0x14CB PUSH2 0x160E JUMP JUMPDEST PUSH20 0xFFFFFFFFFFFFFFFFFFFFFFFFFFFFFFFFFFFFFFFF AND PUSH2 0x14E9 PUSH2 0xF69 JUMP JUMPDEST PUSH20 0xFFFFFFFFFFFFFFFFFFFFFFFFFFFFFFFFFFFFFFFF AND EQ PUSH2 0x1548 JUMPI PUSH2 0x150C PUSH2 0x160E JUMP JUMPDEST PUSH1 0x40 MLOAD PUSH32 0x118CDAA700000000000000000000000000000000000000000000000000000000 DUP2 MSTORE PUSH1 0x4 ADD PUSH2 0x153F SWAP2 SWAP1 PUSH2 0x1B4C JUMP JUMPDEST PUSH1 0x40 MLOAD DUP1 SWAP2 SUB SWAP1 REVERT JUMPDEST JUMP JUMPDEST PUSH1 0x0 DUP1 PUSH1 0x0 SWAP1 SLOAD SWAP1 PUSH2 0x100 EXP SWAP1 DIV PUSH20 0xFFFFFFFFFFFFFFFFFFFFFFFFFFFFFFFFFFFFFFFF AND SWAP1 POP DUP2 PUSH1 0x0 DUP1 PUSH2 0x100 EXP DUP2 SLOAD DUP2 PUSH20 0xFFFFFFFFFFFFFFFFFFFFFFFFFFFFFFFFFFFFFFFF MUL NOT AND SWAP1 DUP4 PUSH20 0xFFFFFFFFFFFFFFFFFFFFFFFFFFFFFFFFFFFFFFFF AND MUL OR SWAP1 SSTORE POP DUP2 PUSH20 0xFFFFFFFFFFFFFFFFFFFFFFFFFFFFFFFFFFFFFFFF AND DUP2 PUSH20 0xFFFFFFFFFFFFFFFFFFFFFFFFFFFFFFFFFFFFFFFF AND PUSH32 0x8BE0079C531659141344CD1FD0A4F28419497F9722A3DAAFE3B4186F6B6457E0 PUSH1 0x40 MLOAD PUSH1 0x40 MLOAD DUP1 SWAP2 SUB SWAP1 LOG3 POP POP JUMP JUMPDEST PUSH1 0x0 CALLER SWAP1 POP SWAP1 JUMP JUMPDEST DUP3 DUP1 SLOAD DUP3 DUP3 SSTORE SWAP1 PUSH1 0x0 MSTORE PUSH1 0x20 PUSH1 0x0 KECCAK256 SWAP1 DUP2 ADD SWAP3 DUP3 ISZERO PUSH2 0x168F JUMPI SWAP2 PUSH1 0x20 MUL DUP3 ADD JUMPDEST DUP3 DUP2 GT ISZERO PUSH2 0x168E JUMPI DUP3 MLOAD DUP3 PUSH1 0x0 PUSH2 0x100 EXP DUP2 SLOAD DUP2 PUSH20 0xFFFFFFFFFFFFFFFFFFFFFFFFFFFFFFFFFFFFFFFF MUL NOT AND SWAP1 DUP4 PUSH20 0xFFFFFFFFFFFFFFFFFFFFFFFFFFFFFFFFFFFFFFFF AND MUL OR SWAP1 SSTORE POP SWAP2 PUSH1 0x20 ADD SWAP2 SWAP1 PUSH1 0x1 ADD SWAP1 PUSH2 0x1636 JUMP JUMPDEST JUMPDEST POP SWAP1 POP PUSH2 0x169C SWAP2 SWAP1 PUSH2 0x1746 JUMP JUMPDEST POP SWAP1 JUMP JUMPDEST DUP3 DUP1 SLOAD DUP3 DUP3 SSTORE SWAP1 PUSH1 0x0 MSTORE PUSH1 0x20 PUSH1 0x0 KECCAK256 SWAP1 DUP2 ADD SWAP3 DUP3 ISZERO PUSH2 0x16DC JUMPI SWAP2 PUSH1 0x20 MUL DUP3 ADD JUMPDEST DUP3 DUP2 GT ISZERO PUSH2 0x16DB JUMPI DUP3 MLOAD DUP3 SSTORE SWAP2 PUSH1 0x20 ADD SWAP2 SWAP1 PUSH1 0x1 ADD SWAP1 PUSH2 0x16C0 JUMP JUMPDEST JUMPDEST POP SWAP1 POP PUSH2 0x16E9 SWAP2 SWAP1 PUSH2 0x1746 JUMP JUMPDEST POP SWAP1 JUMP JUMPDEST DUP3 DUP1 SLOAD DUP3 DUP3 SSTORE SWAP1 PUSH1 0x0 MSTORE PUSH1 0x20 PUSH1 0x0 KECCAK256 SWAP1 DUP2 ADD SWAP3 DUP3 ISZERO PUSH2 0x1735 JUMPI SWAP2 PUSH1 0x20 MUL DUP3 ADD JUMPDEST DUP3 DUP2 GT ISZERO PUSH2 0x1734 JUMPI DUP3 MLOAD DUP3 SWAP1 DUP2 PUSH2 0x1724 SWAP2 SWAP1 PUSH2 0x2FE8 JUMP JUMPDEST POP SWAP2 PUSH1 0x20 ADD SWAP2 SWAP1 PUSH1 0x1 ADD SWAP1 PUSH2 0x170D JUMP JUMPDEST JUMPDEST POP SWAP1 POP PUSH2 0x1742 SWAP2 SWAP1 PUSH2 0x1763 JUMP JUMPDEST POP SWAP1 JUMP JUMPDEST JUMPDEST DUP1 DUP3 GT ISZERO PUSH2 0x175F JUMPI PUSH1 0x0 DUP2 PUSH1 0x0 SWAP1 SSTORE POP PUSH1 0x1 ADD PUSH2 0x1747 JUMP JUMPDEST POP SWAP1 JUMP JUMPDEST JUMPDEST DUP1 DUP3 GT ISZERO PUSH2 0x1783 JUMPI PUSH1 0x0 DUP2 DUP2 PUSH2 0x177A SWAP2 SWAP1 PUSH2 0x1787 JUMP JUMPDEST POP PUSH1 0x1 ADD PUSH2 0x1764 JUMP JUMPDEST POP SWAP1 JUMP JUMPDEST POP DUP1 SLOAD PUSH2 0x1793 SWAP1 PUSH2 0x2235 JUMP JUMPDEST PUSH1 0x0 DUP3 SSTORE DUP1 PUSH1 0x1F LT PUSH2 0x17A5 JUMPI POP PUSH2 0x17C4 JUMP JUMPDEST PUSH1 0x1F ADD PUSH1 0x20 SWAP1 DIV SWAP1 PUSH1 0x0 MSTORE PUSH1 0x20 PUSH1 0x0 KECCAK256 SWAP1 DUP2 ADD SWAP1 PUSH2 0x17C3 SWAP2 SWAP1 PUSH2 0x1746 JUMP JUMPDEST JUMPDEST POP JUMP JUMPDEST PUSH1 0x0 PUSH1 0x40 MLOAD SWAP1 POP SWAP1 JUMP JUMPDEST PUSH1 0x0 DUP1 REVERT JUMPDEST PUSH1 0x0 DUP1 REVERT JUMPDEST PUSH1 0x0 DUP2 SWAP1 POP SWAP2 SWAP1 POP JUMP JUMPDEST PUSH2 0x17EE DUP2 PUSH2 0x17DB JUMP JUMPDEST DUP2 EQ PUSH2 0x17F9 JUMPI PUSH1 0x0 DUP1 REVERT JUMPDEST POP JUMP JUMPDEST PUSH1 0x0 DUP2 CALLDATALOAD SWAP1 POP PUSH2 0x180B DUP2 PUSH2 0x17E5 JUMP JUMPDEST SWAP3 SWAP2 POP POP JUMP JUMPDEST PUSH1 0x0 PUSH1 0x20 DUP3 DUP5 SUB SLT ISZERO PUSH2 0x1827 JUMPI PUSH2 0x1826 PUSH2 0x17D1 JUMP JUMPDEST JUMPDEST PUSH1 0x0 PUSH2 0x1835 DUP5 DUP3 DUP6 ADD PUSH2 0x17FC JUMP JUMPDEST SWAP2 POP POP SWAP3 SWAP2 POP POP JUMP JUMPDEST PUSH1 0x0 PUSH20 0xFFFFFFFFFFFFFFFFFFFFFFFFFFFFFFFFFFFFFFFF DUP3 AND SWAP1 POP SWAP2 SWAP1 POP JUMP JUMPDEST PUSH1 0x0 PUSH2 0x1869 DUP3 PUSH2 0x183E JUMP JUMPDEST SWAP1 POP SWAP2 SWAP1 POP JUMP JUMPDEST PUSH2 0x1879 DUP2 PUSH2 0x185E JUMP JUMPDEST DUP3 MSTORE POP POP JUMP JUMPDEST PUSH2 0x1888 DUP2 PUSH2 0x17DB JUMP JUMPDEST DUP3 MSTORE POP POP JUMP JUMPDEST PUSH1 0x0 DUP2 ISZERO ISZERO SWAP1 POP SWAP2 SWAP1 POP JUMP JUMPDEST PUSH2 0x18A3 DUP2 PUSH2 0x188E JUMP JUMPDEST DUP3 MSTORE POP POP JUMP JUMPDEST PUSH1 0x0 DUP2 MLOAD SWAP1 POP SWAP2 SWAP1 POP JUMP JUMPDEST PUSH1 0x0 DUP3 DUP3 MSTORE PUSH1 0x20 DUP3 ADD SWAP1 POP SWAP3 SWAP2 POP POP JUMP JUMPDEST PUSH1 0x0 JUMPDEST DUP4 DUP2 LT ISZERO PUSH2 0x18E3 JUMPI DUP1 DUP3 ADD MLOAD DUP2 DUP5 ADD MSTORE PUSH1 0x20 DUP2 ADD SWAP1 POP PUSH2 0x18C8 JUMP JUMPDEST PUSH1 0x0 DUP5 DUP5 ADD MSTORE POP POP POP POP JUMP JUMPDEST PUSH1 0x0 PUSH1 0x1F NOT PUSH1 0x1F DUP4 ADD AND SWAP1 POP SWAP2 SWAP1 POP JUMP JUMPDEST PUSH1 0x0 PUSH2 0x190B DUP3 PUSH2 0x18A9 JUMP JUMPDEST PUSH2 0x1915 DUP2 DUP6 PUSH2 0x18B4 JUMP JUMPDEST SWAP4 POP PUSH2 0x1925 DUP2 DUP6 PUSH1 0x20 DUP7 ADD PUSH2 0x18C5 JUMP JUMPDEST PUSH2 0x192E DUP2 PUSH2 0x18EF JUMP JUMPDEST DUP5 ADD SWAP2 POP POP SWAP3 SWAP2 POP POP JUMP JUMPDEST PUSH1 0x0 PUSH2 0x120 DUP3 ADD SWAP1 POP PUSH2 0x194F PUSH1 0x0 DUP4 ADD DUP13 PUSH2 0x1870 JUMP JUMPDEST PUSH2 0x195C PUSH1 0x20 DUP4 ADD DUP12 PUSH2 0x187F JUMP JUMPDEST PUSH2 0x1969 PUSH1 0x40 DUP4 ADD DUP11 PUSH2 0x187F JUMP JUMPDEST PUSH2 0x1976 PUSH1 0x60 DUP4 ADD DUP10 PUSH2 0x189A JUMP JUMPDEST PUSH2 0x1983 PUSH1 0x80 DUP4 ADD DUP9 PUSH2 0x189A JUMP JUMPDEST PUSH2 0x1990 PUSH1 0xA0 DUP4 ADD DUP8 PUSH2 0x187F JUMP JUMPDEST PUSH2 0x199D PUSH1 0xC0 DUP4 ADD DUP7 PUSH2 0x187F JUMP JUMPDEST PUSH2 0x19AA PUSH1 0xE0 DUP4 ADD DUP6 PUSH2 0x187F JUMP JUMPDEST DUP2 DUP2 SUB PUSH2 0x100 DUP4 ADD MSTORE PUSH2 0x19BD DUP2 DUP5 PUSH2 0x1900 JUMP JUMPDEST SWAP1 POP SWAP11 SWAP10 POP POP POP POP POP POP POP POP POP POP JUMP JUMPDEST PUSH1 0x0 PUSH1 0x20 DUP3 ADD SWAP1 POP PUSH2 0x19E2 PUSH1 0x0 DUP4 ADD DUP5 PUSH2 0x187F JUMP JUMPDEST SWAP3 SWAP2 POP POP JUMP JUMPDEST PUSH32 0x4E487B7100000000000000000000000000000000000000000000000000000000 PUSH1 0x0 MSTORE PUSH1 0x21 PUSH1 0x4 MSTORE PUSH1 0x24 PUSH1 0x0 REVERT JUMPDEST PUSH1 0x7 DUP2 LT PUSH2 0x1A28 JUMPI PUSH2 0x1A27 PUSH2 0x19E8 JUMP JUMPDEST JUMPDEST POP JUMP JUMPDEST PUSH1 0x0 DUP2 SWAP1 POP PUSH2 0x1A39 DUP3 PUSH2 0x1A17 JUMP JUMPDEST SWAP2 SWAP1 POP JUMP JUMPDEST PUSH1 0x0 PUSH2 0x1A49 DUP3 PUSH2 0x1A2B JUMP JUMPDEST SWAP1 POP SWAP2 SWAP1 POP JUMP JUMPDEST PUSH2 0x1A59 DUP2 PUSH2 0x1A3E JUMP JUMPDEST DUP3 MSTORE POP POP JUMP JUMPDEST PUSH1 0x0 PUSH1 0x20 DUP3 ADD SWAP1 POP PUSH2 0x1A74 PUSH1 0x0 DUP4 ADD DUP5 PUSH2 0x1A50 JUMP JUMPDEST SWAP3 SWAP2 POP POP JUMP JUMPDEST PUSH1 0x0 PUSH1 0xFF DUP3 AND SWAP1 POP SWAP2 SWAP1 POP JUMP JUMPDEST PUSH2 0x1A90 DUP2 PUSH2 0x1A7A JUMP JUMPDEST DUP2 EQ PUSH2 0x1A9B JUMPI PUSH1 0x0 DUP1 REVERT JUMPDEST POP JUMP JUMPDEST PUSH1 0x0 DUP2 CALLDATALOAD SWAP1 POP PUSH2 0x1AAD DUP2 PUSH2 0x1A87 JUMP JUMPDEST SWAP3 SWAP2 POP POP JUMP JUMPDEST PUSH1 0x0 DUP1 PUSH1 0x40 DUP4 DUP6 SUB SLT ISZERO PUSH2 0x1ACA JUMPI PUSH2 0x1AC9 PUSH2 0x17D1 JUMP JUMPDEST JUMPDEST PUSH1 0x0 PUSH2 0x1AD8 DUP6 DUP3 DUP7 ADD PUSH2 0x17FC JUMP JUMPDEST SWAP3 POP POP PUSH1 0x20 PUSH2 0x1AE9 DUP6 DUP3 DUP7 ADD PUSH2 0x1A9E JUMP JUMPDEST SWAP2 POP POP SWAP3 POP SWAP3 SWAP1 POP JUMP JUMPDEST PUSH2 0x1AFC DUP2 PUSH2 0x185E JUMP JUMPDEST DUP2 EQ PUSH2 0x1B07 JUMPI PUSH1 0x0 DUP1 REVERT JUMPDEST POP JUMP JUMPDEST PUSH1 0x0 DUP2 CALLDATALOAD SWAP1 POP PUSH2 0x1B19 DUP2 PUSH2 0x1AF3 JUMP JUMPDEST SWAP3 SWAP2 POP POP JUMP JUMPDEST PUSH1 0x0 PUSH1 0x20 DUP3 DUP5 SUB SLT ISZERO PUSH2 0x1B35 JUMPI PUSH2 0x1B34 PUSH2 0x17D1 JUMP JUMPDEST JUMPDEST PUSH1 0x0 PUSH2 0x1B43 DUP5 DUP3 DUP6 ADD PUSH2 0x1B0A JUMP JUMPDEST SWAP2 POP POP SWAP3 SWAP2 POP POP JUMP JUMPDEST PUSH1 0x0 PUSH1 0x20 DUP3 ADD SWAP1 POP PUSH2 0x1B61 PUSH1 0x0 DUP4 ADD DUP5 PUSH2 0x1870 JUMP JUMPDEST SWAP3 SWAP2 POP POP JUMP JUMPDEST PUSH1 0x0 DUP1 REVERT JUMPDEST PUSH32 0x4E487B7100000000000000000000000000000000000000000000000000000000 PUSH1 0x0 MSTORE PUSH1 0x41 PUSH1 0x4 MSTORE PUSH1 0x24 PUSH1 0x0 REVERT JUMPDEST PUSH2 0x1BA4 DUP3 PUSH2 0x18EF JUMP JUMPDEST DUP2 ADD DUP2 DUP2 LT PUSH8 0xFFFFFFFFFFFFFFFF DUP3 GT OR ISZERO PUSH2 0x1BC3 JUMPI PUSH2 0x1BC2 PUSH2 0x1B6C JUMP JUMPDEST JUMPDEST DUP1 PUSH1 0x40 MSTORE POP POP POP JUMP JUMPDEST PUSH1 0x0 PUSH2 0x1BD6 PUSH2 0x17C7 JUMP JUMPDEST SWAP1 POP PUSH2 0x1BE2 DUP3 DUP3 PUSH2 0x1B9B JUMP JUMPDEST SWAP2 SWAP1 POP JUMP JUMPDEST PUSH1 0x0 PUSH8 0xFFFFFFFFFFFFFFFF DUP3 GT ISZERO PUSH2 0x1C02 JUMPI PUSH2 0x1C01 PUSH2 0x1B6C JUMP JUMPDEST JUMPDEST PUSH1 0x20 DUP3 MUL SWAP1 POP PUSH1 0x20 DUP2 ADD SWAP1 POP SWAP2 SWAP1 POP JUMP JUMPDEST PUSH1 0x0 DUP1 REVERT JUMPDEST PUSH1 0x0 PUSH2 0x1C2B PUSH2 0x1C26 DUP5 PUSH2 0x1BE7 JUMP JUMPDEST PUSH2 0x1BCC JUMP JUMPDEST SWAP1 POP DUP1 DUP4 DUP3 MSTORE PUSH1 0x20 DUP3 ADD SWAP1 POP PUSH1 0x20 DUP5 MUL DUP4 ADD DUP6 DUP2 GT ISZERO PUSH2 0x1C4E JUMPI PUSH2 0x1C4D PUSH2 0x1C13 JUMP JUMPDEST JUMPDEST DUP4 JUMPDEST DUP2 DUP2 LT ISZERO PUSH2 0x1C77 JUMPI DUP1 PUSH2 0x1C63 DUP9 DUP3 PUSH2 0x1B0A JUMP JUMPDEST DUP5 MSTORE PUSH1 0x20 DUP5 ADD SWAP4 POP POP PUSH1 0x20 DUP2 ADD SWAP1 POP PUSH2 0x1C50 JUMP JUMPDEST POP POP POP SWAP4 SWAP3 POP POP POP JUMP JUMPDEST PUSH1 0x0 DUP3 PUSH1 0x1F DUP4 ADD SLT PUSH2 0x1C96 JUMPI PUSH2 0x1C95 PUSH2 0x1B67 JUMP JUMPDEST JUMPDEST DUP2 CALLDATALOAD PUSH2 0x1CA6 DUP5 DUP3 PUSH1 0x20 DUP7 ADD PUSH2 0x1C18 JUMP JUMPDEST SWAP2 POP POP SWAP3 SWAP2 POP POP JUMP JUMPDEST PUSH1 0x0 PUSH8 0xFFFFFFFFFFFFFFFF DUP3 GT ISZERO PUSH2 0x1CCA JUMPI PUSH2 0x1CC9 PUSH2 0x1B6C JUMP JUMPDEST JUMPDEST PUSH1 0x20 DUP3 MUL SWAP1 POP PUSH1 0x20 DUP2 ADD SWAP1 POP SWAP2 SWAP1 POP JUMP JUMPDEST PUSH1 0x0 PUSH2 0x1CEE PUSH2 0x1CE9 DUP5 PUSH2 0x1CAF JUMP JUMPDEST PUSH2 0x1BCC JUMP JUMPDEST SWAP1 POP DUP1 DUP4 DUP3 MSTORE PUSH1 0x20 DUP3 ADD SWAP1 POP PUSH1 0x20 DUP5 MUL DUP4 ADD DUP6 DUP2 GT ISZERO PUSH2 0x1D11 JUMPI PUSH2 0x1D10 PUSH2 0x1C13 JUMP JUMPDEST JUMPDEST DUP4 JUMPDEST DUP2 DUP2 LT ISZERO PUSH2 0x1D3A JUMPI DUP1 PUSH2 0x1D26 DUP9 DUP3 PUSH2 0x17FC JUMP JUMPDEST DUP5 MSTORE PUSH1 0x20 DUP5 ADD SWAP4 POP POP PUSH1 0x20 DUP2 ADD SWAP1 POP PUSH2 0x1D13 JUMP JUMPDEST POP POP POP SWAP4 SWAP3 POP POP POP JUMP JUMPDEST PUSH1 0x0 DUP3 PUSH1 0x1F DUP4 ADD SLT PUSH2 0x1D59 JUMPI PUSH2 0x1D58 PUSH2 0x1B67 JUMP JUMPDEST JUMPDEST DUP2 CALLDATALOAD PUSH2 0x1D69 DUP5 DUP3 PUSH1 0x20 DUP7 ADD PUSH2 0x1CDB JUMP JUMPDEST SWAP2 POP POP SWAP3 SWAP2 POP POP JUMP JUMPDEST PUSH1 0x0 PUSH8 0xFFFFFFFFFFFFFFFF DUP3 GT ISZERO PUSH2 0x1D8D JUMPI PUSH2 0x1D8C PUSH2 0x1B6C JUMP JUMPDEST JUMPDEST PUSH1 0x20 DUP3 MUL SWAP1 POP PUSH1 0x20 DUP2 ADD SWAP1 POP SWAP2 SWAP1 POP JUMP JUMPDEST PUSH1 0x0 DUP1 REVERT JUMPDEST PUSH1 0x0 PUSH8 0xFFFFFFFFFFFFFFFF DUP3 GT ISZERO PUSH2 0x1DBE JUMPI PUSH2 0x1DBD PUSH2 0x1B6C JUMP JUMPDEST JUMPDEST PUSH2 0x1DC7 DUP3 PUSH2 0x18EF JUMP JUMPDEST SWAP1 POP PUSH1 0x20 DUP2 ADD SWAP1 POP SWAP2 SWAP1 POP JUMP JUMPDEST DUP3 DUP2 DUP4 CALLDATACOPY PUSH1 0x0 DUP4 DUP4 ADD MSTORE POP POP POP JUMP JUMPDEST PUSH1 0x0 PUSH2 0x1DF6 PUSH2 0x1DF1 DUP5 PUSH2 0x1DA3 JUMP JUMPDEST PUSH2 0x1BCC JUMP JUMPDEST SWAP1 POP DUP3 DUP2 MSTORE PUSH1 0x20 DUP2 ADD DUP5 DUP5 DUP5 ADD GT ISZERO PUSH2 0x1E12 JUMPI PUSH2 0x1E11 PUSH2 0x1D9E JUMP JUMPDEST JUMPDEST PUSH2 0x1E1D DUP5 DUP3 DUP6 PUSH2 0x1DD4 JUMP JUMPDEST POP SWAP4 SWAP3 POP POP POP JUMP JUMPDEST PUSH1 0x0 DUP3 PUSH1 0x1F DUP4 ADD SLT PUSH2 0x1E3A JUMPI PUSH2 0x1E39 PUSH2 0x1B67 JUMP JUMPDEST JUMPDEST DUP2 CALLDATALOAD PUSH2 0x1E4A DUP5 DUP3 PUSH1 0x20 DUP7 ADD PUSH2 0x1DE3 JUMP JUMPDEST SWAP2 POP POP SWAP3 SWAP2 POP POP JUMP JUMPDEST PUSH1 0x0 PUSH2 0x1E66 PUSH2 0x1E61 DUP5 PUSH2 0x1D72 JUMP JUMPDEST PUSH2 0x1BCC JUMP JUMPDEST SWAP1 POP DUP1 DUP4 DUP3 MSTORE PUSH1 0x20 DUP3 ADD SWAP1 POP PUSH1 0x20 DUP5 MUL DUP4 ADD DUP6 DUP2 GT ISZERO PUSH2 0x1E89 JUMPI PUSH2 0x1E88 PUSH2 0x1C13 JUMP JUMPDEST JUMPDEST DUP4 JUMPDEST DUP2 DUP2 LT ISZERO PUSH2 0x1ED0 JUMPI DUP1 CALLDATALOAD PUSH8 0xFFFFFFFFFFFFFFFF DUP2 GT ISZERO PUSH2 0x1EAE JUMPI PUSH2 0x1EAD PUSH2 0x1B67 JUMP JUMPDEST JUMPDEST DUP1 DUP7 ADD PUSH2 0x1EBB DUP10 DUP3 PUSH2 0x1E25 JUMP JUMPDEST DUP6 MSTORE PUSH1 0x20 DUP6 ADD SWAP5 POP POP POP PUSH1 0x20 DUP2 ADD SWAP1 POP PUSH2 0x1E8B JUMP JUMPDEST POP POP POP SWAP4 SWAP3 POP POP POP JUMP JUMPDEST PUSH1 0x0 DUP3 PUSH1 0x1F DUP4 ADD SLT PUSH2 0x1EEF JUMPI PUSH2 0x1EEE PUSH2 0x1B67 JUMP JUMPDEST JUMPDEST DUP2 CALLDATALOAD PUSH2 0x1EFF DUP5 DUP3 PUSH1 0x20 DUP7 ADD PUSH2 0x1E53 JUMP JUMPDEST SWAP2 POP POP SWAP3 SWAP2 POP POP JUMP JUMPDEST PUSH1 0x0 PUSH8 0xFFFFFFFFFFFFFFFF DUP3 GT ISZERO PUSH2 0x1F23 JUMPI PUSH2 0x1F22 PUSH2 0x1B6C JUMP JUMPDEST JUMPDEST PUSH2 0x1F2C DUP3 PUSH2 0x18EF JUMP JUMPDEST SWAP1 POP PUSH1 0x20 DUP2 ADD SWAP1 POP SWAP2 SWAP1 POP JUMP JUMPDEST PUSH1 0x0 PUSH2 0x1F4C PUSH2 0x1F47 DUP5 PUSH2 0x1F08 JUMP JUMPDEST PUSH2 0x1BCC JUMP JUMPDEST SWAP1 POP DUP3 DUP2 MSTORE PUSH1 0x20 DUP2 ADD DUP5 DUP5 DUP5 ADD GT ISZERO PUSH2 0x1F68 JUMPI PUSH2 0x1F67 PUSH2 0x1D9E JUMP JUMPDEST JUMPDEST PUSH2 0x1F73 DUP5 DUP3 DUP6 PUSH2 0x1DD4 JUMP JUMPDEST POP SWAP4 SWAP3 POP POP POP JUMP JUMPDEST PUSH1 0x0 DUP3 PUSH1 0x1F DUP4 ADD SLT PUSH2 0x1F90 JUMPI PUSH2 0x1F8F PUSH2 0x1B67 JUMP JUMPDEST JUMPDEST DUP2 CALLDATALOAD PUSH2 0x1FA0 DUP5 DUP3 PUSH1 0x20 DUP7 ADD PUSH2 0x1F39 JUMP JUMPDEST SWAP2 POP POP SWAP3 SWAP2 POP POP JUMP JUMPDEST PUSH1 0x0 DUP1 PUSH1 0x0 DUP1 PUSH1 0x80 DUP6 DUP8 SUB SLT ISZERO PUSH2 0x1FC3 JUMPI PUSH2 0x1FC2 PUSH2 0x17D1 JUMP JUMPDEST JUMPDEST PUSH1 0x0 DUP6 ADD CALLDATALOAD PUSH8 0xFFFFFFFFFFFFFFFF DUP2 GT ISZERO PUSH2 0x1FE1 JUMPI PUSH2 0x1FE0 PUSH2 0x17D6 JUMP JUMPDEST JUMPDEST PUSH2 0x1FED DUP8 DUP3 DUP9 ADD PUSH2 0x1C81 JUMP JUMPDEST SWAP5 POP POP PUSH1 0x20 DUP6 ADD CALLDATALOAD PUSH8 0xFFFFFFFFFFFFFFFF DUP2 GT ISZERO PUSH2 0x200E JUMPI PUSH2 0x200D PUSH2 0x17D6 JUMP JUMPDEST JUMPDEST PUSH2 0x201A DUP8 DUP3 DUP9 ADD PUSH2 0x1D44 JUMP JUMPDEST SWAP4 POP POP PUSH1 0x40 DUP6 ADD CALLDATALOAD PUSH8 0xFFFFFFFFFFFFFFFF DUP2 GT ISZERO PUSH2 0x203B JUMPI PUSH2 0x203A PUSH2 0x17D6 JUMP JUMPDEST JUMPDEST PUSH2 0x2047 DUP8 DUP3 DUP9 ADD PUSH2 0x1EDA JUMP JUMPDEST SWAP3 POP POP PUSH1 0x60 DUP6 ADD CALLDATALOAD PUSH8 0xFFFFFFFFFFFFFFFF DUP2 GT ISZERO PUSH2 0x2068 JUMPI PUSH2 0x2067 PUSH2 0x17D6 JUMP JUMPDEST JUMPDEST PUSH2 0x2074 DUP8 DUP3 DUP9 ADD PUSH2 0x1F7B JUMP JUMPDEST SWAP2 POP POP SWAP3 SWAP6 SWAP2 SWAP5 POP SWAP3 POP JUMP JUMPDEST PUSH1 0x0 PUSH1 0x20 DUP3 ADD SWAP1 POP PUSH2 0x2095 PUSH1 0x0 DUP4 ADD DUP5 PUSH2 0x189A JUMP JUMPDEST SWAP3 SWAP2 POP POP JUMP JUMPDEST PUSH1 0x0 DUP2 SWAP1 POP SWAP2 SWAP1 POP JUMP JUMPDEST PUSH2 0x20AE DUP2 PUSH2 0x209B JUMP JUMPDEST DUP2 EQ PUSH2 0x20B9 JUMPI PUSH1 0x0 DUP1 REVERT JUMPDEST POP JUMP JUMPDEST PUSH1 0x0 DUP2 CALLDATALOAD SWAP1 POP PUSH2 0x20CB DUP2 PUSH2 0x20A5 JUMP JUMPDEST SWAP3 SWAP2 POP POP JUMP JUMPDEST PUSH1 0x0 DUP1 PUSH1 0x0 DUP1 PUSH1 0x80 DUP6 DUP8 SUB SLT ISZERO PUSH2 0x20EB JUMPI PUSH2 0x20EA PUSH2 0x17D1 JUMP JUMPDEST JUMPDEST PUSH1 0x0 DUP6 ADD CALLDATALOAD PUSH8 0xFFFFFFFFFFFFFFFF DUP2 GT ISZERO PUSH2 0x2109 JUMPI PUSH2 0x2108 PUSH2 0x17D6 JUMP JUMPDEST JUMPDEST PUSH2 0x2115 DUP8 DUP3 DUP9 ADD PUSH2 0x1C81 JUMP JUMPDEST SWAP5 POP POP PUSH1 0x20 DUP6 ADD CALLDATALOAD PUSH8 0xFFFFFFFFFFFFFFFF DUP2 GT ISZERO PUSH2 0x2136 JUMPI PUSH2 0x2135 PUSH2 0x17D6 JUMP JUMPDEST JUMPDEST PUSH2 0x2142 DUP8 DUP3 DUP9 ADD PUSH2 0x1D44 JUMP JUMPDEST SWAP4 POP POP PUSH1 0x40 DUP6 ADD CALLDATALOAD PUSH8 0xFFFFFFFFFFFFFFFF DUP2 GT ISZERO PUSH2 0x2163 JUMPI PUSH2 0x2162 PUSH2 0x17D6 JUMP JUMPDEST JUMPDEST PUSH2 0x216F DUP8 DUP3 DUP9 ADD PUSH2 0x1EDA JUMP JUMPDEST SWAP3 POP POP PUSH1 0x60 PUSH2 0x2180 DUP8 DUP3 DUP9 ADD PUSH2 0x20BC JUMP JUMPDEST SWAP2 POP POP SWAP3 SWAP6 SWAP2 SWAP5 POP SWAP3 POP JUMP JUMPDEST PUSH1 0x0 DUP2 SWAP1 POP SWAP2 SWAP1 POP JUMP JUMPDEST PUSH1 0x0 PUSH2 0x21B1 PUSH2 0x21AC PUSH2 0x21A7 DUP5 PUSH2 0x183E JUMP JUMPDEST PUSH2 0x218C JUMP JUMPDEST PUSH2 0x183E JUMP JUMPDEST SWAP1 POP SWAP2 SWAP1 POP JUMP JUMPDEST PUSH1 0x0 PUSH2 0x21C3 DUP3 PUSH2 0x2196 JUMP JUMPDEST SWAP1 POP SWAP2 SWAP1 POP JUMP JUMPDEST PUSH1 0x0 PUSH2 0x21D5 DUP3 PUSH2 0x21B8 JUMP JUMPDEST SWAP1 POP SWAP2 SWAP1 POP JUMP JUMPDEST PUSH2 0x21E5 DUP2 PUSH2 0x21CA JUMP JUMPDEST DUP3 MSTORE POP POP JUMP JUMPDEST PUSH1 0x0 PUSH1 0x20 DUP3 ADD SWAP1 POP PUSH2 0x2200 PUSH1 0x0 DUP4 ADD DUP5 PUSH2 0x21DC JUMP JUMPDEST SWAP3 SWAP2 POP POP JUMP JUMPDEST PUSH32 0x4E487B7100000000000000000000000000000000000000000000000000000000 PUSH1 0x0 MSTORE PUSH1 0x22 PUSH1 0x4 MSTORE PUSH1 0x24 PUSH1 0x0 REVERT JUMPDEST PUSH1 0x0 PUSH1 0x2 DUP3 DIV SWAP1 POP PUSH1 0x1 DUP3 AND DUP1 PUSH2 0x224D JUMPI PUSH1 0x7F DUP3 AND SWAP2 POP JUMPDEST PUSH1 0x20 DUP3 LT DUP2 SUB PUSH2 0x2260 JUMPI PUSH2 0x225F PUSH2 0x2206 JUMP JUMPDEST JUMPDEST POP SWAP2 SWAP1 POP JUMP JUMPDEST PUSH32 0x50726F706F73616C2063616E6E6F742062652065786563757465640000000000 PUSH1 0x0 DUP3 ADD MSTORE POP JUMP JUMPDEST PUSH1 0x0 PUSH2 0x229C PUSH1 0x1B DUP4 PUSH2 0x18B4 JUMP JUMPDEST SWAP2 POP PUSH2 0x22A7 DUP3 PUSH2 0x2266 JUMP JUMPDEST PUSH1 0x20 DUP3 ADD SWAP1 POP SWAP2 SWAP1 POP JUMP JUMPDEST PUSH1 0x0 PUSH1 0x20 DUP3 ADD SWAP1 POP DUP2 DUP2 SUB PUSH1 0x0 DUP4 ADD MSTORE PUSH2 0x22CB DUP2 PUSH2 0x228F JUMP JUMPDEST SWAP1 POP SWAP2 SWAP1 POP JUMP JUMPDEST PUSH32 0x4E487B7100000000000000000000000000000000000000000000000000000000 PUSH1 0x0 MSTORE PUSH1 0x32 PUSH1 0x4 MSTORE PUSH1 0x24 PUSH1 0x0 REVERT JUMPDEST PUSH1 0x0 DUP2 SWAP1 POP SWAP3 SWAP2 POP POP JUMP JUMPDEST PUSH1 0x0 DUP2 SWAP1 POP DUP2 PUSH1 0x0 MSTORE PUSH1 0x20 PUSH1 0x0 KECCAK256 SWAP1 POP SWAP2 SWAP1 POP JUMP JUMPDEST PUSH1 0x0 DUP2 SLOAD PUSH2 0x232E DUP2 PUSH2 0x2235 JUMP JUMPDEST PUSH2 0x2338 DUP2 DUP7 PUSH2 0x2301 JUMP JUMPDEST SWAP5 POP PUSH1 0x1 DUP3 AND PUSH1 0x0 DUP2 EQ PUSH2 0x2353 JUMPI PUSH1 0x1 DUP2 EQ PUSH2 0x2368 JUMPI PUSH2 0x239B JUMP JUMPDEST PUSH1 0xFF NOT DUP4 AND DUP7 MSTORE DUP2 ISZERO ISZERO DUP3 MUL DUP7 ADD SWAP4 POP PUSH2 0x239B JUMP JUMPDEST PUSH2 0x2371 DUP6 PUSH2 0x230C JUMP JUMPDEST PUSH1 0x0 JUMPDEST DUP4 DUP2 LT ISZERO PUSH2 0x2393 JUMPI DUP2 SLOAD DUP2 DUP10 ADD MSTORE PUSH1 0x1 DUP3 ADD SWAP2 POP PUSH1 0x20 DUP2 ADD SWAP1 POP PUSH2 0x2374 JUMP JUMPDEST DUP4 DUP9 ADD SWAP6 POP POP POP JUMPDEST POP POP POP SWAP3 SWAP2 POP POP JUMP JUMPDEST PUSH1 0x0 PUSH2 0x23B0 DUP3 DUP5 PUSH2 0x2321 JUMP JUMPDEST SWAP2 POP DUP2 SWAP1 POP SWAP3 SWAP2 POP POP JUMP JUMPDEST PUSH32 0x50726F706F73616C20657865637574696F6E206661696C656400000000000000 PUSH1 0x0 DUP3 ADD MSTORE POP JUMP JUMPDEST PUSH1 0x0 PUSH2 0x23F1 PUSH1 0x19 DUP4 PUSH2 0x18B4 JUMP JUMPDEST SWAP2 POP PUSH2 0x23FC DUP3 PUSH2 0x23BB JUMP JUMPDEST PUSH1 0x20 DUP3 ADD SWAP1 POP SWAP2 SWAP1 POP JUMP JUMPDEST PUSH1 0x0 PUSH1 0x20 DUP3 ADD SWAP1 POP DUP2 DUP2 SUB PUSH1 0x0 DUP4 ADD MSTORE PUSH2 0x2420 DUP2 PUSH2 0x23E4 JUMP JUMPDEST SWAP1 POP SWAP2 SWAP1 POP JUMP JUMPDEST PUSH32 0x496E76616C69642071756F72756D2070657263656E7461676500000000000000 PUSH1 0x0 DUP3 ADD MSTORE POP JUMP JUMPDEST PUSH1 0x0 PUSH2 0x245D PUSH1 0x19 DUP4 PUSH2 0x18B4 JUMP JUMPDEST SWAP2 POP PUSH2 0x2468 DUP3 PUSH2 0x2427 JUMP JUMPDEST PUSH1 0x20 DUP3 ADD SWAP1 POP SWAP2 SWAP1 POP JUMP JUMPDEST PUSH1 0x0 PUSH1 0x20 DUP3 ADD SWAP1 POP DUP2 DUP2 SUB PUSH1 0x0 DUP4 ADD MSTORE PUSH2 0x248C DUP2 PUSH2 0x2450 JUMP JUMPDEST SWAP1 POP SWAP2 SWAP1 POP JUMP JUMPDEST PUSH1 0x0 PUSH1 0x40 DUP3 ADD SWAP1 POP PUSH2 0x24A8 PUSH1 0x0 DUP4 ADD DUP6 PUSH2 0x187F JUMP JUMPDEST PUSH2 0x24B5 PUSH1 0x20 DUP4 ADD DUP5 PUSH2 0x187F JUMP JUMPDEST SWAP4 SWAP3 POP POP POP JUMP JUMPDEST PUSH32 0x50726F706F73616C20646F6573206E6F74206578697374000000000000000000 PUSH1 0x0 DUP3 ADD MSTORE POP JUMP JUMPDEST PUSH1 0x0 PUSH2 0x24F2 PUSH1 0x17 DUP4 PUSH2 0x18B4 JUMP JUMPDEST SWAP2 POP PUSH2 0x24FD DUP3 PUSH2 0x24BC JUMP JUMPDEST PUSH1 0x20 DUP3 ADD SWAP1 POP SWAP2 SWAP1 POP JUMP JUMPDEST PUSH1 0x0 PUSH1 0x20 DUP3 ADD SWAP1 POP DUP2 DUP2 SUB PUSH1 0x0 DUP4 ADD MSTORE PUSH2 0x2521 DUP2 PUSH2 0x24E5 JUMP JUMPDEST SWAP1 POP SWAP2 SWAP1 POP JUMP JUMPDEST PUSH32 0x566F74696E67206973206E6F7420616374697665000000000000000000000000 PUSH1 0x0 DUP3 ADD MSTORE POP JUMP JUMPDEST PUSH1 0x0 PUSH2 0x255E PUSH1 0x14 DUP4 PUSH2 0x18B4 JUMP JUMPDEST SWAP2 POP PUSH2 0x2569 DUP3 PUSH2 0x2528 JUMP JUMPDEST PUSH1 0x20 DUP3 ADD SWAP1 POP SWAP2 SWAP1 POP JUMP JUMPDEST PUSH1 0x0 PUSH1 0x20 DUP3 ADD SWAP1 POP DUP2 DUP2 SUB PUSH1 0x0 DUP4 ADD MSTORE PUSH2 0x258D DUP2 PUSH2 0x2551 JUMP JUMPDEST SWAP1 POP SWAP2 SWAP1 POP JUMP JUMPDEST PUSH32 0x496E76616C696420766F74652074797065000000000000000000000000000000 PUSH1 0x0 DUP3 ADD MSTORE POP JUMP JUMPDEST PUSH1 0x0 PUSH2 0x25CA PUSH1 0x11 DUP4 PUSH2 0x18B4 JUMP JUMPDEST SWAP2 POP PUSH2 0x25D5 DUP3 PUSH2 0x2594 JUMP JUMPDEST PUSH1 0x20 DUP3 ADD SWAP1 POP SWAP2 SWAP1 POP JUMP JUMPDEST PUSH1 0x0 PUSH1 0x20 DUP3 ADD SWAP1 POP DUP2 DUP2 SUB PUSH1 0x0 DUP4 ADD MSTORE PUSH2 0x25F9 DUP2 PUSH2 0x25BD JUMP JUMPDEST SWAP1 POP SWAP2 SWAP1 POP JUMP JUMPDEST PUSH32 0x416C726561647920766F74656400000000000000000000000000000000000000 PUSH1 0x0 DUP3 ADD MSTORE POP JUMP JUMPDEST PUSH1 0x0 PUSH2 0x2636 PUSH1 0xD DUP4 PUSH2 0x18B4 JUMP JUMPDEST SWAP2 POP PUSH2 0x2641 DUP3 PUSH2 0x2600 JUMP JUMPDEST PUSH1 0x20 DUP3 ADD SWAP1 POP SWAP2 SWAP1 POP JUMP JUMPDEST PUSH1 0x0 PUSH1 0x20 DUP3 ADD SWAP1 POP DUP2 DUP2 SUB PUSH1 0x0 DUP4 ADD MSTORE PUSH2 0x2665 DUP2 PUSH2 0x2629 JUMP JUMPDEST SWAP1 POP SWAP2 SWAP1 POP JUMP JUMPDEST PUSH32 0x4E487B7100000000000000000000000000000000000000000000000000000000 PUSH1 0x0 MSTORE PUSH1 0x11 PUSH1 0x4 MSTORE PUSH1 0x24 PUSH1 0x0 REVERT JUMPDEST PUSH1 0x0 PUSH2 0x26A6 DUP3 PUSH2 0x17DB JUMP JUMPDEST SWAP2 POP PUSH2 0x26B1 DUP4 PUSH2 0x17DB JUMP JUMPDEST SWAP3 POP DUP3 DUP3 ADD SWAP1 POP DUP1 DUP3 GT ISZERO PUSH2 0x26C9 JUMPI PUSH2 0x26C8 PUSH2 0x266C JUMP JUMPDEST JUMPDEST SWAP3 SWAP2 POP POP JUMP JUMPDEST PUSH2 0x26D8 DUP2 PUSH2 0x1A7A JUMP JUMPDEST DUP3 MSTORE POP POP JUMP JUMPDEST PUSH1 0x0 PUSH1 0x40 DUP3 ADD SWAP1 POP PUSH2 0x26F3 PUSH1 0x0 DUP4 ADD DUP6 PUSH2 0x26CF JUMP JUMPDEST PUSH2 0x2700 PUSH1 0x20 DUP4 ADD DUP5 PUSH2 0x187F JUMP JUMPDEST SWAP4 SWAP3 POP POP POP JUMP JUMPDEST PUSH32 0x50726F706F73657220766F7465732062656C6F77207468726573686F6C640000 PUSH1 0x0 DUP3 ADD MSTORE POP JUMP JUMPDEST PUSH1 0x0 PUSH2 0x273D PUSH1 0x1E DUP4 PUSH2 0x18B4 JUMP JUMPDEST SWAP2 POP PUSH2 0x2748 DUP3 PUSH2 0x2707 JUMP JUMPDEST PUSH1 0x20 DUP3 ADD SWAP1 POP SWAP2 SWAP1 POP JUMP JUMPDEST PUSH1 0x0 PUSH1 0x20 DUP3 ADD SWAP1 POP DUP2 DUP2 SUB PUSH1 0x0 DUP4 ADD MSTORE PUSH2 0x276C DUP2 PUSH2 0x2730 JUMP JUMPDEST SWAP1 POP SWAP2 SWAP1 POP JUMP JUMPDEST PUSH32 0x496E76616C69642070726F706F73616C206C656E677468000000000000000000 PUSH1 0x0 DUP3 ADD MSTORE POP JUMP JUMPDEST PUSH1 0x0 PUSH2 0x27A9 PUSH1 0x17 DUP4 PUSH2 0x18B4 JUMP JUMPDEST SWAP2 POP PUSH2 0x27B4 DUP3 PUSH2 0x2773 JUMP JUMPDEST PUSH1 0x20 DUP3 ADD SWAP1 POP SWAP2 SWAP1 POP JUMP JUMPDEST PUSH1 0x0 PUSH1 0x20 DUP3 ADD SWAP1 POP DUP2 DUP2 SUB PUSH1 0x0 DUP4 ADD MSTORE PUSH2 0x27D8 DUP2 PUSH2 0x279C JUMP JUMPDEST SWAP1 POP SWAP2 SWAP1 POP JUMP JUMPDEST PUSH32 0x50726F706F73616C20616C726561647920657869737473000000000000000000 PUSH1 0x0 DUP3 ADD MSTORE POP JUMP JUMPDEST PUSH1 0x0 PUSH2 0x2815 PUSH1 0x17 DUP4 PUSH2 0x18B4 JUMP JUMPDEST SWAP2 POP PUSH2 0x2820 DUP3 PUSH2 0x27DF JUMP JUMPDEST PUSH1 0x20 DUP3 ADD SWAP1 POP SWAP2 SWAP1 POP JUMP JUMPDEST PUSH1 0x0 PUSH1 0x20 DUP3 ADD SWAP1 POP DUP2 DUP2 SUB PUSH1 0x0 DUP4 ADD MSTORE PUSH2 0x2844 DUP2 PUSH2 0x2808 JUMP JUMPDEST SWAP1 POP SWAP2 SWAP1 POP JUMP JUMPDEST PUSH1 0x0 DUP2 SWAP1 POP DUP2 PUSH1 0x0 MSTORE PUSH1 0x20 PUSH1 0x0 KECCAK256 SWAP1 POP SWAP2 SWAP1 POP JUMP JUMPDEST PUSH1 0x0 PUSH1 0x20 PUSH1 0x1F DUP4 ADD DIV SWAP1 POP SWAP2 SWAP1 POP JUMP JUMPDEST PUSH1 0x0 DUP3 DUP3 SHL SWAP1 POP SWAP3 SWAP2 POP POP JUMP JUMPDEST PUSH1 0x0 PUSH1 0x8 DUP4 MUL PUSH2 0x28AD PUSH32 0xFFFFFFFFFFFFFFFFFFFFFFFFFFFFFFFFFFFFFFFFFFFFFFFFFFFFFFFFFFFFFFFF DUP3 PUSH2 0x2870 JUMP JUMPDEST PUSH2 0x28B7 DUP7 DUP4 PUSH2 0x2870 JUMP JUMPDEST SWAP6 POP DUP1 NOT DUP5 AND SWAP4 POP DUP1 DUP7 AND DUP5 OR SWAP3 POP POP POP SWAP4 SWAP3 POP POP POP JUMP JUMPDEST PUSH1 0x0 PUSH2 0x28EA PUSH2 0x28E5 PUSH2 0x28E0 DUP5 PUSH2 0x17DB JUMP JUMPDEST PUSH2 0x218C JUMP JUMPDEST PUSH2 0x17DB JUMP JUMPDEST SWAP1 POP SWAP2 SWAP1 POP JUMP JUMPDEST PUSH1 0x0 DUP2 SWAP1 POP SWAP2 SWAP1 POP JUMP JUMPDEST PUSH2 0x2904 DUP4 PUSH2 0x28CF JUMP JUMPDEST PUSH2 0x2918 PUSH2 0x2910 DUP3 PUSH2 0x28F1 JUMP JUMPDEST DUP5 DUP5 SLOAD PUSH2 0x287D JUMP JUMPDEST DUP3 SSTORE POP POP POP POP JUMP JUMPDEST PUSH1 0x0 SWAP1 JUMP JUMPDEST PUSH2 0x292D PUSH2 0x2920 JUMP JUMPDEST PUSH2 0x2938 DUP2 DUP5 DUP5 PUSH2 0x28FB JUMP JUMPDEST POP POP POP JUMP JUMPDEST JUMPDEST DUP2 DUP2 LT ISZERO PUSH2 0x295C JUMPI PUSH2 0x2951 PUSH1 0x0 DUP3 PUSH2 0x2925 JUMP JUMPDEST PUSH1 0x1 DUP2 ADD SWAP1 POP PUSH2 0x293E JUMP JUMPDEST POP POP JUMP JUMPDEST PUSH1 0x1F DUP3 GT ISZERO PUSH2 0x29A1 JUMPI PUSH2 0x2972 DUP2 PUSH2 0x284B JUMP JUMPDEST PUSH2 0x297B DUP5 PUSH2 0x2860 JUMP JUMPDEST DUP2 ADD PUSH1 0x20 DUP6 LT ISZERO PUSH2 0x298A JUMPI DUP2 SWAP1 POP JUMPDEST PUSH2 0x299E PUSH2 0x2996 DUP6 PUSH2 0x2860 JUMP JUMPDEST DUP4 ADD DUP3 PUSH2 0x293D JUMP JUMPDEST POP POP JUMPDEST POP POP POP JUMP JUMPDEST PUSH1 0x0 DUP3 DUP3 SHR SWAP1 POP SWAP3 SWAP2 POP POP JUMP JUMPDEST PUSH1 0x0 PUSH2 0x29C4 PUSH1 0x0 NOT DUP5 PUSH1 0x8 MUL PUSH2 0x29A6 JUMP JUMPDEST NOT DUP1 DUP4 AND SWAP2 POP POP SWAP3 SWAP2 POP POP JUMP JUMPDEST PUSH1 0x0 PUSH2 0x29DD DUP4 DUP4 PUSH2 0x29B3 JUMP JUMPDEST SWAP2 POP DUP3 PUSH1 0x2 MUL DUP3 OR SWAP1 POP SWAP3 SWAP2 POP POP JUMP JUMPDEST PUSH2 0x29F6 DUP3 PUSH2 0x18A9 JUMP JUMPDEST PUSH8 0xFFFFFFFFFFFFFFFF DUP2 GT ISZERO PUSH2 0x2A0F JUMPI PUSH2 0x2A0E PUSH2 0x1B6C JUMP JUMPDEST JUMPDEST PUSH2 0x2A19 DUP3 SLOAD PUSH2 0x2235 JUMP JUMPDEST PUSH2 0x2A24 DUP3 DUP3 DUP6 PUSH2 0x2960 JUMP JUMPDEST PUSH1 0x0 PUSH1 0x20 SWAP1 POP PUSH1 0x1F DUP4 GT PUSH1 0x1 DUP2 EQ PUSH2 0x2A57 JUMPI PUSH1 0x0 DUP5 ISZERO PUSH2 0x2A45 JUMPI DUP3 DUP8 ADD MLOAD SWAP1 POP JUMPDEST PUSH2 0x2A4F DUP6 DUP3 PUSH2 0x29D1 JUMP JUMPDEST DUP7 SSTORE POP PUSH2 0x2AB7 JUMP JUMPDEST PUSH1 0x1F NOT DUP5 AND PUSH2 0x2A65 DUP7 PUSH2 0x284B JUMP JUMPDEST PUSH1 0x0 JUMPDEST DUP3 DUP2 LT ISZERO PUSH2 0x2A8D JUMPI DUP5 DUP10 ADD MLOAD DUP3 SSTORE PUSH1 0x1 DUP3 ADD SWAP2 POP PUSH1 0x20 DUP6 ADD SWAP5 POP PUSH1 0x20 DUP2 ADD SWAP1 POP PUSH2 0x2A68 JUMP JUMPDEST DUP7 DUP4 LT ISZERO PUSH2 0x2AAA JUMPI DUP5 DUP10 ADD MLOAD PUSH2 0x2AA6 PUSH1 0x1F DUP10 AND DUP3 PUSH2 0x29B3 JUMP JUMPDEST DUP4 SSTORE POP JUMPDEST PUSH1 0x1 PUSH1 0x2 DUP9 MUL ADD DUP9 SSTORE POP POP POP JUMPDEST POP POP POP POP POP POP JUMP JUMPDEST PUSH1 0x0 DUP2 MLOAD SWAP1 POP SWAP2 SWAP1 POP JUMP JUMPDEST PUSH1 0x0 DUP3 DUP3 MSTORE PUSH1 0x20 DUP3 ADD SWAP1 POP SWAP3 SWAP2 POP POP JUMP JUMPDEST PUSH1 0x0 DUP2 SWAP1 POP PUSH1 0x20 DUP3 ADD SWAP1 POP SWAP2 SWAP1 POP JUMP JUMPDEST PUSH2 0x2AF4 DUP2 PUSH2 0x185E JUMP JUMPDEST DUP3 MSTORE POP POP JUMP JUMPDEST PUSH1 0x0 PUSH2 0x2B06 DUP4 DUP4 PUSH2 0x2AEB JUMP JUMPDEST PUSH1 0x20 DUP4 ADD SWAP1 POP SWAP3 SWAP2 POP POP JUMP JUMPDEST PUSH1 0x0 PUSH1 0x20 DUP3 ADD SWAP1 POP SWAP2 SWAP1 POP JUMP JUMPDEST PUSH1 0x0 PUSH2 0x2B2A DUP3 PUSH2 0x2ABF JUMP JUMPDEST PUSH2 0x2B34 DUP2 DUP6 PUSH2 0x2ACA JUMP JUMPDEST SWAP4 POP PUSH2 0x2B3F DUP4 PUSH2 0x2ADB JUMP JUMPDEST DUP1 PUSH1 0x0 JUMPDEST DUP4 DUP2 LT ISZERO PUSH2 0x2B70 JUMPI DUP2 MLOAD PUSH2 0x2B57 DUP9 DUP3 PUSH2 0x2AFA JUMP JUMPDEST SWAP8 POP PUSH2 0x2B62 DUP4 PUSH2 0x2B12 JUMP JUMPDEST SWAP3 POP POP PUSH1 0x1 DUP2 ADD SWAP1 POP PUSH2 0x2B43 JUMP JUMPDEST POP DUP6 SWAP4 POP POP POP POP SWAP3 SWAP2 POP POP JUMP JUMPDEST PUSH1 0x0 DUP2 MLOAD SWAP1 POP SWAP2 SWAP1 POP JUMP JUMPDEST PUSH1 0x0 DUP3 DUP3 MSTORE PUSH1 0x20 DUP3 ADD SWAP1 POP SWAP3 SWAP2 POP POP JUMP JUMPDEST PUSH1 0x0 DUP2 SWAP1 POP PUSH1 0x20 DUP3 ADD SWAP1 POP SWAP2 SWAP1 POP JUMP JUMPDEST PUSH2 0x2BB2 DUP2 PUSH2 0x17DB JUMP JUMPDEST DUP3 MSTORE POP POP JUMP JUMPDEST PUSH1 0x0 PUSH2 0x2BC4 DUP4 DUP4 PUSH2 0x2BA9 JUMP JUMPDEST PUSH1 0x20 DUP4 ADD SWAP1 POP SWAP3 SWAP2 POP POP JUMP JUMPDEST PUSH1 0x0 PUSH1 0x20 DUP3 ADD SWAP1 POP SWAP2 SWAP1 POP JUMP JUMPDEST PUSH1 0x0 PUSH2 0x2BE8 DUP3 PUSH2 0x2B7D JUMP JUMPDEST PUSH2 0x2BF2 DUP2 DUP6 PUSH2 0x2B88 JUMP JUMPDEST SWAP4 POP PUSH2 0x2BFD DUP4 PUSH2 0x2B99 JUMP JUMPDEST DUP1 PUSH1 0x0 JUMPDEST DUP4 DUP2 LT ISZERO PUSH2 0x2C2E JUMPI DUP2 MLOAD PUSH2 0x2C15 DUP9 DUP3 PUSH2 0x2BB8 JUMP JUMPDEST SWAP8 POP PUSH2 0x2C20 DUP4 PUSH2 0x2BD0 JUMP JUMPDEST SWAP3 POP POP PUSH1 0x1 DUP2 ADD SWAP1 POP PUSH2 0x2C01 JUMP JUMPDEST POP DUP6 SWAP4 POP POP POP POP SWAP3 SWAP2 POP POP JUMP JUMPDEST PUSH1 0x0 DUP2 MLOAD SWAP1 POP SWAP2 SWAP1 POP JUMP JUMPDEST PUSH1 0x0 DUP3 DUP3 MSTORE PUSH1 0x20 DUP3 ADD SWAP1 POP SWAP3 SWAP2 POP POP JUMP JUMPDEST PUSH1 0x0 DUP2 SWAP1 POP PUSH1 0x20 DUP3 ADD SWAP1 POP SWAP2 SWAP1 POP JUMP JUMPDEST PUSH1 0x0 DUP2 MLOAD SWAP1 POP SWAP2 SWAP1 POP JUMP JUMPDEST PUSH1 0x0 DUP3 DUP3 MSTORE PUSH1 0x20 DUP3 ADD SWAP1 POP SWAP3 SWAP2 POP POP JUMP JUMPDEST PUSH1 0x0 PUSH2 0x2C8E DUP3 PUSH2 0x2C67 JUMP JUMPDEST PUSH2 0x2C98 DUP2 DUP6 PUSH2 0x2C72 JUMP JUMPDEST SWAP4 POP PUSH2 0x2CA8 DUP2 DUP6 PUSH1 0x20 DUP7 ADD PUSH2 0x18C5 JUMP JUMPDEST PUSH2 0x2CB1 DUP2 PUSH2 0x18EF JUMP JUMPDEST DUP5 ADD SWAP2 POP POP SWAP3 SWAP2 POP POP JUMP JUMPDEST PUSH1 0x0 PUSH2 0x2CC8 DUP4 DUP4 PUSH2 0x2C83 JUMP JUMPDEST SWAP1 POP SWAP3 SWAP2 POP POP JUMP JUMPDEST PUSH1 0x0 PUSH1 0x20 DUP3 ADD SWAP1 POP SWAP2 SWAP1 POP JUMP JUMPDEST PUSH1 0x0 PUSH2 0x2CE8 DUP3 PUSH2 0x2C3B JUMP JUMPDEST PUSH2 0x2CF2 DUP2 DUP6 PUSH2 0x2C46 JUMP JUMPDEST SWAP4 POP DUP4 PUSH1 0x20 DUP3 MUL DUP6 ADD PUSH2 0x2D04 DUP6 PUSH2 0x2C57 JUMP JUMPDEST DUP1 PUSH1 0x0 JUMPDEST DUP6 DUP2 LT ISZERO PUSH2 0x2D40 JUMPI DUP5 DUP5 SUB DUP10 MSTORE DUP2 MLOAD PUSH2 0x2D21 DUP6 DUP3 PUSH2 0x2CBC JUMP JUMPDEST SWAP5 POP PUSH2 0x2D2C DUP4 PUSH2 0x2CD0 JUMP JUMPDEST SWAP3 POP PUSH1 0x20 DUP11 ADD SWAP10 POP POP PUSH1 0x1 DUP2 ADD SWAP1 POP PUSH2 0x2D08 JUMP JUMPDEST POP DUP3 SWAP8 POP DUP8 SWAP6 POP POP POP POP POP POP SWAP3 SWAP2 POP POP JUMP JUMPDEST PUSH1 0x0 PUSH1 0xE0 DUP3 ADD SWAP1 POP PUSH2 0x2D67 PUSH1 0x0 DUP4 ADD DUP11 PUSH2 0x1870 JUMP JUMPDEST DUP2 DUP2 SUB PUSH1 0x20 DUP4 ADD MSTORE PUSH2 0x2D79 DUP2 DUP10 PUSH2 0x2B1F JUMP JUMPDEST SWAP1 POP DUP2 DUP2 SUB PUSH1 0x40 DUP4 ADD MSTORE PUSH2 0x2D8D DUP2 DUP9 PUSH2 0x2BDD JUMP JUMPDEST SWAP1 POP DUP2 DUP2 SUB PUSH1 0x60 DUP4 ADD MSTORE PUSH2 0x2DA1 DUP2 DUP8 PUSH2 0x2CDD JUMP JUMPDEST SWAP1 POP PUSH2 0x2DB0 PUSH1 0x80 DUP4 ADD DUP7 PUSH2 0x187F JUMP JUMPDEST PUSH2 0x2DBD PUSH1 0xA0 DUP4 ADD DUP6 PUSH2 0x187F JUMP JUMPDEST DUP2 DUP2 SUB PUSH1 0xC0 DUP4 ADD MSTORE PUSH2 0x2DCF DUP2 DUP5 PUSH2 0x1900 JUMP JUMPDEST SWAP1 POP SWAP9 SWAP8 POP POP POP POP POP POP POP POP JUMP JUMPDEST PUSH1 0x0 DUP2 MLOAD SWAP1 POP PUSH2 0x2DEC DUP2 PUSH2 0x17E5 JUMP JUMPDEST SWAP3 SWAP2 POP POP JUMP JUMPDEST PUSH1 0x0 PUSH1 0x20 DUP3 DUP5 SUB SLT ISZERO PUSH2 0x2E08 JUMPI PUSH2 0x2E07 PUSH2 0x17D1 JUMP JUMPDEST JUMPDEST PUSH1 0x0 PUSH2 0x2E16 DUP5 DUP3 DUP6 ADD PUSH2 0x2DDD JUMP JUMPDEST SWAP2 POP POP SWAP3 SWAP2 POP POP JUMP JUMPDEST PUSH1 0x0 PUSH2 0x2E2A DUP3 PUSH2 0x17DB JUMP JUMPDEST SWAP2 POP PUSH2 0x2E35 DUP4 PUSH2 0x17DB JUMP JUMPDEST SWAP3 POP DUP3 DUP3 MUL PUSH2 0x2E43 DUP2 PUSH2 0x17DB JUMP JUMPDEST SWAP2 POP DUP3 DUP3 DIV DUP5 EQ DUP4 ISZERO OR PUSH2 0x2E5A JUMPI PUSH2 0x2E59 PUSH2 0x266C JUMP JUMPDEST JUMPDEST POP SWAP3 SWAP2 POP POP JUMP JUMPDEST PUSH2 0x2E6A DUP2 PUSH2 0x209B JUMP JUMPDEST DUP3 MSTORE POP POP JUMP JUMPDEST PUSH1 0x0 PUSH1 0x80 DUP3 ADD SWAP1 POP DUP2 DUP2 SUB PUSH1 0x0 DUP4 ADD MSTORE PUSH2 0x2E8A DUP2 DUP8 PUSH2 0x2B1F JUMP JUMPDEST SWAP1 POP DUP2 DUP2 SUB PUSH1 0x20 DUP4 ADD MSTORE PUSH2 0x2E9E DUP2 DUP7 PUSH2 0x2BDD JUMP JUMPDEST SWAP1 POP DUP2 DUP2 SUB PUSH1 0x40 DUP4 ADD MSTORE PUSH2 0x2EB2 DUP2 DUP6 PUSH2 0x2CDD JUMP JUMPDEST SWAP1 POP PUSH2 0x2EC1 PUSH1 0x60 DUP4 ADD DUP5 PUSH2 0x2E61 JUMP JUMPDEST SWAP6 SWAP5 POP POP POP POP POP JUMP JUMPDEST PUSH32 0x43616E6E6F742063616E63656C2070726F706F73616C00000000000000000000 PUSH1 0x0 DUP3 ADD MSTORE POP JUMP JUMPDEST PUSH1 0x0 PUSH2 0x2F00 PUSH1 0x16 DUP4 PUSH2 0x18B4 JUMP JUMPDEST SWAP2 POP PUSH2 0x2F0B DUP3 PUSH2 0x2ECA JUMP JUMPDEST PUSH1 0x20 DUP3 ADD SWAP1 POP SWAP2 SWAP1 POP JUMP JUMPDEST PUSH1 0x0 PUSH1 0x20 DUP3 ADD SWAP1 POP DUP2 DUP2 SUB PUSH1 0x0 DUP4 ADD MSTORE PUSH2 0x2F2F DUP2 PUSH2 0x2EF3 JUMP JUMPDEST SWAP1 POP SWAP2 SWAP1 POP JUMP JUMPDEST PUSH32 0x4F6E6C792070726F706F7365722063616E2063616E63656C0000000000000000 PUSH1 0x0 DUP3 ADD MSTORE POP JUMP JUMPDEST PUSH1 0x0 PUSH2 0x2F6C PUSH1 0x18 DUP4 PUSH2 0x18B4 JUMP JUMPDEST SWAP2 POP PUSH2 0x2F77 DUP3 PUSH2 0x2F36 JUMP JUMPDEST PUSH1 0x20 DUP3 ADD SWAP1 POP SWAP2 SWAP1 POP JUMP JUMPDEST PUSH1 0x0 PUSH1 0x20 DUP3 ADD SWAP1 POP DUP2 DUP2 SUB PUSH1 0x0 DUP4 ADD MSTORE PUSH2 0x2F9B DUP2 PUSH2 0x2F5F JUMP JUMPDEST SWAP1 POP SWAP2 SWAP1 POP JUMP JUMPDEST PUSH1 0x1F DUP3 GT ISZERO PUSH2 0x2FE3 JUMPI PUSH2 0x2FB4 DUP2 PUSH2 0x230C JUMP JUMPDEST PUSH2 0x2FBD DUP5 PUSH2 0x2860 JUMP JUMPDEST DUP2 ADD PUSH1 0x20 DUP6 LT ISZERO PUSH2 0x2FCC JUMPI DUP2 SWAP1 POP JUMPDEST PUSH2 0x2FE0 PUSH2 0x2FD8 DUP6 PUSH2 0x2860 JUMP JUMPDEST DUP4 ADD DUP3 PUSH2 0x293D JUMP JUMPDEST POP POP JUMPDEST POP POP POP JUMP JUMPDEST PUSH2 0x2FF1 DUP3 PUSH2 0x2C67 JUMP JUMPDEST PUSH8 0xFFFFFFFFFFFFFFFF DUP2 GT ISZERO PUSH2 0x300A JUMPI PUSH2 0x3009 PUSH2 0x1B6C JUMP JUMPDEST JUMPDEST PUSH2 0x3014 DUP3 SLOAD PUSH2 0x2235 JUMP JUMPDEST PUSH2 0x301F DUP3 DUP3 DUP6 PUSH2 0x2FA2 JUMP JUMPDEST PUSH1 0x0 PUSH1 0x20 SWAP1 POP PUSH1 0x1F DUP4 GT PUSH1 0x1 DUP2 EQ PUSH2 0x3052 JUMPI PUSH1 0x0 DUP5 ISZERO PUSH2 0x3040 JUMPI DUP3 DUP8 ADD MLOAD SWAP1 POP JUMPDEST PUSH2 0x304A DUP6 DUP3 PUSH2 0x29D1 JUMP JUMPDEST DUP7 SSTORE POP PUSH2 0x30B2 JUMP JUMPDEST PUSH1 0x1F NOT DUP5 AND PUSH2 0x3060 DUP7 PUSH2 0x230C JUMP JUMPDEST PUSH1 0x0 JUMPDEST DUP3 DUP2 LT ISZERO PUSH2 0x3088 JUMPI DUP5 DUP10 ADD MLOAD DUP3 SSTORE PUSH1 0x1 DUP3 ADD SWAP2 POP PUSH1 0x20 DUP6 ADD SWAP5 POP PUSH1 0x20 DUP2 ADD SWAP1 POP PUSH2 0x3063 JUMP JUMPDEST DUP7 DUP4 LT ISZERO PUSH2 0x30A5 JUMPI DUP5 DUP10 ADD MLOAD PUSH2 0x30A1 PUSH1 0x1F DUP10 AND DUP3 PUSH2 0x29B3 JUMP JUMPDEST DUP4 SSTORE POP JUMPDEST PUSH1 0x1 PUSH1 0x2 DUP9 MUL ADD DUP9 SSTORE POP POP POP JUMPDEST POP POP POP POP POP POP JUMP INVALID LOG2 PUSH5 0x6970667358 0x22 SLT KECCAK256 0xA5 PUSH10 0x8D3F4AC67F6A5737A047 MSTORE8 BALANCE 0x2C DUP16 MSTORE8 0x1E 0xDA CREATE 0xD4 CALLVALUE SWAP12 0xE4 0x27 PUSH1 0xBF PUSH1 0x36 0xAF SWAP4 GT PUSH5 0x736F6C6343 STOP ADDMOD XOR STOP CALLER "
        },
        "methodIdentifiers": {
          "cancelProposal(uint256)": "e0a8f6f5",
          "castVote(uint256,uint8)": "56781388",
          "delegate(address)": "5c19a95c",
          "delegates(address)": "587cde1e",
          "executeProposal(uint256)": "0d61b519",
          "getVotingPower(address)": "bb4d4436",
          "hashProposal(address[],uint256[],bytes[],bytes32)": "c59057e4",
          "isQuorumReached(uint256)": "9079991f",
          "owner()": "8da5cb5b",
          "proposalThreshold()": "b58131b0",
          "proposals(uint256)": "013cf08b",
          "propose(address[],uint256[],bytes[],string)": "7d5e81e2",
          "quorumPercentage()": "4fa76ec9",
          "renounceOwnership()": "715018a6",
          "setQuorumPercentage(uint256)": "32f6a1dc",
          "stakingContract()": "ee99205c",
          "state(uint256)": "3e4f49e6",
          "transferOwnership(address)": "f2fde38b",
          "votingDelay()": "3932abb1",
          "votingPeriod()": "02a251a3"
        }
      },
      "storageLayout": {
        "storage": [
          {
            "astId": 8,
            "contract": "contracts/Governance.sol:Governance",
            "label": "_owner",
            "offset": 0,
            "slot": "0",
            "type": "t_address"
          },
          {
            "astId": 450,
            "contract": "contracts/Governance.sol:Governance",
            "label": "stakingContract",
            "offset": 0,
            "slot": "1",
            "type": "t_contract(Staking)1982"
          },
          {
            "astId": 452,
            "contract": "contracts/Governance.sol:Governance",
            "label": "votingDelay",
            "offset": 0,
            "slot": "2",
            "type": "t_uint256"
          },
          {
            "astId": 454,
            "contract": "contracts/Governance.sol:Governance",
            "label": "votingPeriod",
            "offset": 0,
            "slot": "3",
            "type": "t_uint256"
          },
          {
            "astId": 456,
            "contract": "contracts/Governance.sol:Governance",
            "label": "proposalThreshold",
            "offset": 0,
            "slot": "4",
            "type": "t_uint256"
          },
          {
            "astId": 458,
            "contract": "contracts/Governance.sol:Governance",
            "label": "quorumPercentage",
            "offset": 0,
            "slot": "5",
            "type": "t_uint256"
          },
          {
            "astId": 462,
            "contract": "contracts/Governance.sol:Governance",
            "label": "delegates",
            "offset": 0,
            "slot": "6",
            "type": "t_mapping(t_address,t_address)"
          },
          {
            "astId": 507,
            "contract": "contracts/Governance.sol:Governance",
            "label": "proposals",
            "offset": 0,
            "slot": "7",
            "type": "t_mapping(t_uint256,t_struct(Proposal)502_storage)"
          }
        ],
        "types": {
          "t_address": {
            "encoding": "inplace",
            "label": "address",
            "numberOfBytes": "20"
          },
          "t_array(t_address)dyn_storage": {
            "base": "t_address",
            "encoding": "dynamic_array",
            "label": "address[]",
            "numberOfBytes": "32"
          },
          "t_array(t_bytes_storage)dyn_storage": {
            "base": "t_bytes_storage",
            "encoding": "dynamic_array",
            "label": "bytes[]",
            "numberOfBytes": "32"
          },
          "t_array(t_uint256)dyn_storage": {
            "base": "t_uint256",
            "encoding": "dynamic_array",
            "label": "uint256[]",
            "numberOfBytes": "32"
          },
          "t_bool": {
            "encoding": "inplace",
            "label": "bool",
            "numberOfBytes": "1"
          },
          "t_bytes_storage": {
            "encoding": "bytes",
            "label": "bytes",
            "numberOfBytes": "32"
          },
          "t_contract(Staking)1982": {
            "encoding": "inplace",
            "label": "contract Staking",
            "numberOfBytes": "20"
          },
          "t_mapping(t_address,t_address)": {
            "encoding": "mapping",
            "key": "t_address",
            "label": "mapping(address => address)",
            "numberOfBytes": "32",
            "value": "t_address"
          },
          "t_mapping(t_address,t_bool)": {
            "encoding": "mapping",
            "key": "t_address",
            "label": "mapping(address => bool)",
            "numberOfBytes": "32",
            "value": "t_bool"
          },
          "t_mapping(t_uint256,t_struct(Proposal)502_storage)": {
            "encoding": "mapping",
            "key": "t_uint256",
            "label": "mapping(uint256 => struct Governance.Proposal)",
            "numberOfBytes": "32",
            "value": "t_struct(Proposal)502_storage"
          },
          "t_string_storage": {
            "encoding": "bytes",
            "label": "string",
            "numberOfBytes": "32"
          },
          "t_struct(Proposal)502_storage": {
            "encoding": "inplace",
            "label": "struct Governance.Proposal",
            "members": [
              {
                "astId": 472,
                "contract": "contracts/Governance.sol:Governance",
                "label": "proposer",
                "offset": 0,
                "slot": "0",
                "type": "t_address"
              },
              {
                "astId": 474,
                "contract": "contracts/Governance.sol:Governance",
                "label": "voteStart",
                "offset": 0,
                "slot": "1",
                "type": "t_uint256"
              },
              {
                "astId": 476,
                "contract": "contracts/Governance.sol:Governance",
                "label": "voteEnd",
                "offset": 0,
                "slot": "2",
                "type": "t_uint256"
              },
              {
                "astId": 478,
                "contract": "contracts/Governance.sol:Governance",
                "label": "executed",
                "offset": 0,
                "slot": "3",
                "type": "t_bool"
              },
              {
                "astId": 480,
                "contract": "contracts/Governance.sol:Governance",
                "label": "canceled",
                "offset": 1,
                "slot": "3",
                "type": "t_bool"
              },
              {
                "astId": 482,
                "contract": "contracts/Governance.sol:Governance",
                "label": "forVotes",
                "offset": 0,
                "slot": "4",
                "type": "t_uint256"
              },
              {
                "astId": 484,
                "contract": "contracts/Governance.sol:Governance",
                "label": "againstVotes",
                "offset": 0,
                "slot": "5",
                "type": "t_uint256"
              },
              {
                "astId": 486,
                "contract": "contracts/Governance.sol:Governance",
                "label": "abstainVotes",
                "offset": 0,
                "slot": "6",
                "type": "t_uint256"
              },
              {
                "astId": 490,
                "contract": "contracts/Governance.sol:Governance",
                "label": "hasVoted",
                "offset": 0,
                "slot": "7",
                "type": "t_mapping(t_address,t_bool)"
              },
              {
                "astId": 493,
                "contract": "contracts/Governance.sol:Governance",
                "label": "targets",
                "offset": 0,
                "slot": "8",
                "type": "t_array(t_address)dyn_storage"
              },
              {
                "astId": 496,
                "contract": "contracts/Governance.sol:Governance",
                "label": "values",
                "offset": 0,
                "slot": "9",
                "type": "t_array(t_uint256)dyn_storage"
              },
              {
                "astId": 499,
                "contract": "contracts/Governance.sol:Governance",
                "label": "calldatas",
                "offset": 0,
                "slot": "10",
                "type": "t_array(t_bytes_storage)dyn_storage"
              },
              {
                "astId": 501,
                "contract": "contracts/Governance.sol:Governance",
                "label": "description",
                "offset": 0,
                "slot": "11",
                "type": "t_string_storage"
              }
            ],
            "numberOfBytes": "384"
          },
          "t_uint256": {
            "encoding": "inplace",
            "label": "uint256",
            "numberOfBytes": "32"
          }
        }
      }
    }
  }
}