{
  "_format": "hh-sol-artifact-1",
  "contractName": "Governance",
  "sourceName": "contracts/Governance.sol",
  "abi": [
    {
      "inputs": [
        {
          "internalType": "contract Staking",
          "name": "_stakingContract",
          "type": "address"
        }
      ],
      "stateMutability": "nonpayable",
      "type": "constructor"
    },
    {
      "inputs": [
        {
          "internalType": "address",
          "name": "owner",
          "type": "address"
        }
      ],
      "name": "OwnableInvalidOwner",
      "type": "error"
    },
    {
      "inputs": [
        {
          "internalType": "address",
          "name": "account",
          "type": "address"
        }
      ],
      "name": "OwnableUnauthorizedAccount",
      "type": "error"
    },
    {
      "anonymous": false,
      "inputs": [
        {
          "indexed": true,
          "internalType": "address",
          "name": "delegator",
          "type": "address"
        },
        {
          "indexed": true,
          "internalType": "address",
          "name": "fromDelegate",
          "type": "address"
        },
        {
          "indexed": true,
          "internalType": "address",
          "name": "toDelegate",
          "type": "address"
        }
      ],
      "name": "DelegateChanged",
      "type": "event"
    },
    {
      "anonymous": false,
      "inputs": [
        {
          "indexed": true,
          "internalType": "address",
          "name": "previousOwner",
          "type": "address"
        },
        {
          "indexed": true,
          "internalType": "address",
          "name": "newOwner",
          "type": "address"
        }
      ],
      "name": "OwnershipTransferred",
      "type": "event"
    },
    {
      "anonymous": false,
      "inputs": [
        {
          "indexed": true,
          "internalType": "uint256",
          "name": "proposalId",
          "type": "uint256"
        }
      ],
      "name": "ProposalCanceled",
      "type": "event"
    },
    {
      "anonymous": false,
      "inputs": [
        {
          "indexed": true,
          "internalType": "uint256",
          "name": "proposalId",
          "type": "uint256"
        },
        {
          "indexed": false,
          "internalType": "address",
          "name": "proposer",
          "type": "address"
        },
        {
          "indexed": false,
          "internalType": "address[]",
          "name": "targets",
          "type": "address[]"
        },
        {
          "indexed": false,
          "internalType": "uint256[]",
          "name": "values",
          "type": "uint256[]"
        },
        {
          "indexed": false,
          "internalType": "bytes[]",
          "name": "calldatas",
          "type": "bytes[]"
        },
        {
          "indexed": false,
          "internalType": "uint256",
          "name": "voteStart",
          "type": "uint256"
        },
        {
          "indexed": false,
          "internalType": "uint256",
          "name": "voteEnd",
          "type": "uint256"
        },
        {
          "indexed": false,
          "internalType": "string",
          "name": "description",
          "type": "string"
        }
      ],
      "name": "ProposalCreated",
      "type": "event"
    },
    {
      "anonymous": false,
      "inputs": [
        {
          "indexed": true,
          "internalType": "uint256",
          "name": "proposalId",
          "type": "uint256"
        }
      ],
      "name": "ProposalExecuted",
      "type": "event"
    },
    {
      "anonymous": false,
      "inputs": [
        {
          "indexed": false,
          "internalType": "uint256",
          "name": "oldQuorumPercentage",
          "type": "uint256"
        },
        {
          "indexed": false,
          "internalType": "uint256",
          "name": "newQuorumPercentage",
          "type": "uint256"
        }
      ],
      "name": "QuorumPercentageChanged",
      "type": "event"
    },
    {
      "anonymous": false,
      "inputs": [
        {
          "indexed": true,
          "internalType": "address",
          "name": "voter",
          "type": "address"
        },
        {
          "indexed": true,
          "internalType": "uint256",
          "name": "proposalId",
          "type": "uint256"
        },
        {
          "indexed": false,
          "internalType": "uint8",
          "name": "support",
          "type": "uint8"
        },
        {
          "indexed": false,
          "internalType": "uint256",
          "name": "weight",
          "type": "uint256"
        }
      ],
      "name": "VoteCast",
      "type": "event"
    },
    {
      "inputs": [
        {
          "internalType": "uint256",
          "name": "proposalId",
          "type": "uint256"
        }
      ],
      "name": "cancelProposal",
      "outputs": [],
      "stateMutability": "nonpayable",
      "type": "function"
    },
    {
      "inputs": [
        {
          "internalType": "uint256",
          "name": "proposalId",
          "type": "uint256"
        },
        {
          "internalType": "uint8",
          "name": "support",
          "type": "uint8"
        }
      ],
      "name": "castVote",
      "outputs": [
        {
          "internalType": "uint256",
          "name": "",
          "type": "uint256"
        }
      ],
      "stateMutability": "nonpayable",
      "type": "function"
    },
    {
      "inputs": [
        {
          "internalType": "address",
          "name": "delegatee",
          "type": "address"
        }
      ],
      "name": "delegate",
      "outputs": [],
      "stateMutability": "nonpayable",
      "type": "function"
    },
    {
      "inputs": [
        {
          "internalType": "address",
          "name": "",
          "type": "address"
        }
      ],
      "name": "delegates",
      "outputs": [
        {
          "internalType": "address",
          "name": "",
          "type": "address"
        }
      ],
      "stateMutability": "view",
      "type": "function"
    },
    {
      "inputs": [
        {
          "internalType": "uint256",
          "name": "proposalId",
          "type": "uint256"
        }
      ],
      "name": "executeProposal",
      "outputs": [],
      "stateMutability": "nonpayable",
      "type": "function"
    },
    {
      "inputs": [
        {
          "internalType": "address",
          "name": "account",
          "type": "address"
        }
      ],
      "name": "getVotingPower",
      "outputs": [
        {
          "internalType": "uint256",
          "name": "",
          "type": "uint256"
        }
      ],
      "stateMutability": "view",
      "type": "function"
    },
    {
      "inputs": [
        {
          "internalType": "address[]",
          "name": "targets",
          "type": "address[]"
        },
        {
          "internalType": "uint256[]",
          "name": "values",
          "type": "uint256[]"
        },
        {
          "internalType": "bytes[]",
          "name": "calldatas",
          "type": "bytes[]"
        },
        {
          "internalType": "bytes32",
          "name": "descriptionHash",
          "type": "bytes32"
        }
      ],
      "name": "hashProposal",
      "outputs": [
        {
          "internalType": "uint256",
          "name": "",
          "type": "uint256"
        }
      ],
      "stateMutability": "pure",
      "type": "function"
    },
    {
      "inputs": [
        {
          "internalType": "uint256",
          "name": "proposalId",
          "type": "uint256"
        }
      ],
      "name": "isQuorumReached",
      "outputs": [
        {
          "internalType": "bool",
          "name": "",
          "type": "bool"
        }
      ],
      "stateMutability": "view",
      "type": "function"
    },
    {
      "inputs": [],
      "name": "owner",
      "outputs": [
        {
          "internalType": "address",
          "name": "",
          "type": "address"
        }
      ],
      "stateMutability": "view",
      "type": "function"
    },
    {
      "inputs": [],
      "name": "proposalThreshold",
      "outputs": [
        {
          "internalType": "uint256",
          "name": "",
          "type": "uint256"
        }
      ],
      "stateMutability": "view",
      "type": "function"
    },
    {
      "inputs": [
        {
          "internalType": "uint256",
          "name": "",
          "type": "uint256"
        }
      ],
      "name": "proposals",
      "outputs": [
        {
          "internalType": "address",
          "name": "proposer",
          "type": "address"
        },
        {
          "internalType": "uint256",
          "name": "voteStart",
          "type": "uint256"
        },
        {
          "internalType": "uint256",
          "name": "voteEnd",
          "type": "uint256"
        },
        {
          "internalType": "bool",
          "name": "executed",
          "type": "bool"
        },
        {
          "internalType": "bool",
          "name": "canceled",
          "type": "bool"
        },
        {
          "internalType": "uint256",
          "name": "forVotes",
          "type": "uint256"
        },
        {
          "internalType": "uint256",
          "name": "againstVotes",
          "type": "uint256"
        },
        {
          "internalType": "uint256",
          "name": "abstainVotes",
          "type": "uint256"
        },
        {
          "internalType": "string",
          "name": "description",
          "type": "string"
        }
      ],
      "stateMutability": "view",
      "type": "function"
    },
    {
      "inputs": [
        {
          "internalType": "address[]",
          "name": "targets",
          "type": "address[]"
        },
        {
          "internalType": "uint256[]",
          "name": "values",
          "type": "uint256[]"
        },
        {
          "internalType": "bytes[]",
          "name": "calldatas",
          "type": "bytes[]"
        },
        {
          "internalType": "string",
          "name": "description",
          "type": "string"
        }
      ],
      "name": "propose",
      "outputs": [
        {
          "internalType": "uint256",
          "name": "",
          "type": "uint256"
        }
      ],
      "stateMutability": "nonpayable",
      "type": "function"
    },
    {
      "inputs": [],
      "name": "quorumPercentage",
      "outputs": [
        {
          "internalType": "uint256",
          "name": "",
          "type": "uint256"
        }
      ],
      "stateMutability": "view",
      "type": "function"
    },
    {
      "inputs": [],
      "name": "renounceOwnership",
      "outputs": [],
      "stateMutability": "nonpayable",
      "type": "function"
    },
    {
      "inputs": [
        {
          "internalType": "uint256",
          "name": "newQuorumPercentage",
          "type": "uint256"
        }
      ],
      "name": "setQuorumPercentage",
      "outputs": [],
      "stateMutability": "nonpayable",
      "type": "function"
    },
    {
      "inputs": [],
      "name": "stakingContract",
      "outputs": [
        {
          "internalType": "contract Staking",
          "name": "",
          "type": "address"
        }
      ],
      "stateMutability": "view",
      "type": "function"
    },
    {
      "inputs": [
        {
          "internalType": "uint256",
          "name": "proposalId",
          "type": "uint256"
        }
      ],
      "name": "state",
      "outputs": [
        {
          "internalType": "enum Governance.ProposalState",
          "name": "",
          "type": "uint8"
        }
      ],
      "stateMutability": "view",
      "type": "function"
    },
    {
      "inputs": [
        {
          "internalType": "address",
          "name": "newOwner",
          "type": "address"
        }
      ],
      "name": "transferOwnership",
      "outputs": [],
      "stateMutability": "nonpayable",
      "type": "function"
    },
    {
      "inputs": [],
      "name": "votingDelay",
      "outputs": [
        {
          "internalType": "uint256",
          "name": "",
          "type": "uint256"
        }
      ],
      "stateMutability": "view",
      "type": "function"
    },
    {
      "inputs": [],
      "name": "votingPeriod",
      "outputs": [
        {
          "internalType": "uint256",
          "name": "",
          "type": "uint256"
        }
      ],
      "stateMutability": "view",
      "type": "function"
    }
  ],
  "bytecode": "0x60806040523480156200001157600080fd5b50604051620033d2380380620033d2833981810160405281019062000037919062000272565b33600073ffffffffffffffffffffffffffffffffffffffff168173ffffffffffffffffffffffffffffffffffffffff1603620000ad5760006040517f1e4fbdf7000000000000000000000000000000000000000000000000000000008152600401620000a49190620002b5565b60405180910390fd5b620000be816200013060201b60201c565b5080600160006101000a81548173ffffffffffffffffffffffffffffffffffffffff021916908373ffffffffffffffffffffffffffffffffffffffff160217905550603c600281905550610e1060038190555068056bc75e2d63100000600481905550602860058190555050620002d2565b60008060009054906101000a900473ffffffffffffffffffffffffffffffffffffffff169050816000806101000a81548173ffffffffffffffffffffffffffffffffffffffff021916908373ffffffffffffffffffffffffffffffffffffffff1602179055508173ffffffffffffffffffffffffffffffffffffffff168173ffffffffffffffffffffffffffffffffffffffff167f8be0079c531659141344cd1fd0a4f28419497f9722a3daafe3b4186f6b6457e060405160405180910390a35050565b600080fd5b600073ffffffffffffffffffffffffffffffffffffffff82169050919050565b60006200022682620001f9565b9050919050565b60006200023a8262000219565b9050919050565b6200024c816200022d565b81146200025857600080fd5b50565b6000815190506200026c8162000241565b92915050565b6000602082840312156200028b576200028a620001f4565b5b60006200029b848285016200025b565b91505092915050565b620002af8162000219565b82525050565b6000602082019050620002cc6000830184620002a4565b92915050565b6130f080620002e26000396000f3fe608060405234801561001057600080fd5b506004361061012c5760003560e01c8063715018a6116100ad578063bb4d443611610071578063bb4d44361461034d578063c59057e41461037d578063e0a8f6f5146103ad578063ee99205c146103c9578063f2fde38b146103e75761012c565b8063715018a6146102a75780637d5e81e2146102b15780638da5cb5b146102e15780639079991f146102ff578063b58131b01461032f5761012c565b80633e4f49e6116100f45780633e4f49e6146101dd5780634fa76ec91461020d578063567813881461022b578063587cde1e1461025b5780635c19a95c1461028b5761012c565b8063013cf08b1461013157806302a251a3146101695780630d61b5191461018757806332f6a1dc146101a35780633932abb1146101bf575b600080fd5b61014b60048036038101906101469190611811565b610403565b60405161016099989796959493929190611939565b60405180910390f35b610171610513565b60405161017e91906119cd565b60405180910390f35b6101a1600480360381019061019c9190611811565b610519565b005b6101bd60048036038101906101b89190611811565b61073b565b005b6101c76107de565b6040516101d491906119cd565b60405180910390f35b6101f760048036038101906101f29190611811565b6107e4565b6040516102049190611a5f565b60405180910390f35b6102156108e7565b60405161022291906119cd565b60405180910390f35b61024560048036038101906102409190611ab3565b6108ed565b60405161025291906119cd565b60405180910390f35b61027560048036038101906102709190611b1f565b610b8d565b6040516102829190611b4c565b60405180910390f35b6102a560048036038101906102a09190611b1f565b610bc0565b005b6102af610d17565b005b6102cb60048036038101906102c69190611fa9565b610d2b565b6040516102d891906119cd565b60405180910390f35b6102e9610f69565b6040516102f69190611b4c565b60405180910390f35b61031960048036038101906103149190611811565b610f92565b6040516103269190612080565b60405180910390f35b61033761108d565b60405161034491906119cd565b60405180910390f35b61036760048036038101906103629190611b1f565b611093565b60405161037491906119cd565b60405180910390f35b610397600480360381019061039291906120d1565b611275565b6040516103a491906119cd565b60405180910390f35b6103c760048036038101906103c29190611811565b6112b1565b005b6103d1611417565b6040516103de91906121eb565b60405180910390f35b61040160048036038101906103fc9190611b1f565b61143d565b005b60076020528060005260406000206000915090508060000160009054906101000a900473ffffffffffffffffffffffffffffffffffffffff16908060010154908060020154908060030160009054906101000a900460ff16908060030160019054906101000a900460ff169080600401549080600501549080600601549080600b01805461049090612235565b80601f01602080910402602001604051908101604052809291908181526020018280546104bc90612235565b80156105095780601f106104de57610100808354040283529160200191610509565b820191906000526020600020905b8154815290600101906020018083116104ec57829003601f168201915b5050505050905089565b60035481565b6004600681111561052d5761052c6119e8565b5b610536826107e4565b6006811115610548576105476119e8565b5b14610588576040517f08c379a000000000000000000000000000000000000000000000000000000000815260040161057f906122b2565b60405180910390fd5b600060076000838152602001908152602001600020905060018160030160006101000a81548160ff02191690831515021790555060005b81600801805490508110156107095760008260080182815481106105e6576105e56122d2565b5b9060005260206000200160009054906101000a900473ffffffffffffffffffffffffffffffffffffffff1673ffffffffffffffffffffffffffffffffffffffff1683600901838154811061063d5761063c6122d2565b5b906000526020600020015484600a01848154811061065e5761065d6122d2565b5b9060005260206000200160405161067591906123a4565b60006040518083038185875af1925050503d80600081146106b2576040519150601f19603f3d011682016040523d82523d6000602084013e6106b7565b606091505b50509050806106fb576040517f08c379a00000000000000000000000000000000000000000000000000000000081526004016106f290612407565b60405180910390fd5b5080806001019150506105bf565b50817f712ae1383f79ac853f8d882153778e0260ef8f03b504e2866e0593e04d2b291f60405160405180910390a25050565b6107436114c3565b600081118015610754575060648111155b610793576040517f08c379a000000000000000000000000000000000000000000000000000000000815260040161078a90612473565b60405180910390fd5b60006005549050816005819055507f2b44b0d83d450296bc7999f89ed505462e7b7d82b219154dade72cbc54137b4681836040516107d2929190612493565b60405180910390a15050565b60025481565b6000806007600084815260200190815260200160002090506000816001015411610843576040517f08c379a000000000000000000000000000000000000000000000000000000000815260040161083a90612508565b60405180910390fd5b8060030160019054906101000a900460ff16156108645760029150506108e2565b806001015442101561087a5760009150506108e2565b8060020154421161088f5760019150506108e2565b806005015481600401541115806108ac57506108aa83610f92565b155b156108bb5760039150506108e2565b8060030160009054906101000a900460ff16156108dc5760069150506108e2565b60049150505b919050565b60055481565b600060016006811115610903576109026119e8565b5b61090c846107e4565b600681111561091e5761091d6119e8565b5b1461095e576040517f08c379a000000000000000000000000000000000000000000000000000000000815260040161095590612574565b60405180910390fd5b60028260ff1611156109a5576040517f08c379a000000000000000000000000000000000000000000000000000000000815260040161099c906125e0565b60405180910390fd5b60006007600085815260200190815260200160002090508060070160003373ffffffffffffffffffffffffffffffffffffffff1673ffffffffffffffffffffffffffffffffffffffff16815260200190815260200160002060009054906101000a900460ff1615610a4b576040517f08c379a0000000000000000000000000000000000000000000000000000000008152600401610a429061264c565b60405180910390fd5b6000610a5633611093565b905060008460ff1603610a835780826005016000828254610a77919061269b565b92505081905550610ad7565b60018460ff1603610aae5780826004016000828254610aa2919061269b565b92505081905550610ad6565b60028460ff1603610ad55780826006016000828254610acd919061269b565b925050819055505b5b5b60018260070160003373ffffffffffffffffffffffffffffffffffffffff1673ffffffffffffffffffffffffffffffffffffffff16815260200190815260200160002060006101000a81548160ff021916908315150217905550843373ffffffffffffffffffffffffffffffffffffffff167f2c9deb38f462962eadbd85a9d3a4120503ee091f1582eaaa10aa8c6797651d298684604051610b7a9291906126de565b60405180910390a3809250505092915050565b60066020528060005260406000206000915054906101000a900473ffffffffffffffffffffffffffffffffffffffff1681565b6000600660003373ffffffffffffffffffffffffffffffffffffffff1673ffffffffffffffffffffffffffffffffffffffff16815260200190815260200160002060009054906101000a900473ffffffffffffffffffffffffffffffffffffffff16905081600660003373ffffffffffffffffffffffffffffffffffffffff1673ffffffffffffffffffffffffffffffffffffffff16815260200190815260200160002060006101000a81548173ffffffffffffffffffffffffffffffffffffffff021916908373ffffffffffffffffffffffffffffffffffffffff1602179055508173ffffffffffffffffffffffffffffffffffffffff168173ffffffffffffffffffffffffffffffffffffffff163373ffffffffffffffffffffffffffffffffffffffff167f3134e8a2e6d97e929a7e54011ea5485d7d196dd5f0ba4d4ef95803e8e3fc257f60405160405180910390a45050565b610d1f6114c3565b610d29600061154a565b565b6000600454610d3933611093565b1015610d7a576040517f08c379a0000000000000000000000000000000000000000000000000000000008152600401610d7190612753565b60405180910390fd5b83518551148015610d8c575082518551145b610dcb576040517f08c379a0000000000000000000000000000000000000000000000000000000008152600401610dc2906127bf565b60405180910390fd5b6000610de08686868680519060200120611275565b905060006007600083815260200190815260200160002090506000816001015414610e40576040517f08c379a0000000000000000000000000000000000000000000000000000000008152600401610e379061282b565b60405180910390fd5b600060025442610e50919061269b565b9050600060035482610e62919061269b565b9050338360000160006101000a81548173ffffffffffffffffffffffffffffffffffffffff021916908373ffffffffffffffffffffffffffffffffffffffff16021790555081836001018190555080836002018190555088836008019080519060200190610ed1929190611616565b5087836009019080519060200190610eea9291906116a0565b508683600a019080519060200190610f039291906116ed565b508583600b019081610f1591906129ed565b50837f95f03e437e6d5037418f12bef80fc7e0a5f27754c078a1d5d3f62d39bac44e50338b8b8b87878d604051610f529796959493929190612d52565b60405180910390a283945050505050949350505050565b60008060009054906101000a900473ffffffffffffffffffffffffffffffffffffffff16905090565b6000806007600084815260200190815260200160002090506000816006015482600501548360040154610fc5919061269b565b610fcf919061269b565b90506000600160009054906101000a900473ffffffffffffffffffffffffffffffffffffffff1673ffffffffffffffffffffffffffffffffffffffff1663817b1cd26040518163ffffffff1660e01b8152600401602060405180830381865afa158015611040573d6000803e3d6000fd5b505050506040513d601f19601f820116820180604052508101906110649190612df2565b9050600554816110749190612e1f565b6064836110819190612e1f565b10159350505050919050565b60045481565b600080600660008473ffffffffffffffffffffffffffffffffffffffff1673ffffffffffffffffffffffffffffffffffffffff16815260200190815260200160002060009054906101000a900473ffffffffffffffffffffffffffffffffffffffff169050600073ffffffffffffffffffffffffffffffffffffffff168173ffffffffffffffffffffffffffffffffffffffff16036111d057600160009054906101000a900473ffffffffffffffffffffffffffffffffffffffff1673ffffffffffffffffffffffffffffffffffffffff166317d1720d846040518263ffffffff1660e01b81526004016111879190611b4c565b602060405180830381865afa1580156111a4573d6000803e3d6000fd5b505050506040513d601f19601f820116820180604052508101906111c89190612df2565b915050611270565b600160009054906101000a900473ffffffffffffffffffffffffffffffffffffffff1673ffffffffffffffffffffffffffffffffffffffff166317d1720d826040518263ffffffff1660e01b815260040161122b9190611b4c565b602060405180830381865afa158015611248573d6000803e3d6000fd5b505050506040513d601f19601f8201168201806040525081019061126c9190612df2565b9150505b919050565b60008484848460405160200161128e9493929190612e70565b6040516020818303038152906040528051906020012060001c9050949350505050565b600060068111156112c5576112c46119e8565b5b6112ce826107e4565b60068111156112e0576112df6119e8565b5b14611320576040517f08c379a000000000000000000000000000000000000000000000000000000000815260040161131790612f16565b60405180910390fd5b60006007600083815260200190815260200160002090508060000160009054906101000a900473ffffffffffffffffffffffffffffffffffffffff1673ffffffffffffffffffffffffffffffffffffffff163373ffffffffffffffffffffffffffffffffffffffff16146113c9576040517f08c379a00000000000000000000000000000000000000000000000000000000081526004016113c090612f82565b60405180910390fd5b60018160030160016101000a81548160ff021916908315150217905550817f789cf55be980739dad1d0699b93b58e806b51c9d96619bfa8fe0a28abaa7b30c60405160405180910390a25050565b600160009054906101000a900473ffffffffffffffffffffffffffffffffffffffff1681565b6114456114c3565b600073ffffffffffffffffffffffffffffffffffffffff168173ffffffffffffffffffffffffffffffffffffffff16036114b75760006040517f1e4fbdf70000000000000000000000000000000000000000000000000000000081526004016114ae9190611b4c565b60405180910390fd5b6114c08161154a565b50565b6114cb61160e565b73ffffffffffffffffffffffffffffffffffffffff166114e9610f69565b73ffffffffffffffffffffffffffffffffffffffff16146115485761150c61160e565b6040517f118cdaa700000000000000000000000000000000000000000000000000000000815260040161153f9190611b4c565b60405180910390fd5b565b60008060009054906101000a900473ffffffffffffffffffffffffffffffffffffffff169050816000806101000a81548173ffffffffffffffffffffffffffffffffffffffff021916908373ffffffffffffffffffffffffffffffffffffffff1602179055508173ffffffffffffffffffffffffffffffffffffffff168173ffffffffffffffffffffffffffffffffffffffff167f8be0079c531659141344cd1fd0a4f28419497f9722a3daafe3b4186f6b6457e060405160405180910390a35050565b600033905090565b82805482825590600052602060002090810192821561168f579160200282015b8281111561168e5782518260006101000a81548173ffffffffffffffffffffffffffffffffffffffff021916908373ffffffffffffffffffffffffffffffffffffffff16021790555091602001919060010190611636565b5b50905061169c9190611746565b5090565b8280548282559060005260206000209081019282156116dc579160200282015b828111156116db5782518255916020019190600101906116c0565b5b5090506116e99190611746565b5090565b828054828255906000526020600020908101928215611735579160200282015b828111156117345782518290816117249190612fe8565b509160200191906001019061170d565b5b5090506117429190611763565b5090565b5b8082111561175f576000816000905550600101611747565b5090565b5b80821115611783576000818161177a9190611787565b50600101611764565b5090565b50805461179390612235565b6000825580601f106117a557506117c4565b601f0160209004906000526020600020908101906117c39190611746565b5b50565b6000604051905090565b600080fd5b600080fd5b6000819050919050565b6117ee816117db565b81146117f957600080fd5b50565b60008135905061180b816117e5565b92915050565b600060208284031215611827576118266117d1565b5b6000611835848285016117fc565b91505092915050565b600073ffffffffffffffffffffffffffffffffffffffff82169050919050565b60006118698261183e565b9050919050565b6118798161185e565b82525050565b611888816117db565b82525050565b60008115159050919050565b6118a38161188e565b82525050565b600081519050919050565b600082825260208201905092915050565b60005b838110156118e35780820151818401526020810190506118c8565b60008484015250505050565b6000601f19601f8301169050919050565b600061190b826118a9565b61191581856118b4565b93506119258185602086016118c5565b61192e816118ef565b840191505092915050565b60006101208201905061194f600083018c611870565b61195c602083018b61187f565b611969604083018a61187f565b611976606083018961189a565b611983608083018861189a565b61199060a083018761187f565b61199d60c083018661187f565b6119aa60e083018561187f565b8181036101008301526119bd8184611900565b90509a9950505050505050505050565b60006020820190506119e2600083018461187f565b92915050565b7f4e487b7100000000000000000000000000000000000000000000000000000000600052602160045260246000fd5b60078110611a2857611a276119e8565b5b50565b6000819050611a3982611a17565b919050565b6000611a4982611a2b565b9050919050565b611a5981611a3e565b82525050565b6000602082019050611a746000830184611a50565b92915050565b600060ff82169050919050565b611a9081611a7a565b8114611a9b57600080fd5b50565b600081359050611aad81611a87565b92915050565b60008060408385031215611aca57611ac96117d1565b5b6000611ad8858286016117fc565b9250506020611ae985828601611a9e565b9150509250929050565b611afc8161185e565b8114611b0757600080fd5b50565b600081359050611b1981611af3565b92915050565b600060208284031215611b3557611b346117d1565b5b6000611b4384828501611b0a565b91505092915050565b6000602082019050611b616000830184611870565b92915050565b600080fd5b7f4e487b7100000000000000000000000000000000000000000000000000000000600052604160045260246000fd5b611ba4826118ef565b810181811067ffffffffffffffff82111715611bc357611bc2611b6c565b5b80604052505050565b6000611bd66117c7565b9050611be28282611b9b565b919050565b600067ffffffffffffffff821115611c0257611c01611b6c565b5b602082029050602081019050919050565b600080fd5b6000611c2b611c2684611be7565b611bcc565b90508083825260208201905060208402830185811115611c4e57611c4d611c13565b5b835b81811015611c775780611c638882611b0a565b845260208401935050602081019050611c50565b5050509392505050565b600082601f830112611c9657611c95611b67565b5b8135611ca6848260208601611c18565b91505092915050565b600067ffffffffffffffff821115611cca57611cc9611b6c565b5b602082029050602081019050919050565b6000611cee611ce984611caf565b611bcc565b90508083825260208201905060208402830185811115611d1157611d10611c13565b5b835b81811015611d3a5780611d2688826117fc565b845260208401935050602081019050611d13565b5050509392505050565b600082601f830112611d5957611d58611b67565b5b8135611d69848260208601611cdb565b91505092915050565b600067ffffffffffffffff821115611d8d57611d8c611b6c565b5b602082029050602081019050919050565b600080fd5b600067ffffffffffffffff821115611dbe57611dbd611b6c565b5b611dc7826118ef565b9050602081019050919050565b82818337600083830152505050565b6000611df6611df184611da3565b611bcc565b905082815260208101848484011115611e1257611e11611d9e565b5b611e1d848285611dd4565b509392505050565b600082601f830112611e3a57611e39611b67565b5b8135611e4a848260208601611de3565b91505092915050565b6000611e66611e6184611d72565b611bcc565b90508083825260208201905060208402830185811115611e8957611e88611c13565b5b835b81811015611ed057803567ffffffffffffffff811115611eae57611ead611b67565b5b808601611ebb8982611e25565b85526020850194505050602081019050611e8b565b5050509392505050565b600082601f830112611eef57611eee611b67565b5b8135611eff848260208601611e53565b91505092915050565b600067ffffffffffffffff821115611f2357611f22611b6c565b5b611f2c826118ef565b9050602081019050919050565b6000611f4c611f4784611f08565b611bcc565b905082815260208101848484011115611f6857611f67611d9e565b5b611f73848285611dd4565b509392505050565b600082601f830112611f9057611f8f611b67565b5b8135611fa0848260208601611f39565b91505092915050565b60008060008060808587031215611fc357611fc26117d1565b5b600085013567ffffffffffffffff811115611fe157611fe06117d6565b5b611fed87828801611c81565b945050602085013567ffffffffffffffff81111561200e5761200d6117d6565b5b61201a87828801611d44565b935050604085013567ffffffffffffffff81111561203b5761203a6117d6565b5b61204787828801611eda565b925050606085013567ffffffffffffffff811115612068576120676117d6565b5b61207487828801611f7b565b91505092959194509250565b6000602082019050612095600083018461189a565b92915050565b6000819050919050565b6120ae8161209b565b81146120b957600080fd5b50565b6000813590506120cb816120a5565b92915050565b600080600080608085870312156120eb576120ea6117d1565b5b600085013567ffffffffffffffff811115612109576121086117d6565b5b61211587828801611c81565b945050602085013567ffffffffffffffff811115612136576121356117d6565b5b61214287828801611d44565b935050604085013567ffffffffffffffff811115612163576121626117d6565b5b61216f87828801611eda565b9250506060612180878288016120bc565b91505092959194509250565b6000819050919050565b60006121b16121ac6121a78461183e565b61218c565b61183e565b9050919050565b60006121c382612196565b9050919050565b60006121d5826121b8565b9050919050565b6121e5816121ca565b82525050565b600060208201905061220060008301846121dc565b92915050565b7f4e487b7100000000000000000000000000000000000000000000000000000000600052602260045260246000fd5b6000600282049050600182168061224d57607f821691505b6020821081036122605761225f612206565b5b50919050565b7f50726f706f73616c2063616e6e6f742062652065786563757465640000000000600082015250565b600061229c601b836118b4565b91506122a782612266565b602082019050919050565b600060208201905081810360008301526122cb8161228f565b9050919050565b7f4e487b7100000000000000000000000000000000000000000000000000000000600052603260045260246000fd5b600081905092915050565b60008190508160005260206000209050919050565b6000815461232e81612235565b6123388186612301565b9450600182166000811461235357600181146123685761239b565b60ff198316865281151582028601935061239b565b6123718561230c565b60005b8381101561239357815481890152600182019150602081019050612374565b838801955050505b50505092915050565b60006123b08284612321565b915081905092915050565b7f50726f706f73616c20657865637574696f6e206661696c656400000000000000600082015250565b60006123f16019836118b4565b91506123fc826123bb565b602082019050919050565b60006020820190508181036000830152612420816123e4565b9050919050565b7f496e76616c69642071756f72756d2070657263656e7461676500000000000000600082015250565b600061245d6019836118b4565b915061246882612427565b602082019050919050565b6000602082019050818103600083015261248c81612450565b9050919050565b60006040820190506124a8600083018561187f565b6124b5602083018461187f565b9392505050565b7f50726f706f73616c20646f6573206e6f74206578697374000000000000000000600082015250565b60006124f26017836118b4565b91506124fd826124bc565b602082019050919050565b60006020820190508181036000830152612521816124e5565b9050919050565b7f566f74696e67206973206e6f7420616374697665000000000000000000000000600082015250565b600061255e6014836118b4565b915061256982612528565b602082019050919050565b6000602082019050818103600083015261258d81612551565b9050919050565b7f496e76616c696420766f74652074797065000000000000000000000000000000600082015250565b60006125ca6011836118b4565b91506125d582612594565b602082019050919050565b600060208201905081810360008301526125f9816125bd565b9050919050565b7f416c726561647920766f74656400000000000000000000000000000000000000600082015250565b6000612636600d836118b4565b915061264182612600565b602082019050919050565b6000602082019050818103600083015261266581612629565b9050919050565b7f4e487b7100000000000000000000000000000000000000000000000000000000600052601160045260246000fd5b60006126a6826117db565b91506126b1836117db565b92508282019050808211156126c9576126c861266c565b5b92915050565b6126d881611a7a565b82525050565b60006040820190506126f360008301856126cf565b612700602083018461187f565b9392505050565b7f50726f706f73657220766f7465732062656c6f77207468726573686f6c640000600082015250565b600061273d601e836118b4565b915061274882612707565b602082019050919050565b6000602082019050818103600083015261276c81612730565b9050919050565b7f496e76616c69642070726f706f73616c206c656e677468000000000000000000600082015250565b60006127a96017836118b4565b91506127b482612773565b602082019050919050565b600060208201905081810360008301526127d88161279c565b9050919050565b7f50726f706f73616c20616c726561647920657869737473000000000000000000600082015250565b60006128156017836118b4565b9150612820826127df565b602082019050919050565b6000602082019050818103600083015261284481612808565b9050919050565b60008190508160005260206000209050919050565b60006020601f8301049050919050565b600082821b905092915050565b6000600883026128ad7fffffffffffffffffffffffffffffffffffffffffffffffffffffffffffffffff82612870565b6128b78683612870565b95508019841693508086168417925050509392505050565b60006128ea6128e56128e0846117db565b61218c565b6117db565b9050919050565b6000819050919050565b612904836128cf565b612918612910826128f1565b84845461287d565b825550505050565b600090565b61292d612920565b6129388184846128fb565b505050565b5b8181101561295c57612951600082612925565b60018101905061293e565b5050565b601f8211156129a1576129728161284b565b61297b84612860565b8101602085101561298a578190505b61299e61299685612860565b83018261293d565b50505b505050565b600082821c905092915050565b60006129c4600019846008026129a6565b1980831691505092915050565b60006129dd83836129b3565b9150826002028217905092915050565b6129f6826118a9565b67ffffffffffffffff811115612a0f57612a0e611b6c565b5b612a198254612235565b612a24828285612960565b600060209050601f831160018114612a575760008415612a45578287015190505b612a4f85826129d1565b865550612ab7565b601f198416612a658661284b565b60005b82811015612a8d57848901518255600182019150602085019450602081019050612a68565b86831015612aaa5784890151612aa6601f8916826129b3565b8355505b6001600288020188555050505b505050505050565b600081519050919050565b600082825260208201905092915050565b6000819050602082019050919050565b612af48161185e565b82525050565b6000612b068383612aeb565b60208301905092915050565b6000602082019050919050565b6000612b2a82612abf565b612b348185612aca565b9350612b3f83612adb565b8060005b83811015612b70578151612b578882612afa565b9750612b6283612b12565b925050600181019050612b43565b5085935050505092915050565b600081519050919050565b600082825260208201905092915050565b6000819050602082019050919050565b612bb2816117db565b82525050565b6000612bc48383612ba9565b60208301905092915050565b6000602082019050919050565b6000612be882612b7d565b612bf28185612b88565b9350612bfd83612b99565b8060005b83811015612c2e578151612c158882612bb8565b9750612c2083612bd0565b925050600181019050612c01565b5085935050505092915050565b600081519050919050565b600082825260208201905092915050565b6000819050602082019050919050565b600081519050919050565b600082825260208201905092915050565b6000612c8e82612c67565b612c988185612c72565b9350612ca88185602086016118c5565b612cb1816118ef565b840191505092915050565b6000612cc88383612c83565b905092915050565b6000602082019050919050565b6000612ce882612c3b565b612cf28185612c46565b935083602082028501612d0485612c57565b8060005b85811015612d405784840389528151612d218582612cbc565b9450612d2c83612cd0565b925060208a01995050600181019050612d08565b50829750879550505050505092915050565b600060e082019050612d67600083018a611870565b8181036020830152612d798189612b1f565b90508181036040830152612d8d8188612bdd565b90508181036060830152612da18187612cdd565b9050612db0608083018661187f565b612dbd60a083018561187f565b81810360c0830152612dcf8184611900565b905098975050505050505050565b600081519050612dec816117e5565b92915050565b600060208284031215612e0857612e076117d1565b5b6000612e1684828501612ddd565b91505092915050565b6000612e2a826117db565b9150612e35836117db565b9250828202612e43816117db565b91508282048414831517612e5a57612e5961266c565b5b5092915050565b612e6a8161209b565b82525050565b60006080820190508181036000830152612e8a8187612b1f565b90508181036020830152612e9e8186612bdd565b90508181036040830152612eb28185612cdd565b9050612ec16060830184612e61565b95945050505050565b7f43616e6e6f742063616e63656c2070726f706f73616c00000000000000000000600082015250565b6000612f006016836118b4565b9150612f0b82612eca565b602082019050919050565b60006020820190508181036000830152612f2f81612ef3565b9050919050565b7f4f6e6c792070726f706f7365722063616e2063616e63656c0000000000000000600082015250565b6000612f6c6018836118b4565b9150612f7782612f36565b602082019050919050565b60006020820190508181036000830152612f9b81612f5f565b9050919050565b601f821115612fe357612fb48161230c565b612fbd84612860565b81016020851015612fcc578190505b612fe0612fd885612860565b83018261293d565b50505b505050565b612ff182612c67565b67ffffffffffffffff81111561300a57613009611b6c565b5b6130148254612235565b61301f828285612fa2565b600060209050601f8311600181146130525760008415613040578287015190505b61304a85826129d1565b8655506130b2565b601f1984166130608661230c565b60005b8281101561308857848901518255600182019150602085019450602081019050613063565b868310156130a557848901516130a1601f8916826129b3565b8355505b6001600288020188555050505b50505050505056fea2646970667358221220a5698d3f4ac67f6a5737a04753312c8f531edaf0d4349be42760bf6036af931164736f6c63430008180033",
  "linkReferences": {},
  "deployedLinkReferences": {}
}